{
  "address": "0xE71851bF87Acd2A69d135504Ac0E02Cc38096C38",
  "abi": [
    {
      "inputs": [
        {
          "internalType": "contract IAddressProvider",
          "name": "_a",
          "type": "address"
        },
        {
          "internalType": "contract IPool",
          "name": "_lendingPool",
          "type": "address"
        },
        {
          "internalType": "contract IMIMOProxyFactory",
          "name": "_proxyFactory",
          "type": "address"
        },
        {
          "internalType": "address",
          "name": "_mimoRebalance",
          "type": "address"
        }
      ],
      "stateMutability": "nonpayable",
      "type": "constructor"
    },
    {
      "inputs": [
        {
          "internalType": "address",
          "name": "actual",
          "type": "address"
        },
        {
          "internalType": "address",
          "name": "expected",
          "type": "address"
        }
      ],
      "name": "CALLER_NOT_LENDING_POOL",
      "type": "error"
    },
    {
      "inputs": [
        {
          "internalType": "address",
          "name": "callerProxy",
          "type": "address"
        },
        {
          "internalType": "address",
          "name": "vaultOwner",
          "type": "address"
        }
      ],
      "name": "CALLER_NOT_VAULT_OWNER",
      "type": "error"
    },
    {
      "inputs": [],
      "name": "CANNOT_SET_TO_ADDRESS_ZERO",
      "type": "error"
    },
    {
      "inputs": [
        {
          "internalType": "uint256",
          "name": "minRatio",
          "type": "uint256"
        },
        {
          "internalType": "uint256",
          "name": "actualRatio",
          "type": "uint256"
        }
      ],
      "name": "FINAL_VAULT_RATIO_TOO_LOW",
      "type": "error"
    },
    {
      "inputs": [
        {
          "internalType": "address",
          "name": "actual",
          "type": "address"
        },
        {
          "internalType": "address",
          "name": "expected",
          "type": "address"
        }
      ],
      "name": "INITIATOR_NOT_AUTHORIZED",
      "type": "error"
    },
    {
      "inputs": [],
      "name": "MAX_OPERATIONS_REACHED",
      "type": "error"
    },
    {
      "inputs": [],
      "name": "PAUSED",
      "type": "error"
    },
    {
      "inputs": [
        {
          "internalType": "uint256",
          "name": "maxVarFee",
          "type": "uint256"
        },
        {
          "internalType": "uint256",
          "name": "actualVarFee",
          "type": "uint256"
        }
      ],
      "name": "VARIABLE_FEE_TOO_HIGH",
      "type": "error"
    },
    {
      "inputs": [],
      "name": "VAULT_NOT_AUTOMATED",
      "type": "error"
    },
    {
      "inputs": [
        {
          "internalType": "uint256",
          "name": "vaultId",
          "type": "uint256"
        }
      ],
      "name": "VAULT_NOT_INITIALIZED",
      "type": "error"
    },
    {
      "inputs": [
        {
          "internalType": "uint256",
          "name": "actual",
          "type": "uint256"
        },
        {
          "internalType": "uint256",
          "name": "expected",
          "type": "uint256"
        }
      ],
      "name": "VAULT_TRIGGER_RATIO_NOT_REACHED",
      "type": "error"
    },
    {
      "inputs": [],
      "name": "VAULT_VALUE_CHANGE_TOO_HIGH",
      "type": "error"
    },
    {
      "anonymous": false,
      "inputs": [
        {
          "indexed": true,
          "internalType": "uint256",
          "name": "vaultId",
          "type": "uint256"
        },
        {
          "components": [
            {
              "internalType": "bool",
              "name": "isAutomated",
              "type": "bool"
            },
            {
              "internalType": "address",
              "name": "toCollateral",
              "type": "address"
            },
            {
              "internalType": "uint256",
              "name": "allowedVariation",
              "type": "uint256"
            },
            {
              "internalType": "uint256",
              "name": "targetRatio",
              "type": "uint256"
            },
            {
              "internalType": "uint256",
              "name": "triggerRatio",
              "type": "uint256"
            },
            {
              "internalType": "uint256",
              "name": "mcrBuffer",
              "type": "uint256"
            },
            {
              "internalType": "uint256",
              "name": "fixedFee",
              "type": "uint256"
            },
            {
              "internalType": "uint256",
              "name": "varFee",
              "type": "uint256"
            }
          ],
          "indexed": false,
          "internalType": "struct IMIMOAutoAction.AutomatedVault",
          "name": "autoVault",
          "type": "tuple"
        }
      ],
      "name": "AutomationSet",
      "type": "event"
    },
    {
      "anonymous": false,
      "inputs": [
        {
          "indexed": true,
          "internalType": "address",
          "name": "previousOwner",
          "type": "address"
        },
        {
          "indexed": true,
          "internalType": "address",
          "name": "newOwner",
          "type": "address"
        }
      ],
      "name": "OwnershipTransferred",
      "type": "event"
    },
    {
      "inputs": [],
      "name": "ROUNDING_BUFFER",
      "outputs": [
        {
          "internalType": "uint256",
          "name": "",
          "type": "uint256"
        }
      ],
      "stateMutability": "view",
      "type": "function"
    },
    {
      "inputs": [],
      "name": "a",
      "outputs": [
        {
          "internalType": "contract IAddressProvider",
          "name": "",
          "type": "address"
        }
      ],
      "stateMutability": "view",
      "type": "function"
    },
    {
      "inputs": [],
      "name": "claimOwnership",
      "outputs": [],
      "stateMutability": "nonpayable",
      "type": "function"
    },
    {
      "inputs": [
        {
          "internalType": "address[]",
          "name": "assets",
          "type": "address[]"
        },
        {
          "internalType": "uint256[]",
          "name": "amounts",
          "type": "uint256[]"
        },
        {
          "internalType": "uint256[]",
          "name": "premiums",
          "type": "uint256[]"
        },
        {
          "internalType": "address",
          "name": "initiator",
          "type": "address"
        },
        {
          "internalType": "bytes",
          "name": "params",
          "type": "bytes"
        }
      ],
      "name": "executeOperation",
      "outputs": [
        {
          "internalType": "bool",
          "name": "",
          "type": "bool"
        }
      ],
      "stateMutability": "nonpayable",
      "type": "function"
    },
    {
      "inputs": [
        {
          "internalType": "uint256",
          "name": "vaultId",
          "type": "uint256"
        },
        {
          "internalType": "address",
          "name": "toCollateral",
          "type": "address"
        }
      ],
      "name": "getAmounts",
      "outputs": [
        {
          "internalType": "uint256",
          "name": "rebalanceAmount",
          "type": "uint256"
        },
        {
          "internalType": "uint256",
          "name": "mintAmount",
          "type": "uint256"
        },
        {
          "internalType": "uint256",
          "name": "autoFee",
          "type": "uint256"
        }
      ],
      "stateMutability": "view",
      "type": "function"
    },
    {
      "inputs": [
        {
          "internalType": "uint256",
          "name": "vaultId",
          "type": "uint256"
        }
      ],
      "name": "getAutomatedVault",
      "outputs": [
        {
          "components": [
            {
              "internalType": "bool",
              "name": "isAutomated",
              "type": "bool"
            },
            {
              "internalType": "address",
              "name": "toCollateral",
              "type": "address"
            },
            {
              "internalType": "uint256",
              "name": "allowedVariation",
              "type": "uint256"
            },
            {
              "internalType": "uint256",
              "name": "targetRatio",
              "type": "uint256"
            },
            {
              "internalType": "uint256",
              "name": "triggerRatio",
              "type": "uint256"
            },
            {
              "internalType": "uint256",
              "name": "mcrBuffer",
              "type": "uint256"
            },
            {
              "internalType": "uint256",
              "name": "fixedFee",
              "type": "uint256"
            },
            {
              "internalType": "uint256",
              "name": "varFee",
              "type": "uint256"
            }
          ],
          "internalType": "struct IMIMOAutoAction.AutomatedVault",
          "name": "",
          "type": "tuple"
        }
      ],
      "stateMutability": "view",
      "type": "function"
    },
    {
      "inputs": [
        {
          "internalType": "uint256",
          "name": "vaultId",
          "type": "uint256"
        }
      ],
      "name": "getOperationTracker",
      "outputs": [
        {
          "internalType": "uint256",
          "name": "",
          "type": "uint256"
        }
      ],
      "stateMutability": "view",
      "type": "function"
    },
    {
      "inputs": [],
      "name": "lendingPool",
      "outputs": [
        {
          "internalType": "contract IPool",
          "name": "",
          "type": "address"
        }
      ],
      "stateMutability": "view",
      "type": "function"
    },
    {
      "inputs": [],
      "name": "mimoRebalance",
      "outputs": [
        {
          "internalType": "address",
          "name": "",
          "type": "address"
        }
      ],
      "stateMutability": "view",
      "type": "function"
    },
    {
      "inputs": [],
      "name": "owner",
      "outputs": [
        {
          "internalType": "address",
          "name": "",
          "type": "address"
        }
      ],
      "stateMutability": "view",
      "type": "function"
    },
    {
      "inputs": [],
      "name": "pause",
      "outputs": [],
      "stateMutability": "nonpayable",
      "type": "function"
    },
    {
      "inputs": [],
      "name": "paused",
      "outputs": [
        {
          "internalType": "bool",
          "name": "",
          "type": "bool"
        }
      ],
      "stateMutability": "view",
      "type": "function"
    },
    {
      "inputs": [],
      "name": "pendingOwner",
      "outputs": [
        {
          "internalType": "address",
          "name": "",
          "type": "address"
        }
      ],
      "stateMutability": "view",
      "type": "function"
    },
    {
      "inputs": [],
      "name": "proxyFactory",
      "outputs": [
        {
          "internalType": "contract IMIMOProxyFactory",
          "name": "",
          "type": "address"
        }
      ],
      "stateMutability": "view",
      "type": "function"
    },
    {
      "inputs": [
        {
          "internalType": "uint256",
          "name": "vaultId",
          "type": "uint256"
        },
        {
          "components": [
            {
              "internalType": "uint256",
              "name": "dexIndex",
              "type": "uint256"
            },
            {
              "internalType": "bytes",
              "name": "dexTxData",
              "type": "bytes"
            }
          ],
          "internalType": "struct IMIMOSwap.SwapData",
          "name": "swapData",
          "type": "tuple"
        }
      ],
      "name": "rebalance",
      "outputs": [],
      "stateMutability": "nonpayable",
      "type": "function"
    },
    {
      "inputs": [
        {
          "internalType": "uint256",
          "name": "vaultId",
          "type": "uint256"
        },
        {
          "components": [
            {
              "internalType": "bool",
              "name": "isAutomated",
              "type": "bool"
            },
            {
              "internalType": "address",
              "name": "toCollateral",
              "type": "address"
            },
            {
              "internalType": "uint256",
              "name": "allowedVariation",
              "type": "uint256"
            },
            {
              "internalType": "uint256",
              "name": "targetRatio",
              "type": "uint256"
            },
            {
              "internalType": "uint256",
              "name": "triggerRatio",
              "type": "uint256"
            },
            {
              "internalType": "uint256",
              "name": "mcrBuffer",
              "type": "uint256"
            },
            {
              "internalType": "uint256",
              "name": "fixedFee",
              "type": "uint256"
            },
            {
              "internalType": "uint256",
              "name": "varFee",
              "type": "uint256"
            }
          ],
          "internalType": "struct IMIMOAutoAction.AutomatedVault",
          "name": "autoParams",
          "type": "tuple"
        }
      ],
      "name": "setAutomation",
      "outputs": [],
      "stateMutability": "nonpayable",
      "type": "function"
    },
    {
      "inputs": [
        {
          "internalType": "address",
          "name": "newOwner",
          "type": "address"
        },
        {
          "internalType": "bool",
          "name": "direct",
          "type": "bool"
        },
        {
          "internalType": "bool",
          "name": "renounce",
          "type": "bool"
        }
      ],
      "name": "transferOwnership",
      "outputs": [],
      "stateMutability": "nonpayable",
      "type": "function"
    },
    {
      "inputs": [],
      "name": "unpause",
      "outputs": [],
      "stateMutability": "nonpayable",
      "type": "function"
    }
  ],
  "transactionHash": "0x03e1e9b33d87593611ffbc284110775af3b000eb5120f207b7d8277704b2212d",
  "args": [
    "0xa802eE4bd9f449295ADb6d73f65118352420758A",
    "0x794a61358D6845594F94dc1DB02A252b5b4814aD",
    "0x44e3c7B3994ce6C29a4E64A16ff998DAb5f996a3",
    "0x871269426857dc29cfdc5fBD028a1357bC3FEa97"
  ],
  "numDeployments": 1,
  "solcInputHash": "f32a31898ee3e7d355d788de2c8f3c93",
  "bytecode": "0x6101006040523480156200001257600080fd5b5060405162002e0338038062002e0383398101604081905262000035916200014c565b600080546001600160a01b0319163390811782556040518592879286929091907f8be0079c531659141344cd1fd0a4f28419497f9722a3daafe3b4186f6b6457e0908290a36001600160a01b03821615806200009857506001600160a01b038116155b15620000b757604051636a8403ad60e01b815260040160405180910390fd5b6001600160a01b03918216608052811660a0528116620000ea57604051636a8403ad60e01b815260040160405180910390fd5b6001600160a01b0390811660c052600160045581166200011d57604051636a8403ad60e01b815260040160405180910390fd5b6001600160a01b031660e05250620001b4915050565b6001600160a01b03811681146200014957600080fd5b50565b600080600080608085870312156200016357600080fd5b8451620001708162000133565b6020860151909450620001838162000133565b6040860151909350620001968162000133565b6060860151909250620001a98162000133565b939692955090935050565b60805160a05160c05160e051612bba62000249600039600081816101790152610825015260008181610292015281816106e20152818161072401528181610900015261183a0152600081816102ec0152610a730152600081816101350152818161094101528181610b4101528181610e2c015281816110850152818161133b015281816118b90152611c210152612bba6000f3fe608060405234801561001057600080fd5b50600436106101165760003560e01c80638da5cb5b116100a2578063b68a07b911610071578063b68a07b9146102c7578063c10f1a75146102e7578063d64797c51461030e578063e30c397814610321578063f54fa0e71461033457600080fd5b80638da5cb5b14610267578063920f5c841461027a578063a59a99731461028d578063ac6acb7e146102b457600080fd5b80633f4ba83a116100e95780633f4ba83a146101b75780634e71e0c8146101bf5780635c975abb146101c757806382bbacae146101e55780638456cb591461025f57600080fd5b8063078dfbe71461011b5780630dbe671f146101305780631cc2c5ce146101745780632d85962d1461019b575b600080fd5b61012e6101293660046121db565b610362565b005b6101577f000000000000000000000000000000000000000000000000000000000000000081565b6040516001600160a01b0390911681526020015b60405180910390f35b6101577f000000000000000000000000000000000000000000000000000000000000000081565b6101a966038d7ea4c6800081565b60405190815260200161016b565b61012e610479565b61012e6104b2565b600154600160a01b900460ff165b604051901515815260200161016b565b6101f86101f3366004612226565b61056f565b60405161016b91908151151581526020808301516001600160a01b03169082015260408083015190820152606080830151908201526080808301519082015260a0808301519082015260c0808301519082015260e091820151918101919091526101000190565b61012e61063b565b600054610157906001600160a01b031681565b6101d561028836600461228b565b61067a565b6101577f000000000000000000000000000000000000000000000000000000000000000081565b61012e6102c2366004612390565b61093d565b6101a96102d5366004612226565b60009081526003602052604090205490565b6101577f000000000000000000000000000000000000000000000000000000000000000081565b61012e61031c3660046123ca565b610d18565b600154610157906001600160a01b031681565b610347610342366004612418565b611128565b6040805193845260208401929092529082015260600161016b565b6000546001600160a01b031633146103955760405162461bcd60e51b815260040161038c9061243d565b60405180910390fd5b8115610458576001600160a01b0383161515806103af5750805b6103f35760405162461bcd60e51b81526020600482015260156024820152744f776e61626c653a207a65726f206164647265737360581b604482015260640161038c565b600080546040516001600160a01b03808716939216917f8be0079c531659141344cd1fd0a4f28419497f9722a3daafe3b4186f6b6457e091a3600080546001600160a01b0385166001600160a01b031991821617909155600180549091169055505050565b600180546001600160a01b0319166001600160a01b0385161790555b505050565b6000546001600160a01b031633146104a35760405162461bcd60e51b815260040161038c9061243d565b6001805460ff60a01b19169055565b6001546001600160a01b031633811461050d5760405162461bcd60e51b815260206004820181905260248201527f4f776e61626c653a2063616c6c657220213d2070656e64696e67206f776e6572604482015260640161038c565b600080546040516001600160a01b03808516939216917f8be0079c531659141344cd1fd0a4f28419497f9722a3daafe3b4186f6b6457e091a3600080546001600160a01b039092166001600160a01b0319928316179055600180549091169055565b6105c260405180610100016040528060001515815260200160006001600160a01b031681526020016000815260200160008152602001600081526020016000815260200160008152602001600081525090565b5060009081526002602081815260409283902083516101008082018652825460ff811615158352046001600160a01b03169281019290925260018101549382019390935290820154606082015260038201546080820152600482015460a0820152600582015460c082015260069091015460e082015290565b6000546001600160a01b031633146106655760405162461bcd60e51b815260040161038c9061243d565b6001805460ff60a01b1916600160a01b179055565b60008080808061068c8688018861252d565b9350935093509350306001600160a01b0316886001600160a01b0316146106d757604051637c6b83fd60e01b81526001600160a01b038916600482015230602482015260440161038c565b336001600160a01b037f0000000000000000000000000000000000000000000000000000000000000000161461075157604051631489d26d60e11b81523360048201526001600160a01b037f000000000000000000000000000000000000000000000000000000000000000016602482015260440161038c565b60008e8e600081811061076657610766612649565b905060200201602081019061077b919061265f565b905060008d8d600081811061079257610792612649565b9050602002013590506107d2868f8f60008181106107b2576107b2612649565b90506020020135846001600160a01b03166111c99092919063ffffffff16565b60008c8c60008181106107e7576107e7612649565b905060200201358f8f600081811061080157610801612649565b905060200201356108129190612692565b9050866001600160a01b0316631cff79cd7f00000000000000000000000000000000000000000000000000000000000000008585858b8b8b60405160240161085f96959493929190612702565b60408051601f198184030181529181526020820180516001600160e01b031663b0597c8760e01b1790525160e084901b6001600160e01b03191681526108a992919060040161277a565b6000604051808303816000875af11580156108c8573d6000803e3d6000fd5b505050506040513d6000823e601f3d908101601f191682016040526108f0919081019061279e565b506109256001600160a01b0384167f00000000000000000000000000000000000000000000000000000000000000008361122c565b60019750505050505050509998505050505050505050565b60007f00000000000000000000000000000000000000000000000000000000000000006001600160a01b03166365d552876040518163ffffffff1660e01b8152600401602060405180830381865afa15801561099d573d6000803e3d6000fd5b505050506040513d601f19601f820116820180604052508101906109c19190612815565b6001600160a01b0316633c2ecfe5846040518263ffffffff1660e01b81526004016109ee91815260200190565b602060405180830381865afa158015610a0b573d6000803e3d6000fd5b505050506040513d601f19601f82011682018060405250810190610a2f9190612815565b90506001600160a01b038116610a5b57604051634d304f0560e01b81526004810184905260240161038c565b6040516326558c5d60e21b81523360048201526000907f00000000000000000000000000000000000000000000000000000000000000006001600160a01b031690639956317490602401602060405180830381865afa158015610ac2573d6000803e3d6000fd5b505050506040513d601f19601f82011682018060405250810190610ae69190612815565b90506001600160a01b0382163314610b3d57816001600160a01b0316816001600160a01b031614610b3d5760405163295ab81160e11b81526001600160a01b0380831660048301528316602482015260440161038c565b60007f00000000000000000000000000000000000000000000000000000000000000006001600160a01b03166379502c556040518163ffffffff1660e01b8152600401602060405180830381865afa158015610b9d573d6000803e3d6000fd5b505050506040513d601f19601f82011682018060405250810190610bc19190612815565b6001600160a01b0316638a70473b610bdf604087016020880161265f565b6040516001600160e01b031960e084901b1681526001600160a01b039091166004820152602401602060405180830381865afa158015610c23573d6000803e3d6000fd5b505050506040513d601f19601f82011682018060405250810190610c479190612832565b90506000610c886060860135670de0b6b3a7640000610c78610c6d60a08a013587612692565b60608a0135906112e4565b610c829190612692565b906112e4565b9050808560e0013510610cbb5760405163144bfaed60e11b81526004810182905260e0860135602482015260440161038c565b60008681526002602052604090208590610cd5828261285e565b905050857f2c796684e9c299b66ae723f50f3244c2acc737321a27e4ad08ed2bf371da69c686604051610d0891906128f0565b60405180910390a2505050505050565b600154600160a01b900460ff1615610d4357604051632a6ab56360e21b815260040160405180910390fd5b60026004541415610d965760405162461bcd60e51b815260206004820152601f60248201527f5265656e7472616e637947756172643a207265656e7472616e742063616c6c00604482015260640161038c565b6002600481815560008481526020838152604080832081516101008082018452825460ff811615158352046001600160a01b031693810193909352600181015491830191909152938401546060820152600384015460808201529183015460a0830152600583015460c083015260069092015460e08201529080610e198561131b565b91509150610e28838684611635565b60007f00000000000000000000000000000000000000000000000000000000000000006001600160a01b03166365d552876040518163ffffffff1660e01b8152600401602060405180830381865afa158015610e88573d6000803e3d6000fd5b505050506040513d601f19601f82011682018060405250810190610eac9190612815565b604051633c2ecfe560e01b8152600481018890529091506000906001600160a01b03831690633c2ecfe590602401602060405180830381865afa158015610ef7573d6000803e3d6000fd5b505050506040513d601f19601f82011682018060405250810190610f1b9190612815565b602086015160405163bd44815f60e01b81526001600160a01b03918216600482015281831660248201529192506000919084169063bd44815f90604401602060405180830381865afa158015610f75573d6000803e3d6000fd5b505050506040513d601f19601f82011682018060405250810190610f999190612832565b60405163828f8def60e01b8152600481018290529091506000906001600160a01b0385169063828f8def90602401602060405180830381865afa158015610fe4573d6000803e3d6000fd5b505050506040513d601f19601f820116820180604052508101906110089190612832565b9050600080600061101f8a898c602001518f6116c4565b925092509250611054828783868f6040516020016110409493929190612963565b60405160208183030381529060405261176d565b6110668a8360400151868f8a8c6118b5565b42600360008e81526020019081526020016000208190555061111533827f00000000000000000000000000000000000000000000000000000000000000006001600160a01b03166316d8a5a96040518163ffffffff1660e01b8152600401602060405180830381865afa1580156110e1573d6000803e3d6000fd5b505050506040513d601f19601f820116820180604052508101906111059190612815565b6001600160a01b031691906111c9565b5050600160045550505050505050505050565b6000806000806111378661131b565b60008881526002602081815260409283902083516101008082018652825460ff811615158352046001600160a01b03169281019290925260018101549382019390935290820154606082015260038201546080820152600482015460a0820152600582015460c082015260069091015460e08201529092506111bb91508287611c19565b935093509350509250925092565b6040516001600160a01b03831660248201526044810182905261047490849063a9059cbb60e01b906064015b60408051601f198184030181529190526020810180516001600160e01b03166001600160e01b031990931692909217909152611ee4565b604051636eb1769f60e11b81523060048201526001600160a01b038381166024830152600091839186169063dd62ed3e90604401602060405180830381865afa15801561127d573d6000803e3d6000fd5b505050506040513d601f19601f820116820180604052508101906112a19190612832565b6112ab9190612692565b6040516001600160a01b0385166024820152604481018290529091506112de90859063095ea7b360e01b906064016111f5565b50505050565b60008115670de0b6b3a76400006002840419048411171561130457600080fd5b50670de0b6b3a76400009190910260028204010490565b6040805160608101825260008082526020820181905291810182905260007f000000000000000000000000000000000000000000000000000000000000000090506000816001600160a01b03166365d552876040518163ffffffff1660e01b8152600401602060405180830381865afa15801561139c573d6000803e3d6000fd5b505050506040513d601f19601f820116820180604052508101906113c09190612815565b90506000826001600160a01b031663741bef1a6040518163ffffffff1660e01b8152600401602060405180830381865afa158015611402573d6000803e3d6000fd5b505050506040513d601f19601f820116820180604052508101906114269190612815565b60405163828f8def60e01b8152600481018890529091506000906001600160a01b0384169063828f8def90602401602060405180830381865afa158015611471573d6000803e3d6000fd5b505050506040513d601f19601f820116820180604052508101906114959190612832565b60405163b508bc5960e01b8152600481018990529091506000906001600160a01b0385169063b508bc5990602401602060405180830381865afa1580156114e0573d6000803e3d6000fd5b505050506040513d601f19601f820116820180604052508101906115049190612815565b604051630392048f60e51b81526001600160a01b0380831660048301526024820185905291925060009185169063724091e090604401602060405180830381865afa158015611557573d6000803e3d6000fd5b505050506040513d601f19601f8201168201806040525081019061157b9190612832565b60405163d310f49b60e01b8152600481018b90529091506000906001600160a01b0387169063d310f49b90602401602060405180830381865afa1580156115c6573d6000803e3d6000fd5b505050506040513d601f19601f820116820180604052508101906115ea9190612832565b90508015611601576115fc82826112e4565b611605565b6000195b604080516060810182526001600160a01b0390951685526020850193909352918301529890975095505050505050565b8251611654576040516319a0e7df60e11b815260040160405180910390fd5b6116616201518042612a2a565b600083815260036020526040902054111561168f576040516359caa18960e01b815260040160405180910390fd5b826080015181111561047457608083015160405163aacf6e5360e01b815261038c918391600401918252602082015260400190565b6116f1604051806060016040528060006001600160a01b0316815260200160008152602001600081525090565b604080516060810182526000808252602082018190529181018290529080808061171c8a8a8a611c19565b60408051606080820183526001600160a01b039d8e16825260208083019d909d5281830194909452815193840182529c51909b16825230998201999099529889015250969895975093955050505050565b604080516001808252818301909252600091602080830190803683375050604080516001808252818301909252929350600092915060208083019080368337505060408051600180825281830190925292935060009291506020808301908036833701905050905084600001518560400151846000815181106117f2576117f2612649565b602002602001018460008151811061180c5761180c612649565b6020908102919091018101929092526001600160a01b03928316905286015160405163ab9c4b5d60e01b81527f00000000000000000000000000000000000000000000000000000000000000009092169163ab9c4b5d9161187c9187908790879084908c90600090600401612a7c565b600060405180830381600087803b15801561189657600080fd5b505af11580156118aa573d6000803e3d6000fd5b505050505050505050565b60007f00000000000000000000000000000000000000000000000000000000000000006001600160a01b031663741bef1a6040518163ffffffff1660e01b8152600401602060405180830381865afa158015611915573d6000803e3d6000fd5b505050506040513d601f19601f820116820180604052508101906119399190612815565b60405163b508bc5960e01b8152600481018690529091506000906001600160a01b0384169063b508bc5990602401602060405180830381865afa158015611984573d6000803e3d6000fd5b505050506040513d601f19601f820116820180604052508101906119a89190612815565b604051630392048f60e51b81526001600160a01b038083166004830152602482018a905291925060009184169063724091e090604401602060405180830381865afa1580156119fb573d6000803e3d6000fd5b505050506040513d601f19601f82011682018060405250810190611a1f9190612832565b60208a015160405163bd44815f60e01b81526001600160a01b03918216600482015287821660248201529192506000919086169063bd44815f90604401602060405180830381865afa158015611a79573d6000803e3d6000fd5b505050506040513d601f19601f82011682018060405250810190611a9d9190612832565b60405163828f8def60e01b8152600481018290529091506000906001600160a01b0387169063828f8def90602401602060405180830381865afa158015611ae8573d6000803e3d6000fd5b505050506040513d601f19601f82011682018060405250810190611b0c9190612832565b90506000856001600160a01b031663724091e08d602001518c85611b309190612a2a565b6040516001600160e01b031960e085901b1681526001600160a01b0390921660048301526024820152604401602060405180830381865afa158015611b79573d6000803e3d6000fd5b505050506040513d601f19601f82011682018060405250810190611b9d9190612832565b9050611baa8c8583611fb6565b611bc75760405163330998e160e11b815260040160405180910390fd5b6000611bd28a61131b565b5090508c60600151811015611c0a5760608d015160405163dfab2be560e01b815260048101919091526024810182905260440161038c565b50505050505050505050505050565b6000806000807f00000000000000000000000000000000000000000000000000000000000000009050600066038d7ea4c680008860600151611c5b9190612692565b90506000826001600160a01b03166379502c556040518163ffffffff1660e01b8152600401602060405180830381865afa158015611c9d573d6000803e3d6000fd5b505050506040513d601f19601f82011682018060405250810190611cc19190612815565b604051638a70473b60e01b81526001600160a01b0389811660048301529190911690638a70473b90602401602060405180830381865afa158015611d09573d6000803e3d6000fd5b505050506040513d601f19601f82011682018060405250810190611d2d9190612832565b90506000611daf670de0b6b3a7640000611d548c60e0015186611ffc90919063ffffffff16565b611d6e8d60a0015186611d679190612692565b87906112e4565b611d789190612a2a565b611d829190612a2a565b8a60200151611da58d60c001518d60400151611d9e9190612692565b8790611ffc565b610c829190612a2a565b9050611dc88a60e0015182611ffc90919063ffffffff16565b8a60c00151611dd79190612692565b9450836001600160a01b031663741bef1a6040518163ffffffff1660e01b8152600401602060405180830381865afa158015611e17573d6000803e3d6000fd5b505050506040513d601f19601f82011682018060405250810190611e3b9190612815565b8951604051639bfa518160e01b81526001600160a01b03918216600482015260248101849052911690639bfa518190604401602060405180830381865afa158015611e8a573d6000803e3d6000fd5b505050506040513d601f19601f82011682018060405250810190611eae9190612832565b965084611ecb8b60a0015184611ec49190612692565b83906112e4565b611ed59190612a2a565b95505050505093509350939050565b6000611f39826040518060400160405280602081526020017f5361666545524332303a206c6f772d6c6576656c2063616c6c206661696c6564815250856001600160a01b03166120349092919063ffffffff16565b8051909150156104745780806020019051810190611f579190612b38565b6104745760405162461bcd60e51b815260206004820152602a60248201527f5361666545524332303a204552433230206f7065726174696f6e20646964206e6044820152691bdd081cdd58d8d9595960b21b606482015260840161038c565b6000828210611fc757506001611ff5565b6000611fd784610c828582612a2a565b90508460400151811115611fef576000915050611ff5565b60019150505b9392505050565b600081156706f05b59d3b20000198390048411151761201a57600080fd5b50670de0b6b3a764000091026706f05b59d3b20000010490565b6060612043848460008561204b565b949350505050565b6060824710156120ac5760405162461bcd60e51b815260206004820152602660248201527f416464726573733a20696e73756666696369656e742062616c616e636520666f6044820152651c8818d85b1b60d21b606482015260840161038c565b6001600160a01b0385163b6121035760405162461bcd60e51b815260206004820152601d60248201527f416464726573733a2063616c6c20746f206e6f6e2d636f6e7472616374000000604482015260640161038c565b600080866001600160a01b0316858760405161211f9190612b55565b60006040518083038185875af1925050503d806000811461215c576040519150601f19603f3d011682016040523d82523d6000602084013e612161565b606091505b509150915061217182828661217c565b979650505050505050565b6060831561218b575081611ff5565b82511561219b5782518084602001fd5b8160405162461bcd60e51b815260040161038c9190612b71565b6001600160a01b03811681146121ca57600080fd5b50565b80151581146121ca57600080fd5b6000806000606084860312156121f057600080fd5b83356121fb816121b5565b9250602084013561220b816121cd565b9150604084013561221b816121cd565b809150509250925092565b60006020828403121561223857600080fd5b5035919050565b60008083601f84011261225157600080fd5b50813567ffffffffffffffff81111561226957600080fd5b6020830191508360208260051b850101111561228457600080fd5b9250929050565b600080600080600080600080600060a08a8c0312156122a957600080fd5b893567ffffffffffffffff808211156122c157600080fd5b6122cd8d838e0161223f565b909b50995060208c01359150808211156122e657600080fd5b6122f28d838e0161223f565b909950975060408c013591508082111561230b57600080fd5b6123178d838e0161223f565b909750955060608c0135915061232c826121b5565b90935060808b0135908082111561234257600080fd5b818c0191508c601f83011261235657600080fd5b81358181111561236557600080fd5b8d602082850101111561237757600080fd5b6020830194508093505050509295985092959850929598565b6000808284036101208112156123a557600080fd5b83359250610100601f19820112156123bc57600080fd5b506020830190509250929050565b600080604083850312156123dd57600080fd5b82359150602083013567ffffffffffffffff8111156123fb57600080fd5b83016040818603121561240d57600080fd5b809150509250929050565b6000806040838503121561242b57600080fd5b82359150602083013561240d816121b5565b6020808252818101527f4f776e61626c653a2063616c6c6572206973206e6f7420746865206f776e6572604082015260600190565b634e487b7160e01b600052604160045260246000fd5b6040516060810167ffffffffffffffff811182821017156124ab576124ab612472565b60405290565b6040805190810167ffffffffffffffff811182821017156124ab576124ab612472565b604051601f8201601f1916810167ffffffffffffffff811182821017156124fd576124fd612472565b604052919050565b600067ffffffffffffffff82111561251f5761251f612472565b50601f01601f191660200190565b60008060008084860360c081121561254457600080fd5b853561254f816121b5565b945060208681013594506060603f198301121561256b57600080fd5b612573612488565b91506040870135612583816121b5565b82526060870135818301526080870135604083015290925060a08601359067ffffffffffffffff808311156125b757600080fd5b918701916040838a0312156125cb57600080fd5b6125d36124b1565b8335815282840135828111156125e857600080fd5b80850194505089601f8501126125fd57600080fd5b8335915061261261260d83612505565b6124d4565b8281528a8484870101111561262657600080fd5b828486018583013760009281018401929092529182015294979396509194505050565b634e487b7160e01b600052603260045260246000fd5b60006020828403121561267157600080fd5b8135611ff5816121b5565b634e487b7160e01b600052601160045260246000fd5b600082198211156126a5576126a561267c565b500190565b60005b838110156126c55781810151838201526020016126ad565b838111156112de5750506000910152565b600081518084526126ee8160208601602086016126aa565b601f01601f19169290920160200192915050565b6001600160a01b03878116825260208083018890526040808401889052606084018790528551909216608084015284015160a083015283015160c082015260006101008060e0840152835181840152506020830151604061012084015261276d6101408401826126d6565b9998505050505050505050565b6001600160a01b0383168152604060208201819052600090612043908301846126d6565b6000602082840312156127b057600080fd5b815167ffffffffffffffff8111156127c757600080fd5b8201601f810184136127d857600080fd5b80516127e661260d82612505565b8181528560208385010111156127fb57600080fd5b61280c8260208301602086016126aa565b95945050505050565b60006020828403121561282757600080fd5b8151611ff5816121b5565b60006020828403121561284457600080fd5b5051919050565b60008135612858816121b5565b92915050565b8135612869816121cd565b815490151560ff1660ff19919091161781556128b061288a6020840161284b565b828054610100600160a81b03191660089290921b610100600160a81b0316919091179055565b60408201356001820155606082013560028201556080820135600382015560a0820135600482015560c0820135600582015560e082013560068201555050565b61010081018235612900816121cd565b151582526020830135612912816121b5565b60018060a01b03811660208401525060408301356040830152606083013560608301526080830135608083015260a083013560a083015260c083013560c083015260e083013560e083015292915050565b6001600160a01b0385168152602081018490526129a0604082018480516001600160a01b0316825260208082015190830152604090810151910152565b60c060a0820152813560c082015260006020830135601e198436030181126129c757600080fd5b8301803567ffffffffffffffff8111156129e057600080fd5b8036038513156129ef57600080fd5b604060e0850152806101008501526101208160208401828701376000858301820152601f909101601f19169093019092019695505050505050565b600082821015612a3c57612a3c61267c565b500390565b600081518084526020808501945080840160005b83811015612a7157815187529582019590820190600101612a55565b509495945050505050565b6001600160a01b03888116825260e0602080840182905289519184018290526000928a820192909190610100860190855b81811015612acb578551851683529483019491830191600101612aad565b50508581036040870152612adf818c612a41565b93505050508281036060840152612af68188612a41565b6001600160a01b0387166080850152905082810360a0840152612b1981866126d6565b915050612b2c60c083018461ffff169052565b98975050505050505050565b600060208284031215612b4a57600080fd5b8151611ff5816121cd565b60008251612b678184602087016126aa565b9190910192915050565b602081526000611ff560208301846126d656fea2646970667358221220254f72c22612dfb5627c0514a1d9f8ef4b608cd607a074b153faada17d33071e64736f6c634300080a0033",
  "devdoc": {
    "kind": "dev",
    "methods": {
      "executeOperation(address[],uint256[],uint256[],address,bytes)": {
        "details": "Integrates with AAVE V3 flashLoans",
        "params": {
          "amounts": "Uint array with one element corresponding to the amount of the rebalanced asset",
          "assets": "Address array with one element corresponding to the address of the reblanced asset",
          "initiator": "Initiator of the flashloan; can only be MIMOProxy owner",
          "params": "Bytes sent by this contract containing MIMOProxy owner, RebalanceData struct and SwapData struct",
          "premiums": "Uint array with one element corresponding to the flashLoan fees"
        },
        "returns": {
          "_0": "True if success and False if failed"
        }
      },
      "getAmounts(uint256,address)": {
        "params": {
          "toCollateral": "Collateral to rebalance to",
          "vaultId": "Vault id of the vault to rebalance"
        },
        "returns": {
          "autoFee": "Automation fee",
          "mintAmount": "Amount to mint on vault B",
          "rebalanceAmount": "Amount to rebalance"
        }
      },
      "getAutomatedVault(uint256)": {
        "params": {
          "vaultId": "Vault id of the queried vault"
        },
        "returns": {
          "_0": "AutomatedVault struct of a specific vault id"
        }
      },
      "getOperationTracker(uint256)": {
        "params": {
          "vaultId": "Vault id of the queried vault"
        },
        "returns": {
          "_0": "Timestamp of the last performed operation"
        }
      },
      "rebalance(uint256,(uint256,bytes))": {
        "details": "Reverts if operation results in vault value change above allowed variation or in vault ratio lower than min  ratio",
        "params": {
          "swapData": "SwapData struct containing aggegator swap parameters",
          "vaultId": "Vault id of the vault to rebalance"
        }
      },
      "setAutomation(uint256,(bool,address,uint256,uint256,uint256,uint256,uint256,uint256))": {
        "details": "Can only be called by vault owner",
        "params": {
          "autoParams": "AutomatedVault struct containing all automation parameters",
          "vaultId": "Vault id of the vault to be automated"
        }
      },
      "transferOwnership(address,bool,bool)": {
        "params": {
          "direct": "True if `newOwner` should be set immediately. False if `newOwner` needs to use `claimOwnership`.",
          "newOwner": "Address of the new owner.",
          "renounce": "Allows the `newOwner` to be `address(0)` if `direct` and `renounce` is True. Has no effect otherwise."
        }
      }
    },
    "version": 1
  },
  "userdoc": {
    "kind": "user",
    "methods": {
      "claimOwnership()": {
        "notice": "Needs to be called by `pendingOwner` to claim ownership."
      },
      "executeOperation(address[],uint256[],uint256[],address,bytes)": {
        "notice": "Routes a call from a flashloan pool to a leverage or rebalance operation"
      },
      "getAmounts(uint256,address)": {
        "notice": "Getter function returning rebalance amounts for specific vault id"
      },
      "rebalance(uint256,(uint256,bytes))": {
        "notice": "Perform a rebalance on a vault on behalf of vault ownerVault must have been created though a MIMOProxy"
      },
      "setAutomation(uint256,(bool,address,uint256,uint256,uint256,uint256,uint256,uint256))": {
        "notice": "Sets a vault automation parameters"
      },
      "transferOwnership(address,bool,bool)": {
        "notice": "Transfers ownership to `newOwner`. Either directly or claimable by the new pending owner. Can only be invoked by the current `owner`."
      }
    },
    "notice": "Rebalance value is calculated by the formula below : targetRatio * (vaultDebt + fixedFee) - collateralValue ---------------------------------------------------------------------- targetRatio / (mcrB + mcrBuffer) - targetRatio * variableFee - 1 ",
    "version": 1
  },
  "storageLayout": {
    "storage": [
      {
        "astId": 9731,
        "contract": "contracts/actions/automated/MIMOAutoRebalance.sol:MIMOAutoRebalance",
        "label": "owner",
        "offset": 0,
        "slot": "0",
        "type": "t_address"
      },
      {
        "astId": 9733,
        "contract": "contracts/actions/automated/MIMOAutoRebalance.sol:MIMOAutoRebalance",
        "label": "pendingOwner",
        "offset": 0,
        "slot": "1",
        "type": "t_address"
      },
      {
        "astId": 3065,
        "contract": "contracts/actions/automated/MIMOAutoRebalance.sol:MIMOAutoRebalance",
        "label": "_paused",
        "offset": 20,
        "slot": "1",
        "type": "t_bool"
      },
      {
        "astId": 4169,
        "contract": "contracts/actions/automated/MIMOAutoRebalance.sol:MIMOAutoRebalance",
        "label": "_automatedVaults",
        "offset": 0,
        "slot": "2",
        "type": "t_mapping(t_uint256,t_struct(AutomatedVault)5222_storage)"
      },
      {
        "astId": 4173,
        "contract": "contracts/actions/automated/MIMOAutoRebalance.sol:MIMOAutoRebalance",
        "label": "_operationTracker",
        "offset": 0,
        "slot": "3",
        "type": "t_mapping(t_uint256,t_uint256)"
      },
      {
        "astId": 1422,
        "contract": "contracts/actions/automated/MIMOAutoRebalance.sol:MIMOAutoRebalance",
        "label": "_status",
        "offset": 0,
        "slot": "4",
        "type": "t_uint256"
      }
    ],
    "types": {
      "t_address": {
        "encoding": "inplace",
        "label": "address",
        "numberOfBytes": "20"
      },
      "t_bool": {
        "encoding": "inplace",
        "label": "bool",
        "numberOfBytes": "1"
      },
      "t_mapping(t_uint256,t_struct(AutomatedVault)5222_storage)": {
        "encoding": "mapping",
        "key": "t_uint256",
        "label": "mapping(uint256 => struct IMIMOAutoAction.AutomatedVault)",
        "numberOfBytes": "32",
        "value": "t_struct(AutomatedVault)5222_storage"
      },
      "t_mapping(t_uint256,t_uint256)": {
        "encoding": "mapping",
        "key": "t_uint256",
        "label": "mapping(uint256 => uint256)",
        "numberOfBytes": "32",
        "value": "t_uint256"
      },
      "t_struct(AutomatedVault)5222_storage": {
        "encoding": "inplace",
        "label": "struct IMIMOAutoAction.AutomatedVault",
        "members": [
          {
            "astId": 5207,
            "contract": "contracts/actions/automated/MIMOAutoRebalance.sol:MIMOAutoRebalance",
            "label": "isAutomated",
            "offset": 0,
            "slot": "0",
            "type": "t_bool"
          },
          {
            "astId": 5209,
            "contract": "contracts/actions/automated/MIMOAutoRebalance.sol:MIMOAutoRebalance",
            "label": "toCollateral",
            "offset": 1,
            "slot": "0",
            "type": "t_address"
          },
          {
            "astId": 5211,
            "contract": "contracts/actions/automated/MIMOAutoRebalance.sol:MIMOAutoRebalance",
            "label": "allowedVariation",
            "offset": 0,
            "slot": "1",
            "type": "t_uint256"
          },
          {
            "astId": 5213,
            "contract": "contracts/actions/automated/MIMOAutoRebalance.sol:MIMOAutoRebalance",
            "label": "targetRatio",
            "offset": 0,
            "slot": "2",
            "type": "t_uint256"
          },
          {
            "astId": 5215,
            "contract": "contracts/actions/automated/MIMOAutoRebalance.sol:MIMOAutoRebalance",
            "label": "triggerRatio",
            "offset": 0,
            "slot": "3",
            "type": "t_uint256"
          },
          {
            "astId": 5217,
            "contract": "contracts/actions/automated/MIMOAutoRebalance.sol:MIMOAutoRebalance",
            "label": "mcrBuffer",
            "offset": 0,
            "slot": "4",
            "type": "t_uint256"
          },
          {
            "astId": 5219,
            "contract": "contracts/actions/automated/MIMOAutoRebalance.sol:MIMOAutoRebalance",
            "label": "fixedFee",
            "offset": 0,
            "slot": "5",
            "type": "t_uint256"
          },
          {
            "astId": 5221,
            "contract": "contracts/actions/automated/MIMOAutoRebalance.sol:MIMOAutoRebalance",
            "label": "varFee",
            "offset": 0,
            "slot": "6",
            "type": "t_uint256"
          }
        ],
        "numberOfBytes": "224"
      },
      "t_uint256": {
        "encoding": "inplace",
        "label": "uint256",
        "numberOfBytes": "32"
      }
    }
  }
}