{
  "address": "0x871269426857dc29cfdc5fBD028a1357bC3FEa97",
  "abi": [
    {
      "inputs": [
        {
          "internalType": "contract IAddressProvider",
          "name": "_a",
          "type": "address"
        },
        {
          "internalType": "contract IDexAddressProvider",
          "name": "_dexAP",
          "type": "address"
        },
        {
          "internalType": "contract IPool",
          "name": "_lendingPool",
          "type": "address"
        },
        {
          "internalType": "contract IMIMOProxyFactory",
          "name": "_proxyFactory",
          "type": "address"
        }
      ],
      "stateMutability": "nonpayable",
      "type": "constructor"
    },
    {
      "inputs": [],
      "name": "AGGREGATOR_CALL_FAILED",
      "type": "error"
    },
    {
      "inputs": [
        {
          "internalType": "address",
          "name": "actual",
          "type": "address"
        },
        {
          "internalType": "address",
          "name": "expected",
          "type": "address"
        }
      ],
      "name": "CALLER_NOT_LENDING_POOL",
      "type": "error"
    },
    {
      "inputs": [],
      "name": "CANNOT_REPAY_FLASHLOAN",
      "type": "error"
    },
    {
      "inputs": [],
      "name": "CANNOT_SET_TO_ADDRESS_ZERO",
      "type": "error"
    },
    {
      "inputs": [
        {
          "internalType": "address",
          "name": "actual",
          "type": "address"
        },
        {
          "internalType": "address",
          "name": "expected",
          "type": "address"
        }
      ],
      "name": "INITIATOR_NOT_AUTHORIZED",
      "type": "error"
    },
    {
      "inputs": [],
      "name": "INVALID_AGGREGATOR",
      "type": "error"
    },
    {
      "inputs": [],
      "name": "PAUSED",
      "type": "error"
    },
    {
      "anonymous": false,
      "inputs": [
        {
          "indexed": true,
          "internalType": "address",
          "name": "previousOwner",
          "type": "address"
        },
        {
          "indexed": true,
          "internalType": "address",
          "name": "newOwner",
          "type": "address"
        }
      ],
      "name": "OwnershipTransferred",
      "type": "event"
    },
    {
      "inputs": [],
      "name": "a",
      "outputs": [
        {
          "internalType": "contract IAddressProvider",
          "name": "",
          "type": "address"
        }
      ],
      "stateMutability": "view",
      "type": "function"
    },
    {
      "inputs": [],
      "name": "claimOwnership",
      "outputs": [],
      "stateMutability": "nonpayable",
      "type": "function"
    },
    {
      "inputs": [],
      "name": "dexAP",
      "outputs": [
        {
          "internalType": "contract IDexAddressProvider",
          "name": "",
          "type": "address"
        }
      ],
      "stateMutability": "view",
      "type": "function"
    },
    {
      "inputs": [
        {
          "internalType": "bytes",
          "name": "_calldata",
          "type": "bytes"
        }
      ],
      "name": "executeAction",
      "outputs": [],
      "stateMutability": "nonpayable",
      "type": "function"
    },
    {
      "inputs": [
        {
          "internalType": "address[]",
          "name": "assets",
          "type": "address[]"
        },
        {
          "internalType": "uint256[]",
          "name": "amounts",
          "type": "uint256[]"
        },
        {
          "internalType": "uint256[]",
          "name": "premiums",
          "type": "uint256[]"
        },
        {
          "internalType": "address",
          "name": "initiator",
          "type": "address"
        },
        {
          "internalType": "bytes",
          "name": "params",
          "type": "bytes"
        }
      ],
      "name": "executeOperation",
      "outputs": [
        {
          "internalType": "bool",
          "name": "",
          "type": "bool"
        }
      ],
      "stateMutability": "nonpayable",
      "type": "function"
    },
    {
      "inputs": [],
      "name": "lendingPool",
      "outputs": [
        {
          "internalType": "contract IPool",
          "name": "",
          "type": "address"
        }
      ],
      "stateMutability": "view",
      "type": "function"
    },
    {
      "inputs": [],
      "name": "owner",
      "outputs": [
        {
          "internalType": "address",
          "name": "",
          "type": "address"
        }
      ],
      "stateMutability": "view",
      "type": "function"
    },
    {
      "inputs": [],
      "name": "pause",
      "outputs": [],
      "stateMutability": "nonpayable",
      "type": "function"
    },
    {
      "inputs": [],
      "name": "paused",
      "outputs": [
        {
          "internalType": "bool",
          "name": "",
          "type": "bool"
        }
      ],
      "stateMutability": "view",
      "type": "function"
    },
    {
      "inputs": [],
      "name": "pendingOwner",
      "outputs": [
        {
          "internalType": "address",
          "name": "",
          "type": "address"
        }
      ],
      "stateMutability": "view",
      "type": "function"
    },
    {
      "inputs": [],
      "name": "proxyFactory",
      "outputs": [
        {
          "internalType": "contract IMIMOProxyFactory",
          "name": "",
          "type": "address"
        }
      ],
      "stateMutability": "view",
      "type": "function"
    },
    {
      "inputs": [
        {
          "internalType": "contract IERC20",
          "name": "fromCollateral",
          "type": "address"
        },
        {
          "internalType": "uint256",
          "name": "swapAmount",
          "type": "uint256"
        },
        {
          "internalType": "uint256",
          "name": "flashloanRepayAmount",
          "type": "uint256"
        },
        {
          "internalType": "uint256",
          "name": "fee",
          "type": "uint256"
        },
        {
          "components": [
            {
              "internalType": "contract IERC20",
              "name": "toCollateral",
              "type": "address"
            },
            {
              "internalType": "uint256",
              "name": "vaultId",
              "type": "uint256"
            },
            {
              "internalType": "uint256",
              "name": "mintAmount",
              "type": "uint256"
            }
          ],
          "internalType": "struct IMIMORebalance.RebalanceData",
          "name": "rbData",
          "type": "tuple"
        },
        {
          "components": [
            {
              "internalType": "uint256",
              "name": "dexIndex",
              "type": "uint256"
            },
            {
              "internalType": "bytes",
              "name": "dexTxData",
              "type": "bytes"
            }
          ],
          "internalType": "struct IMIMOSwap.SwapData",
          "name": "swapData",
          "type": "tuple"
        }
      ],
      "name": "rebalanceOperation",
      "outputs": [],
      "stateMutability": "nonpayable",
      "type": "function"
    },
    {
      "inputs": [
        {
          "internalType": "address",
          "name": "newOwner",
          "type": "address"
        },
        {
          "internalType": "bool",
          "name": "direct",
          "type": "bool"
        },
        {
          "internalType": "bool",
          "name": "renounce",
          "type": "bool"
        }
      ],
      "name": "transferOwnership",
      "outputs": [],
      "stateMutability": "nonpayable",
      "type": "function"
    },
    {
      "inputs": [],
      "name": "unpause",
      "outputs": [],
      "stateMutability": "nonpayable",
      "type": "function"
    }
  ],
  "transactionHash": "0xe63916ce3ad8b5c91a982b448d4328fc449a1abb35b97074b7fab1ed5b49a977",
  "args": [
    "0xa802eE4bd9f449295ADb6d73f65118352420758A",
    "0x8c4e94E5e3E5676b734c32e5723Fb2063F3fFd89",
    "0x794a61358D6845594F94dc1DB02A252b5b4814aD",
    "0x44e3c7B3994ce6C29a4E64A16ff998DAb5f996a3"
  ],
  "numDeployments": 1,
  "solcInputHash": "f32a31898ee3e7d355d788de2c8f3c93",
  "bytecode": "0x6101206040523480156200001257600080fd5b50604051620020673803806200206783398101604081905262000035916200014b565b600080546001600160a01b0319163390811782556040518692869286929091907f8be0079c531659141344cd1fd0a4f28419497f9722a3daafe3b4186f6b6457e0908290a36001600160a01b038116620000a257604051636a8403ad60e01b815260040160405180910390fd5b6001600160a01b0390811660805282161580620000c657506001600160a01b038116155b15620000e557604051636a8403ad60e01b815260040160405180910390fd5b6001600160a01b0391821660a052811660c05281166200011857604051636a8403ad60e01b815260040160405180910390fd5b6001600160a01b03166101005250503060e05250620001b3565b6001600160a01b03811681146200014857600080fd5b50565b600080600080608085870312156200016257600080fd5b84516200016f8162000132565b6020860151909450620001828162000132565b6040860151909350620001958162000132565b6060860151909250620001a88162000132565b939692955090935050565b60805160a05160c05160e05161010051611e23620002446000396000818161021d015261057a0152600081816104a20152818161085c015261094c01526000818160f401526110bd01526000818161014d015281816109ee01528181610c120152610da50152600081816101e301528181610637015281816106790152818161081d01526110270152611e236000f3fe608060405234801561001057600080fd5b50600436106100ea5760003560e01c80638da5cb5b1161008c578063a59a997311610066578063a59a9973146101de578063b0597c8714610205578063c10f1a7514610218578063e30c39781461023f57600080fd5b80638da5cb5b146101a5578063920f5c84146101b8578063a129568d146101cb57600080fd5b80633f4ba83a116100c85780633f4ba83a1461016f5780634e71e0c8146101775780635c975abb1461017f5780638456cb591461019d57600080fd5b806306e85b37146100ef578063078dfbe7146101335780630dbe671f14610148575b600080fd5b6101167f000000000000000000000000000000000000000000000000000000000000000081565b6040516001600160a01b0390911681526020015b60405180910390f35b6101466101413660046114a3565b610252565b005b6101167f000000000000000000000000000000000000000000000000000000000000000081565b610146610369565b6101466103a2565b600154600160a01b900460ff165b604051901515815260200161012a565b61014661045f565b600054610116906001600160a01b031681565b61018d6101c636600461157a565b61049e565b6101466101d9366004611654565b61085a565b6101167f000000000000000000000000000000000000000000000000000000000000000081565b610146610213366004611695565b61094a565b6101167f000000000000000000000000000000000000000000000000000000000000000081565b600154610116906001600160a01b031681565b6000546001600160a01b031633146102855760405162461bcd60e51b815260040161027c90611723565b60405180910390fd5b8115610348576001600160a01b03831615158061029f5750805b6102e35760405162461bcd60e51b81526020600482015260156024820152744f776e61626c653a207a65726f206164647265737360581b604482015260640161027c565b600080546040516001600160a01b03808716939216917f8be0079c531659141344cd1fd0a4f28419497f9722a3daafe3b4186f6b6457e091a3600080546001600160a01b0385166001600160a01b031991821617909155600180549091169055505050565b600180546001600160a01b0319166001600160a01b0385161790555b505050565b6000546001600160a01b031633146103935760405162461bcd60e51b815260040161027c90611723565b6001805460ff60a01b19169055565b6001546001600160a01b03163381146103fd5760405162461bcd60e51b815260206004820181905260248201527f4f776e61626c653a2063616c6c657220213d2070656e64696e67206f776e6572604482015260640161027c565b600080546040516001600160a01b03808516939216917f8be0079c531659141344cd1fd0a4f28419497f9722a3daafe3b4186f6b6457e091a3600080546001600160a01b039092166001600160a01b0319928316179055600180549091169055565b6000546001600160a01b031633146104895760405162461bcd60e51b815260040161027c90611723565b6001805460ff60a01b1916600160a01b179055565b60007f00000000000000000000000000000000000000000000000000000000000000006001600160a01b0316635c975abb6040518163ffffffff1660e01b8152600401602060405180830381865afa1580156104fe573d6000803e3d6000fd5b505050506040513d601f19601f820116820180604052508101906105229190611758565b1561054057604051632a6ab56360e21b815260040160405180910390fd5b60008080610550858701876118fe565b6040516326558c5d60e21b81526001600160a01b03808516600483015293965091945092506000917f00000000000000000000000000000000000000000000000000000000000000001690639956317490602401602060405180830381865afa1580156105c1573d6000803e3d6000fd5b505050506040513d601f19601f820116820180604052508101906105e5919061195e565b9050806001600160a01b0316886001600160a01b03161461062c57604051637c6b83fd60e01b81526001600160a01b03808a1660048301528216602482015260440161027c565b336001600160a01b037f000000000000000000000000000000000000000000000000000000000000000016146106a657604051631489d26d60e11b81523360048201526001600160a01b037f000000000000000000000000000000000000000000000000000000000000000016602482015260440161027c565b60008e8e60008181106106bb576106bb61197b565b90506020020160208101906106d09190611991565b905060008d8d60008181106106e7576106e761197b565b905060200201359050610727838f8f60008181106107075761070761197b565b90506020020135846001600160a01b0316610e3f9092919063ffffffff16565b60008c8c600081811061073c5761073c61197b565b905060200201358261074e91906119ae565b9050836001600160a01b0316631cff79cd3085858560008c8c60405160240161077c96959493929190611a53565b60408051601f198184030181529181526020820180516001600160e01b031663b0597c8760e01b1790525160e084901b6001600160e01b03191681526107c6929190600401611ab7565b6000604051808303816000875af11580156107e5573d6000803e3d6000fd5b505050506040513d6000823e601f3d908101601f1916820160405261080d9190810190611adb565b506108426001600160a01b0384167f000000000000000000000000000000000000000000000000000000000000000083610ea2565b60019750505050505050509998505050505050505050565b7f00000000000000000000000000000000000000000000000000000000000000006001600160a01b0316635c975abb6040518163ffffffff1660e01b8152600401602060405180830381865afa1580156108b8573d6000803e3d6000fd5b505050506040513d601f19601f820116820180604052508101906108dc9190611758565b156108fa57604051632a6ab56360e21b815260040160405180910390fd5b6000808061090a84860186611b51565b925092509250600033838360405160200161092793929190611bd2565b60405160208183030381529060405290506109428482610f5a565b505050505050565b7f00000000000000000000000000000000000000000000000000000000000000006001600160a01b0316635c975abb6040518163ffffffff1660e01b8152600401602060405180830381865afa1580156109a8573d6000803e3d6000fd5b505050506040513d601f19601f820116820180604052508101906109cc9190611758565b156109ea57604051632a6ab56360e21b815260040160405180910390fd5b60007f00000000000000000000000000000000000000000000000000000000000000006001600160a01b031663f2f4eb266040518163ffffffff1660e01b8152600401602060405180830381865afa158015610a4a573d6000803e3d6000fd5b505050506040513d601f19601f82011682018060405250810190610a6e919061195e565b9050610a7b8787846110a2565b6000610a8a6020850185611991565b6040516370a0823160e01b81523060048201526001600160a01b0391909116906370a0823190602401602060405180830381865afa158015610ad0573d6000803e3d6000fd5b505050506040513d601f19601f82011682018060405250810190610af49190611c1e565b9050610b188282610b086020880188611991565b6001600160a01b03169190610ea2565b6001600160a01b03821663a1789085610b346020870187611991565b83610b438960408a01356119ae565b6040516001600160e01b031960e086901b1681526001600160a01b03909316600484015260248301919091526044820152606401600060405180830381600087803b158015610b9157600080fd5b505af1158015610ba5573d6000803e3d6000fd5b50506040805163d8aed14560e01b8152602088013560048201529087013560248201526001600160a01b038516925063d8aed1459150604401600060405180830381600087803b158015610bf857600080fd5b505af1158015610c0c573d6000803e3d6000fd5b505050507f00000000000000000000000000000000000000000000000000000000000000006001600160a01b03166365d552876040518163ffffffff1660e01b8152600401602060405180830381865afa158015610c6e573d6000803e3d6000fd5b505050506040513d601f19601f82011682018060405250810190610c92919061195e565b60405163828f8def60e01b8152602086013560048201526001600160a01b03919091169063828f8def90602401602060405180830381865afa158015610cdc573d6000803e3d6000fd5b505050506040513d601f19601f82011682018060405250810190610d009190611c1e565b861115610d1f576040516202b12560e51b815260040160405180910390fd5b604051630441a3e760e41b815260208501356004820152602481018790526001600160a01b0383169063441a3e7090604401600060405180830381600087803b158015610d6b57600080fd5b505af1158015610d7f573d6000803e3d6000fd5b50610d98925050506001600160a01b0389163388610e3f565b8415610e3557610e3533867f00000000000000000000000000000000000000000000000000000000000000006001600160a01b03166316d8a5a96040518163ffffffff1660e01b8152600401602060405180830381865afa158015610e01573d6000803e3d6000fd5b505050506040513d601f19601f82011682018060405250810190610e25919061195e565b6001600160a01b03169190610e3f565b5050505050505050565b6040516001600160a01b03831660248201526044810182905261036490849063a9059cbb60e01b906064015b60408051601f198184030181529190526020810180516001600160e01b03166001600160e01b031990931692909217909152611228565b604051636eb1769f60e11b81523060048201526001600160a01b038381166024830152600091839186169063dd62ed3e90604401602060405180830381865afa158015610ef3573d6000803e3d6000fd5b505050506040513d601f19601f82011682018060405250810190610f179190611c1e565b610f2191906119ae565b6040516001600160a01b038516602482015260448101829052909150610f5490859063095ea7b360e01b90606401610e6b565b50505050565b60408051600180825281830190925260009160208083019080368337505060408051600180825281830190925292935060009291506020808301908036833750506040805160018082528183019092529293506000929150602080830190803683370190505090508460000151856040015184600081518110610fdf57610fdf61197b565b6020026020010184600081518110610ff957610ff961197b565b6020908102919091018101929092526001600160a01b03928316905286015160405163ab9c4b5d60e01b81527f00000000000000000000000000000000000000000000000000000000000000009092169163ab9c4b5d916110699187908790879084908c90600090600401611c72565b600060405180830381600087803b15801561108357600080fd5b505af1158015611097573d6000803e3d6000fd5b505050505050505050565b60405163b5f0f1b760e01b81528135600482015260009081907f00000000000000000000000000000000000000000000000000000000000000006001600160a01b03169063b5f0f1b7906024016040805180830381865afa15801561110b573d6000803e3d6000fd5b505050506040513d601f19601f8201168201806040525081019061112f9190611d2e565b90925090506001600160a01b038216158061115157506001600160a01b038116155b1561116f5760405163718d6a1560e01b815260040160405180910390fd5b6111836001600160a01b0386168386610ea2565b6000806001600160a01b03831661119d6020870187611d68565b6040516111ab929190611dae565b6000604051808303816000865af19150503d80600081146111e8576040519150601f19603f3d011682016040523d82523d6000602084013e6111ed565b606091505b50915091508161121f578051156112075780518082602001fd5b604051620ef4b760e61b815260040160405180910390fd5b50505050505050565b600061127d826040518060400160405280602081526020017f5361666545524332303a206c6f772d6c6576656c2063616c6c206661696c6564815250856001600160a01b03166112fa9092919063ffffffff16565b805190915015610364578080602001905181019061129b9190611758565b6103645760405162461bcd60e51b815260206004820152602a60248201527f5361666545524332303a204552433230206f7065726174696f6e20646964206e6044820152691bdd081cdd58d8d9595960b21b606482015260840161027c565b60606113098484600085611313565b90505b9392505050565b6060824710156113745760405162461bcd60e51b815260206004820152602660248201527f416464726573733a20696e73756666696369656e742062616c616e636520666f6044820152651c8818d85b1b60d21b606482015260840161027c565b6001600160a01b0385163b6113cb5760405162461bcd60e51b815260206004820152601d60248201527f416464726573733a2063616c6c20746f206e6f6e2d636f6e7472616374000000604482015260640161027c565b600080866001600160a01b031685876040516113e79190611dbe565b60006040518083038185875af1925050503d8060008114611424576040519150601f19603f3d011682016040523d82523d6000602084013e611429565b606091505b5091509150611439828286611444565b979650505050505050565b6060831561145357508161130c565b8251156114635782518084602001fd5b8160405162461bcd60e51b815260040161027c9190611dda565b6001600160a01b038116811461149257600080fd5b50565b801515811461149257600080fd5b6000806000606084860312156114b857600080fd5b83356114c38161147d565b925060208401356114d381611495565b915060408401356114e381611495565b809150509250925092565b60008083601f84011261150057600080fd5b5081356001600160401b0381111561151757600080fd5b6020830191508360208260051b850101111561153257600080fd5b9250929050565b60008083601f84011261154b57600080fd5b5081356001600160401b0381111561156257600080fd5b60208301915083602082850101111561153257600080fd5b600080600080600080600080600060a08a8c03121561159857600080fd5b89356001600160401b03808211156115af57600080fd5b6115bb8d838e016114ee565b909b50995060208c01359150808211156115d457600080fd5b6115e08d838e016114ee565b909950975060408c01359150808211156115f957600080fd5b6116058d838e016114ee565b909750955060608c0135915061161a8261147d565b90935060808b0135908082111561163057600080fd5b5061163d8c828d01611539565b915080935050809150509295985092959850929598565b6000806020838503121561166757600080fd5b82356001600160401b0381111561167d57600080fd5b61168985828601611539565b90969095509350505050565b6000806000806000808688036101008112156116b057600080fd5b87356116bb8161147d565b965060208801359550604088013594506060808901359450607f19820112156116e357600080fd5b5060808701915060e08701356001600160401b0381111561170357600080fd5b87016040818a03121561171557600080fd5b809150509295509295509295565b6020808252818101527f4f776e61626c653a2063616c6c6572206973206e6f7420746865206f776e6572604082015260600190565b60006020828403121561176a57600080fd5b815161130c81611495565b634e487b7160e01b600052604160045260246000fd5b604051606081016001600160401b03811182821017156117ad576117ad611775565b60405290565b604051601f8201601f191681016001600160401b03811182821017156117db576117db611775565b604052919050565b6000606082840312156117f557600080fd5b6117fd61178b565b9050813561180a8161147d565b80825250602082013560208201526040820135604082015292915050565b60006001600160401b0382111561184157611841611775565b50601f01601f191660200190565b60006040828403121561186157600080fd5b604051604081016001600160401b03828210818311171561188457611884611775565b81604052829350843583526020915081850135818111156118a457600080fd5b85019050601f810186136118b757600080fd5b80356118ca6118c582611828565b6117b3565b81815287848385010111156118de57600080fd5b818484018583013760008483830101528084860152505050505092915050565b600080600060a0848603121561191357600080fd5b833561191e8161147d565b925061192d85602086016117e3565b915060808401356001600160401b0381111561194857600080fd5b6119548682870161184f565b9150509250925092565b60006020828403121561197057600080fd5b815161130c8161147d565b634e487b7160e01b600052603260045260246000fd5b6000602082840312156119a357600080fd5b813561130c8161147d565b600082198211156119cf57634e487b7160e01b600052601160045260246000fd5b500190565b60005b838110156119ef5781810151838201526020016119d7565b83811115610f545750506000910152565b60008151808452611a188160208601602086016119d4565b601f01601f19169290920160200192915050565b805182526000602082015160406020850152611a4b6040850182611a00565b949350505050565b6001600160a01b0387811682526020808301889052604080840188905260ff871660608501528551909216608084015284015160a083015283015160c082015260006101008060e0840152611aaa81840185611a2c565b9998505050505050505050565b6001600160a01b038316815260406020820181905260009061130990830184611a00565b600060208284031215611aed57600080fd5b81516001600160401b03811115611b0357600080fd5b8201601f81018413611b1457600080fd5b8051611b226118c582611828565b818152856020838501011115611b3757600080fd5b611b488260208301602086016119d4565b95945050505050565b600080600083850360e0811215611b6757600080fd5b6060811215611b7557600080fd5b50611b7e61178b565b8435611b898161147d565b81526020850135611b998161147d565b6020820152604085810135908201529250611bb785606086016117e3565b915060c08401356001600160401b0381111561194857600080fd5b6001600160a01b0384168152611c08602082018480516001600160a01b0316825260208082015190830152604090810151910152565b60a060808201526000611b4860a0830184611a2c565b600060208284031215611c3057600080fd5b5051919050565b600081518084526020808501945080840160005b83811015611c6757815187529582019590820190600101611c4b565b509495945050505050565b6001600160a01b03888116825260e0602080840182905289519184018290526000928a820192909190610100860190855b81811015611cc1578551851683529483019491830191600101611ca3565b50508581036040870152611cd5818c611c37565b93505050508281036060840152611cec8188611c37565b6001600160a01b0387166080850152905082810360a0840152611d0f8186611a00565b915050611d2260c083018461ffff169052565b98975050505050505050565b60008060408385031215611d4157600080fd5b8251611d4c8161147d565b6020840151909250611d5d8161147d565b809150509250929050565b6000808335601e19843603018112611d7f57600080fd5b8301803591506001600160401b03821115611d9957600080fd5b60200191503681900382131561153257600080fd5b8183823760009101908152919050565b60008251611dd08184602087016119d4565b9190910192915050565b60208152600061130c6020830184611a0056fea2646970667358221220f6da6ff08097300b4f9bebce974e97549ec4a4405b29fa414a934005d499b8f264736f6c634300080a0033",
  "devdoc": {
    "kind": "dev",
    "methods": {
      "executeAction(bytes)": {
        "details": "Uses an AAVE V3 flashLoan that will call executeOperation",
        "params": {
          "_calldata": "Bytes containing FlashloanData struct, RebalanceData struct, SwapData struct"
        }
      },
      "executeOperation(address[],uint256[],uint256[],address,bytes)": {
        "details": "Integrates with AAVE V3 flashLoans",
        "params": {
          "amounts": "Uint array with one element corresponding to the amount of the rebalanced asset",
          "assets": "Address array with one element corresponding to the address of the reblanced asset",
          "initiator": "Initiator of the flashloan; can only be MIMOProxy owner",
          "params": "Bytes sent by this contract containing MIMOProxy owner, RebalanceData struct and SwapData struct",
          "premiums": "Uint array with one element corresponding to the flashLoan fees"
        },
        "returns": {
          "_0": "True if success and False if failed"
        }
      },
      "rebalanceOperation(address,uint256,uint256,uint256,(address,uint256,uint256),(uint256,bytes))": {
        "params": {
          "fee": "Optional fee to be passed in the context of a ManagedRebalance to mint additional stablex to pay manager",
          "flashloanRepayAmount": "The amount that needs to be repaid for the flashloan",
          "fromCollateral": "The ERC20 token to rebalance from",
          "rbData": "RebalanceData passed from the flashloan call",
          "swapAmount": "The amount of collateral to swap to for par to repay vaultdebt",
          "swapData": "SwapData passed from the flashloan call"
        }
      },
      "transferOwnership(address,bool,bool)": {
        "params": {
          "direct": "True if `newOwner` should be set immediately. False if `newOwner` needs to use `claimOwnership`.",
          "newOwner": "Address of the new owner.",
          "renounce": "Allows the `newOwner` to be `address(0)` if `direct` and `renounce` is True. Has no effect otherwise."
        }
      }
    },
    "version": 1
  },
  "userdoc": {
    "kind": "user",
    "methods": {
      "claimOwnership()": {
        "notice": "Needs to be called by `pendingOwner` to claim ownership."
      },
      "executeAction(bytes)": {
        "notice": "Uses a flashloan to exchange one collateral type for another, e.g. to hold less volatile collateralVault must have been created though a MIMOProxy"
      },
      "executeOperation(address[],uint256[],uint256[],address,bytes)": {
        "notice": "Executes an rebalance operation after taking a flashloan"
      },
      "rebalanceOperation(address,uint256,uint256,uint256,(address,uint256,uint256),(uint256,bytes))": {
        "notice": "Used by executeOperation through MIMOProxy callback to perform rebalance logic within MIMOProxy context"
      },
      "transferOwnership(address,bool,bool)": {
        "notice": "Transfers ownership to `newOwner`. Either directly or claimable by the new pending owner. Can only be invoked by the current `owner`."
      }
    },
    "version": 1
  },
  "storageLayout": {
    "storage": [
      {
        "astId": 9731,
        "contract": "contracts/actions/MIMORebalance.sol:MIMORebalance",
        "label": "owner",
        "offset": 0,
        "slot": "0",
        "type": "t_address"
      },
      {
        "astId": 9733,
        "contract": "contracts/actions/MIMORebalance.sol:MIMORebalance",
        "label": "pendingOwner",
        "offset": 0,
        "slot": "1",
        "type": "t_address"
      },
      {
        "astId": 3065,
        "contract": "contracts/actions/MIMORebalance.sol:MIMORebalance",
        "label": "_paused",
        "offset": 20,
        "slot": "1",
        "type": "t_bool"
      }
    ],
    "types": {
      "t_address": {
        "encoding": "inplace",
        "label": "address",
        "numberOfBytes": "20"
      },
      "t_bool": {
        "encoding": "inplace",
        "label": "bool",
        "numberOfBytes": "1"
      }
    }
  }
}