{
  "address": "0xE84eefb06a5fb49AeA53104A68DeC4Cbb4F5eD9f",
  "abi": [
    {
      "inputs": [
        {
          "internalType": "contract IVaultsCore",
          "name": "_core",
          "type": "address"
        },
        {
          "internalType": "contract IVaultsDataProvider",
          "name": "_vaultsData",
          "type": "address"
        },
        {
          "internalType": "contract IERC20",
          "name": "_stablex",
          "type": "address"
        },
        {
          "internalType": "contract IMIMOProxyFactory",
          "name": "_proxyFactory",
          "type": "address"
        }
      ],
      "stateMutability": "nonpayable",
      "type": "constructor"
    },
    {
      "inputs": [],
      "name": "CANNOT_SET_TO_ADDRESS_ZERO",
      "type": "error"
    },
    {
      "inputs": [],
      "name": "EXECUTION_REVERTED",
      "type": "error"
    },
    {
      "inputs": [],
      "name": "PAUSED",
      "type": "error"
    },
    {
      "anonymous": false,
      "inputs": [
        {
          "indexed": true,
          "internalType": "address",
          "name": "previousOwner",
          "type": "address"
        },
        {
          "indexed": true,
          "internalType": "address",
          "name": "newOwner",
          "type": "address"
        }
      ],
      "name": "OwnershipTransferred",
      "type": "event"
    },
    {
      "inputs": [
        {
          "internalType": "uint256",
          "name": "vaultId",
          "type": "uint256"
        },
        {
          "internalType": "uint256",
          "name": "amount",
          "type": "uint256"
        }
      ],
      "name": "borrow",
      "outputs": [],
      "stateMutability": "nonpayable",
      "type": "function"
    },
    {
      "inputs": [],
      "name": "claimOwnership",
      "outputs": [],
      "stateMutability": "nonpayable",
      "type": "function"
    },
    {
      "inputs": [],
      "name": "contractAddress",
      "outputs": [
        {
          "internalType": "address",
          "name": "",
          "type": "address"
        }
      ],
      "stateMutability": "view",
      "type": "function"
    },
    {
      "inputs": [],
      "name": "core",
      "outputs": [
        {
          "internalType": "contract IVaultsCore",
          "name": "",
          "type": "address"
        }
      ],
      "stateMutability": "view",
      "type": "function"
    },
    {
      "inputs": [
        {
          "internalType": "contract IERC20",
          "name": "collateral",
          "type": "address"
        },
        {
          "internalType": "uint256",
          "name": "amount",
          "type": "uint256"
        }
      ],
      "name": "deposit",
      "outputs": [],
      "stateMutability": "nonpayable",
      "type": "function"
    },
    {
      "inputs": [
        {
          "internalType": "contract IERC20",
          "name": "collateral",
          "type": "address"
        },
        {
          "internalType": "uint256",
          "name": "depositAmount",
          "type": "uint256"
        },
        {
          "internalType": "uint256",
          "name": "borrowAmount",
          "type": "uint256"
        }
      ],
      "name": "depositAndBorrow",
      "outputs": [],
      "stateMutability": "nonpayable",
      "type": "function"
    },
    {
      "inputs": [],
      "name": "depositETH",
      "outputs": [],
      "stateMutability": "payable",
      "type": "function"
    },
    {
      "inputs": [
        {
          "internalType": "uint256",
          "name": "borrowAmount",
          "type": "uint256"
        }
      ],
      "name": "depositETHAndBorrow",
      "outputs": [],
      "stateMutability": "payable",
      "type": "function"
    },
    {
      "inputs": [],
      "name": "owner",
      "outputs": [
        {
          "internalType": "address",
          "name": "",
          "type": "address"
        }
      ],
      "stateMutability": "view",
      "type": "function"
    },
    {
      "inputs": [],
      "name": "pause",
      "outputs": [],
      "stateMutability": "nonpayable",
      "type": "function"
    },
    {
      "inputs": [],
      "name": "paused",
      "outputs": [
        {
          "internalType": "bool",
          "name": "",
          "type": "bool"
        }
      ],
      "stateMutability": "view",
      "type": "function"
    },
    {
      "inputs": [],
      "name": "pendingOwner",
      "outputs": [
        {
          "internalType": "address",
          "name": "",
          "type": "address"
        }
      ],
      "stateMutability": "view",
      "type": "function"
    },
    {
      "inputs": [],
      "name": "proxyFactory",
      "outputs": [
        {
          "internalType": "contract IMIMOProxyFactory",
          "name": "",
          "type": "address"
        }
      ],
      "stateMutability": "view",
      "type": "function"
    },
    {
      "inputs": [],
      "name": "stablex",
      "outputs": [
        {
          "internalType": "contract IERC20",
          "name": "",
          "type": "address"
        }
      ],
      "stateMutability": "view",
      "type": "function"
    },
    {
      "inputs": [
        {
          "internalType": "address",
          "name": "newOwner",
          "type": "address"
        },
        {
          "internalType": "bool",
          "name": "direct",
          "type": "bool"
        },
        {
          "internalType": "bool",
          "name": "renounce",
          "type": "bool"
        }
      ],
      "name": "transferOwnership",
      "outputs": [],
      "stateMutability": "nonpayable",
      "type": "function"
    },
    {
      "inputs": [],
      "name": "unpause",
      "outputs": [],
      "stateMutability": "nonpayable",
      "type": "function"
    },
    {
      "inputs": [],
      "name": "vaultsData",
      "outputs": [
        {
          "internalType": "contract IVaultsDataProvider",
          "name": "",
          "type": "address"
        }
      ],
      "stateMutability": "view",
      "type": "function"
    },
    {
      "inputs": [
        {
          "internalType": "uint256",
          "name": "vaultId",
          "type": "uint256"
        },
        {
          "internalType": "uint256",
          "name": "amount",
          "type": "uint256"
        }
      ],
      "name": "withdraw",
      "outputs": [],
      "stateMutability": "nonpayable",
      "type": "function"
    },
    {
      "inputs": [
        {
          "internalType": "uint256",
          "name": "vaultId",
          "type": "uint256"
        },
        {
          "internalType": "uint256",
          "name": "amount",
          "type": "uint256"
        }
      ],
      "name": "withdrawETH",
      "outputs": [],
      "stateMutability": "nonpayable",
      "type": "function"
    }
  ],
  "transactionHash": "0x9376418083f163698ab9a87e8dddf4feebbb89c55fcc92920b5f24b11e3f8f5b",
  "args": [
    "0x03175c19CB1d30Fa6060331A9ec181e04CAC6aB0",
    "0xDe1996189EE1857d79f1F2bebe2A4a2B200bCb44",
    "0xE2Aa7db6dA1dAE97C5f5C6914d285fBfCC32A128",
    "0x44e3c7B3994ce6C29a4E64A16ff998DAb5f996a3"
  ],
  "numDeployments": 2,
  "solcInputHash": "ec9355dab2370e38f7b8dfd09e7fcbd5",
  "bytecode": "0x6101206040523480156200001257600080fd5b5060405162001b5f38038062001b5f833981016040819052620000359162000118565b600080546001600160a01b0319163390811782556040519091907f8be0079c531659141344cd1fd0a4f28419497f9722a3daafe3b4186f6b6457e0908290a36001600160a01b03841615806200009257506001600160a01b038316155b80620000a557506001600160a01b038216155b80620000b857506001600160a01b038116155b15620000d757604051636a8403ad60e01b815260040160405180910390fd5b6001600160a01b0393841660a05291831660c052821660e05216610100523060805262000180565b6001600160a01b03811681146200011557600080fd5b50565b600080600080608085870312156200012f57600080fd5b84516200013c81620000ff565b60208601519094506200014f81620000ff565b60408601519093506200016281620000ff565b60608601519092506200017581620000ff565b939692955090935050565b60805160a05160c05160e051610100516118f962000266600039600081816102ee015281816106100152818161082d01528181610c9c01528181610e82015261107101526000818161016d015281816106900152610f0101526000818161026501526108ba01526000818161036201528181610594015281816107b101528181610a0101528181610a4c01528181610c1f01528181610db901528181610feb015261120101526000818161039e015281816104d9015281816106f60152818161093f01528181610b6b01528181610d1901528181610f30015261116101526118f96000f3fe6080604052600436106101145760003560e01c806365d55287116100a0578063c7cdea3711610064578063c7cdea3714610310578063e30c397814610330578063f2f4eb2614610350578063f6326fb314610384578063f6b4dfb41461038c57600080fd5b806365d55287146102535780638456cb59146102875780638da5cb5b1461029c578063a1789085146102bc578063c10f1a75146102dc57600080fd5b8063441a3e70116100e7578063441a3e70146101c157806347e7ef24146101e15780634e71e0c81461020157806357f256e3146102165780635c975abb1461022957600080fd5b8063078dfbe7146101195780630ecbcdab1461013b57806316d8a5a91461015b5780633f4ba83a146101ac575b600080fd5b34801561012557600080fd5b5061013961013436600461163a565b6103c0565b005b34801561014757600080fd5b50610139610156366004611685565b6104d7565b34801561016757600080fd5b5061018f7f000000000000000000000000000000000000000000000000000000000000000081565b6040516001600160a01b0390911681526020015b60405180910390f35b3480156101b857600080fd5b506101396106bb565b3480156101cd57600080fd5b506101396101dc366004611685565b6106f4565b3480156101ed57600080fd5b506101396101fc3660046116a7565b61093d565b34801561020d57600080fd5b50610139610aac565b6101396102243660046116d3565b610b69565b34801561023557600080fd5b50600154600160a01b900460ff1660405190151581526020016101a3565b34801561025f57600080fd5b5061018f7f000000000000000000000000000000000000000000000000000000000000000081565b34801561029357600080fd5b50610139610cd8565b3480156102a857600080fd5b5060005461018f906001600160a01b031681565b3480156102c857600080fd5b506101396102d73660046116ec565b610d17565b3480156102e857600080fd5b5061018f7f000000000000000000000000000000000000000000000000000000000000000081565b34801561031c57600080fd5b5061013961032b366004611685565b610f2e565b34801561033c57600080fd5b5060015461018f906001600160a01b031681565b34801561035c57600080fd5b5061018f7f000000000000000000000000000000000000000000000000000000000000000081565b61013961115f565b34801561039857600080fd5b5061018f7f000000000000000000000000000000000000000000000000000000000000000081565b6000546001600160a01b031633146103f35760405162461bcd60e51b81526004016103ea90611721565b60405180910390fd5b81156104b6576001600160a01b03831615158061040d5750805b6104515760405162461bcd60e51b81526020600482015260156024820152744f776e61626c653a207a65726f206164647265737360581b60448201526064016103ea565b600080546040516001600160a01b03808716939216917f8be0079c531659141344cd1fd0a4f28419497f9722a3daafe3b4186f6b6457e091a3600080546001600160a01b0385166001600160a01b031991821617909155600180549091169055505050565b600180546001600160a01b0319166001600160a01b0385161790555b505050565b7f00000000000000000000000000000000000000000000000000000000000000006001600160a01b0316635c975abb6040518163ffffffff1660e01b8152600401602060405180830381865afa158015610535573d6000803e3d6000fd5b505050506040513d601f19601f820116820180604052508101906105599190611756565b1561057757604051632a6ab56360e21b815260040160405180910390fd5b604051630ecbcdab60e01b815260048101839052602481018290527f00000000000000000000000000000000000000000000000000000000000000006001600160a01b031690630ecbcdab90604401600060405180830381600087803b1580156105e057600080fd5b505af11580156105f4573d6000803e3d6000fd5b505060405163751913f760e11b81523060048201526106b792507f00000000000000000000000000000000000000000000000000000000000000006001600160a01b0316915063ea3227ee906024015b606060405180830381865afa158015610661573d6000803e3d6000fd5b505050506040513d601f19601f820116820180604052508101906106859190611773565b516001600160a01b037f0000000000000000000000000000000000000000000000000000000000000000169083611275565b5050565b6000546001600160a01b031633146106e55760405162461bcd60e51b81526004016103ea90611721565b6001805460ff60a01b19169055565b7f00000000000000000000000000000000000000000000000000000000000000006001600160a01b0316635c975abb6040518163ffffffff1660e01b8152600401602060405180830381865afa158015610752573d6000803e3d6000fd5b505050506040513d601f19601f820116820180604052508101906107769190611756565b1561079457604051632a6ab56360e21b815260040160405180910390fd5b604051630441a3e760e41b815260048101839052602481018290527f00000000000000000000000000000000000000000000000000000000000000006001600160a01b03169063441a3e7090604401600060405180830381600087803b1580156107fd57600080fd5b505af1158015610811573d6000803e3d6000fd5b505060405163751913f760e11b81523060048201526106b792507f00000000000000000000000000000000000000000000000000000000000000006001600160a01b0316915063ea3227ee90602401606060405180830381865afa15801561087d573d6000803e3d6000fd5b505050506040513d601f19601f820116820180604052508101906108a19190611773565b5160405163b508bc5960e01b81526004810185905283907f00000000000000000000000000000000000000000000000000000000000000006001600160a01b03169063b508bc5990602401602060405180830381865afa158015610909573d6000803e3d6000fd5b505050506040513d601f19601f8201168201806040525081019061092d91906117ec565b6001600160a01b03169190611275565b7f00000000000000000000000000000000000000000000000000000000000000006001600160a01b0316635c975abb6040518163ffffffff1660e01b8152600401602060405180830381865afa15801561099b573d6000803e3d6000fd5b505050506040513d601f19601f820116820180604052508101906109bf9190611756565b156109dd57604051632a6ab56360e21b815260040160405180910390fd5b6109f26001600160a01b0383163330846112d8565b610a266001600160a01b0383167f000000000000000000000000000000000000000000000000000000000000000083611310565b6040516311f9fbc960e21b81526001600160a01b038381166004830152602482018390527f000000000000000000000000000000000000000000000000000000000000000016906347e7ef2490604401600060405180830381600087803b158015610a9057600080fd5b505af1158015610aa4573d6000803e3d6000fd5b505050505050565b6001546001600160a01b0316338114610b075760405162461bcd60e51b815260206004820181905260248201527f4f776e61626c653a2063616c6c657220213d2070656e64696e67206f776e657260448201526064016103ea565b600080546040516001600160a01b03808516939216917f8be0079c531659141344cd1fd0a4f28419497f9722a3daafe3b4186f6b6457e091a3600080546001600160a01b039092166001600160a01b0319928316179055600180549091169055565b7f00000000000000000000000000000000000000000000000000000000000000006001600160a01b0316635c975abb6040518163ffffffff1660e01b8152600401602060405180830381865afa158015610bc7573d6000803e3d6000fd5b505050506040513d601f19601f82011682018060405250810190610beb9190611756565b15610c0957604051632a6ab56360e21b815260040160405180910390fd5b6040516357f256e360e01b8152600481018290527f00000000000000000000000000000000000000000000000000000000000000006001600160a01b0316906357f256e39034906024016000604051808303818588803b158015610c6c57600080fd5b505af1158015610c80573d6000803e3d6000fd5b505060405163751913f760e11b8152306004820152610cd593507f00000000000000000000000000000000000000000000000000000000000000006001600160a01b0316925063ea3227ee9150602401610644565b50565b6000546001600160a01b03163314610d025760405162461bcd60e51b81526004016103ea90611721565b6001805460ff60a01b1916600160a01b179055565b7f00000000000000000000000000000000000000000000000000000000000000006001600160a01b0316635c975abb6040518163ffffffff1660e01b8152600401602060405180830381865afa158015610d75573d6000803e3d6000fd5b505050506040513d601f19601f82011682018060405250810190610d999190611756565b15610db757604051632a6ab56360e21b815260040160405180910390fd5b7f0000000000000000000000000000000000000000000000000000000000000000610ded6001600160a01b0385163330866112d8565b610e016001600160a01b0385168285611310565b60405163a178908560e01b81526001600160a01b038581166004830152602482018590526044820184905282169063a178908590606401600060405180830381600087803b158015610e5257600080fd5b505af1158015610e66573d6000803e3d6000fd5b505060405163751913f760e11b8152306004820152610f2892507f00000000000000000000000000000000000000000000000000000000000000006001600160a01b0316915063ea3227ee90602401606060405180830381865afa158015610ed2573d6000803e3d6000fd5b505050506040513d601f19601f82011682018060405250810190610ef69190611773565b516001600160a01b037f0000000000000000000000000000000000000000000000000000000000000000169084611275565b50505050565b7f00000000000000000000000000000000000000000000000000000000000000006001600160a01b0316635c975abb6040518163ffffffff1660e01b8152600401602060405180830381865afa158015610f8c573d6000803e3d6000fd5b505050506040513d601f19601f82011682018060405250810190610fb09190611756565b15610fce57604051632a6ab56360e21b815260040160405180910390fd5b60405163c7cdea3760e01b815260048101839052602481018290527f00000000000000000000000000000000000000000000000000000000000000006001600160a01b03169063c7cdea3790604401600060405180830381600087803b15801561103757600080fd5b505af115801561104b573d6000803e3d6000fd5b505060405163751913f760e11b8152306004820152600092508291506001600160a01b037f0000000000000000000000000000000000000000000000000000000000000000169063ea3227ee90602401606060405180830381865afa1580156110b8573d6000803e3d6000fd5b505050506040513d601f19601f820116820180604052508101906110dc9190611773565b516040516001600160a01b03909116908490600081818185875af1925050503d8060008114611127576040519150601f19603f3d011682016040523d82523d6000602084013e61112c565b606091505b509150915081610f28578051156111465780518082602001fd5b6040516386bda99560e01b815260040160405180910390fd5b7f00000000000000000000000000000000000000000000000000000000000000006001600160a01b0316635c975abb6040518163ffffffff1660e01b8152600401602060405180830381865afa1580156111bd573d6000803e3d6000fd5b505050506040513d601f19601f820116820180604052508101906111e19190611756565b156111ff57604051632a6ab56360e21b815260040160405180910390fd5b7f00000000000000000000000000000000000000000000000000000000000000006001600160a01b031663f6326fb3346040518263ffffffff1660e01b81526004016000604051808303818588803b15801561125a57600080fd5b505af115801561126e573d6000803e3d6000fd5b5050505050565b6040516001600160a01b0383166024820152604481018290526104d290849063a9059cbb60e01b906064015b60408051601f198184030181529190526020810180516001600160e01b03166001600160e01b0319909316929092179091526113c2565b6040516001600160a01b0380851660248301528316604482015260648101829052610f289085906323b872dd60e01b906084016112a1565b604051636eb1769f60e11b81523060048201526001600160a01b038381166024830152600091839186169063dd62ed3e90604401602060405180830381865afa158015611361573d6000803e3d6000fd5b505050506040513d601f19601f820116820180604052508101906113859190611809565b61138f9190611822565b6040516001600160a01b038516602482015260448101829052909150610f2890859063095ea7b360e01b906064016112a1565b6000611417826040518060400160405280602081526020017f5361666545524332303a206c6f772d6c6576656c2063616c6c206661696c6564815250856001600160a01b03166114949092919063ffffffff16565b8051909150156104d257808060200190518101906114359190611756565b6104d25760405162461bcd60e51b815260206004820152602a60248201527f5361666545524332303a204552433230206f7065726174696f6e20646964206e6044820152691bdd081cdd58d8d9595960b21b60648201526084016103ea565b60606114a384846000856114ad565b90505b9392505050565b60608247101561150e5760405162461bcd60e51b815260206004820152602660248201527f416464726573733a20696e73756666696369656e742062616c616e636520666f6044820152651c8818d85b1b60d21b60648201526084016103ea565b6001600160a01b0385163b6115655760405162461bcd60e51b815260206004820152601d60248201527f416464726573733a2063616c6c20746f206e6f6e2d636f6e747261637400000060448201526064016103ea565b600080866001600160a01b031685876040516115819190611874565b60006040518083038185875af1925050503d80600081146115be576040519150601f19603f3d011682016040523d82523d6000602084013e6115c3565b606091505b50915091506115d38282866115de565b979650505050505050565b606083156115ed5750816114a6565b8251156115fd5782518084602001fd5b8160405162461bcd60e51b81526004016103ea9190611890565b6001600160a01b0381168114610cd557600080fd5b8015158114610cd557600080fd5b60008060006060848603121561164f57600080fd5b833561165a81611617565b9250602084013561166a8161162c565b9150604084013561167a8161162c565b809150509250925092565b6000806040838503121561169857600080fd5b50508035926020909101359150565b600080604083850312156116ba57600080fd5b82356116c581611617565b946020939093013593505050565b6000602082840312156116e557600080fd5b5035919050565b60008060006060848603121561170157600080fd5b833561170c81611617565b95602085013595506040909401359392505050565b6020808252818101527f4f776e61626c653a2063616c6c6572206973206e6f7420746865206f776e6572604082015260600190565b60006020828403121561176857600080fd5b81516114a68161162c565b60006060828403121561178557600080fd5b6040516060810181811067ffffffffffffffff821117156117b657634e487b7160e01b600052604160045260246000fd5b60405282516117c481611617565b815260208301516117d481611617565b60208201526040928301519281019290925250919050565b6000602082840312156117fe57600080fd5b81516114a681611617565b60006020828403121561181b57600080fd5b5051919050565b6000821982111561184357634e487b7160e01b600052601160045260246000fd5b500190565b60005b8381101561186357818101518382015260200161184b565b83811115610f285750506000910152565b60008251611886818460208701611848565b9190910192915050565b60208152600082518060208401526118af816040850160208701611848565b601f01601f1916919091016040019291505056fea264697066735822122010b8a873ff54dc0b68dbb8de2c36898e9016a312c73e0e2342677b8e431f705364736f6c634300080a0033",
  "devdoc": {
    "kind": "dev",
    "methods": {
      "transferOwnership(address,bool,bool)": {
        "params": {
          "direct": "True if `newOwner` should be set immediately. False if `newOwner` needs to use `claimOwnership`.",
          "newOwner": "Address of the new owner.",
          "renounce": "Allows the `newOwner` to be `address(0)` if `direct` and `renounce` is True. Has no effect otherwise."
        }
      }
    },
    "version": 1
  },
  "userdoc": {
    "kind": "user",
    "methods": {
      "claimOwnership()": {
        "notice": "Needs to be called by `pendingOwner` to claim ownership."
      },
      "transferOwnership(address,bool,bool)": {
        "notice": "Transfers ownership to `newOwner`. Either directly or claimable by the new pending owner. Can only be invoked by the current `owner`."
      }
    },
    "version": 1
  },
  "storageLayout": {
    "storage": [
      {
        "astId": 9855,
        "contract": "contracts/actions/MIMOVaultActions.sol:MIMOVaultActions",
        "label": "owner",
        "offset": 0,
        "slot": "0",
        "type": "t_address"
      },
      {
        "astId": 9857,
        "contract": "contracts/actions/MIMOVaultActions.sol:MIMOVaultActions",
        "label": "pendingOwner",
        "offset": 0,
        "slot": "1",
        "type": "t_address"
      },
      {
        "astId": 3065,
        "contract": "contracts/actions/MIMOVaultActions.sol:MIMOVaultActions",
        "label": "_paused",
        "offset": 20,
        "slot": "1",
        "type": "t_bool"
      }
    ],
    "types": {
      "t_address": {
        "encoding": "inplace",
        "label": "address",
        "numberOfBytes": "20"
      },
      "t_bool": {
        "encoding": "inplace",
        "label": "bool",
        "numberOfBytes": "1"
      }
    }
  }
}