{
  "address": "0x2BaD16A8fc3BB58733D3742D84226FBDe200C27e",
  "abi": [
    {
      "inputs": [],
      "name": "CANNOT_SET_TO_ADDRESS_ZERO",
      "type": "error"
    },
    {
      "inputs": [],
      "name": "UNAUTHORIZED_CALLER",
      "type": "error"
    },
    {
      "anonymous": false,
      "inputs": [
        {
          "indexed": false,
          "internalType": "uint8",
          "name": "version",
          "type": "uint8"
        }
      ],
      "name": "Initialized",
      "type": "event"
    },
    {
      "anonymous": false,
      "inputs": [
        {
          "indexed": true,
          "internalType": "address",
          "name": "envoy",
          "type": "address"
        },
        {
          "indexed": true,
          "internalType": "address",
          "name": "target",
          "type": "address"
        },
        {
          "indexed": false,
          "internalType": "bytes4",
          "name": "selector",
          "type": "bytes4"
        },
        {
          "indexed": false,
          "internalType": "bool",
          "name": "permission",
          "type": "bool"
        }
      ],
      "name": "PermissionSet",
      "type": "event"
    },
    {
      "inputs": [
        {
          "internalType": "address",
          "name": "envoy",
          "type": "address"
        },
        {
          "internalType": "address",
          "name": "target",
          "type": "address"
        },
        {
          "internalType": "bytes4",
          "name": "selector",
          "type": "bytes4"
        }
      ],
      "name": "getPermission",
      "outputs": [
        {
          "internalType": "bool",
          "name": "permission",
          "type": "bool"
        }
      ],
      "stateMutability": "view",
      "type": "function"
    },
    {
      "inputs": [],
      "name": "getProxy",
      "outputs": [
        {
          "internalType": "address",
          "name": "proxy",
          "type": "address"
        }
      ],
      "stateMutability": "view",
      "type": "function"
    },
    {
      "inputs": [],
      "name": "getProxyFactory",
      "outputs": [
        {
          "internalType": "contract IMIMOProxyFactory",
          "name": "proxyFactory",
          "type": "address"
        }
      ],
      "stateMutability": "view",
      "type": "function"
    },
    {
      "inputs": [
        {
          "internalType": "address",
          "name": "proxyFactory",
          "type": "address"
        },
        {
          "internalType": "address",
          "name": "proxy",
          "type": "address"
        }
      ],
      "name": "initialize",
      "outputs": [],
      "stateMutability": "nonpayable",
      "type": "function"
    },
    {
      "inputs": [
        {
          "internalType": "address",
          "name": "envoy",
          "type": "address"
        },
        {
          "internalType": "address",
          "name": "target",
          "type": "address"
        },
        {
          "internalType": "bytes4",
          "name": "selector",
          "type": "bytes4"
        },
        {
          "internalType": "bool",
          "name": "permission",
          "type": "bool"
        }
      ],
      "name": "setPermission",
      "outputs": [],
      "stateMutability": "nonpayable",
      "type": "function"
    }
  ],
  "transactionHash": "0x96f1bf75664af82c87ae7fb27adb93dbc18325c4aea60f6a115d8a10aa83edf9",
  "args": [],
  "numDeployments": 1,
  "solcInputHash": "f32a31898ee3e7d355d788de2c8f3c93",
  "bytecode": "0x608060405234801561001057600080fd5b506105fd806100206000396000f3fe608060405234801561001057600080fd5b50600436106100575760003560e01c8063485cc9551461005c578063933a9ce814610071578063b28c51c0146100a1578063da8d882c146100b2578063e64624fa14610110575b600080fd5b61006f61006a366004610409565b610123565b005b6000546201000090046001600160a01b03165b6040516001600160a01b0390911681526020015b60405180910390f35b6001546001600160a01b0316610084565b6101006100c036600461045a565b6001600160a01b0392831660009081526002602090815260408083209490951682529283528381206001600160e01b031990921681529152205460ff1690565b6040519015158152602001610098565b61006f61011e3660046104a1565b61020e565b600061012f600161035b565b90508015610147576000805461ff0019166101001790555b6001600160a01b038316158061016457506001600160a01b038216155b1561018257604051636a8403ad60e01b815260040160405180910390fd5b600180546001600160a01b0319166001600160a01b03858116919091179091556000805462010000600160b01b03191662010000928516929092029190911790558015610209576000805461ff0019169055604051600181527f7f26b83ff96e1f2b6a682f133852f6798a09c465da95921460cefb38474024989060200160405180910390a15b505050565b6001546000805460405163751913f760e11b81526001600160a01b0362010000909204821660048201529192169063ea3227ee90602401606060405180830381865afa158015610262573d6000803e3d6000fd5b505050506040513d601f19601f820116820180604052508101906102869190610500565b5190506001600160a01b03811633148015906102b357506000546201000090046001600160a01b03163314155b156102d15760405163e15e56c960e01b815260040160405180910390fd5b6001600160a01b0385811660008181526002602090815260408083209489168084529482528083206001600160e01b0319891680855290835292819020805460ff19168815159081179091558151938452918301919091527f9d950e4919d7c91068179be3cd6a99029ee6fdfcf4fb488053aa79841b517e03910160405180910390a35050505050565b60008054610100900460ff16156103ab578160ff16600114801561037e5750303b155b6103a35760405162461bcd60e51b815260040161039a90610579565b60405180910390fd5b506000919050565b60005460ff8084169116106103d25760405162461bcd60e51b815260040161039a90610579565b506000805460ff191660ff92909216919091179055600190565b919050565b6001600160a01b038116811461040657600080fd5b50565b6000806040838503121561041c57600080fd5b8235610427816103f1565b91506020830135610437816103f1565b809150509250929050565b80356001600160e01b0319811681146103ec57600080fd5b60008060006060848603121561046f57600080fd5b833561047a816103f1565b9250602084013561048a816103f1565b915061049860408501610442565b90509250925092565b600080600080608085870312156104b757600080fd5b84356104c2816103f1565b935060208501356104d2816103f1565b92506104e060408601610442565b9150606085013580151581146104f557600080fd5b939692955090935050565b60006060828403121561051257600080fd5b6040516060810181811067ffffffffffffffff8211171561054357634e487b7160e01b600052604160045260246000fd5b6040528251610551816103f1565b81526020830151610561816103f1565b60208201526040928301519281019290925250919050565b6020808252602e908201527f496e697469616c697a61626c653a20636f6e747261637420697320616c72656160408201526d191e481a5b9a5d1a585b1a5e995960921b60608201526080019056fea2646970667358221220f9d58ccd7d041c67ed3f24ee11005a33fb2dd27516048507aa20f355049270e364736f6c634300080a0033",
  "devdoc": {
    "kind": "dev",
    "methods": {
      "getPermission(address,address,bytes4)": {
        "params": {
          "envoy": "The address of the envoy account",
          "selector": "The 4 byte function selector on the target contract",
          "target": "The address of the target contract"
        },
        "returns": {
          "permission": "True if envoys is allowed to perform the call and false if not"
        }
      },
      "getProxy()": {
        "returns": {
          "proxy": "Address of the MIMOProxy associated with this contract"
        }
      },
      "getProxyFactory()": {
        "returns": {
          "proxyFactory": "Address of the MIMOProxyFactory"
        }
      },
      "initialize(address,address)": {
        "details": "Called within same tx as cloning from MIMOProxyFactory",
        "params": {
          "proxy": "Address of the MIMOProxy linked to the contract",
          "proxyFactory": "Address of MIMOProxyFactory"
        }
      },
      "setPermission(address,address,bytes4,bool)": {
        "details": "It is not an error to reset a permission on the same (envoy,target,selector) tuple multiple types. Requirements: - The caller must be the owner or the MIMOProxy",
        "params": {
          "envoy": "The address of the envoy account",
          "permission": "The boolean permission to set",
          "selector": "The 4 byte function selector on the target contract",
          "target": "The address of the target contract"
        }
      }
    },
    "version": 1
  },
  "userdoc": {
    "kind": "user",
    "methods": {
      "initialize(address,address)": {
        "notice": "Initializer function to set state variable upon cloning"
      },
      "setPermission(address,address,bytes4,bool)": {
        "notice": "Gives or takes a permission from an envoy to call the given target contract and function selector on behalf of the owner"
      }
    },
    "version": 1
  },
  "storageLayout": {
    "storage": [
      {
        "astId": 1276,
        "contract": "contracts/proxy/MIMOProxyGuard.sol:MIMOProxyGuard",
        "label": "_initialized",
        "offset": 0,
        "slot": "0",
        "type": "t_uint8"
      },
      {
        "astId": 1279,
        "contract": "contracts/proxy/MIMOProxyGuard.sol:MIMOProxyGuard",
        "label": "_initializing",
        "offset": 1,
        "slot": "0",
        "type": "t_bool"
      },
      {
        "astId": 10809,
        "contract": "contracts/proxy/MIMOProxyGuard.sol:MIMOProxyGuard",
        "label": "_proxy",
        "offset": 2,
        "slot": "0",
        "type": "t_address"
      },
      {
        "astId": 10812,
        "contract": "contracts/proxy/MIMOProxyGuard.sol:MIMOProxyGuard",
        "label": "_proxyFactory",
        "offset": 0,
        "slot": "1",
        "type": "t_contract(IMIMOProxyFactory)11113"
      },
      {
        "astId": 10820,
        "contract": "contracts/proxy/MIMOProxyGuard.sol:MIMOProxyGuard",
        "label": "_permissions",
        "offset": 0,
        "slot": "2",
        "type": "t_mapping(t_address,t_mapping(t_address,t_mapping(t_bytes4,t_bool)))"
      }
    ],
    "types": {
      "t_address": {
        "encoding": "inplace",
        "label": "address",
        "numberOfBytes": "20"
      },
      "t_bool": {
        "encoding": "inplace",
        "label": "bool",
        "numberOfBytes": "1"
      },
      "t_bytes4": {
        "encoding": "inplace",
        "label": "bytes4",
        "numberOfBytes": "4"
      },
      "t_contract(IMIMOProxyFactory)11113": {
        "encoding": "inplace",
        "label": "contract IMIMOProxyFactory",
        "numberOfBytes": "20"
      },
      "t_mapping(t_address,t_mapping(t_address,t_mapping(t_bytes4,t_bool)))": {
        "encoding": "mapping",
        "key": "t_address",
        "label": "mapping(address => mapping(address => mapping(bytes4 => bool)))",
        "numberOfBytes": "32",
        "value": "t_mapping(t_address,t_mapping(t_bytes4,t_bool))"
      },
      "t_mapping(t_address,t_mapping(t_bytes4,t_bool))": {
        "encoding": "mapping",
        "key": "t_address",
        "label": "mapping(address => mapping(bytes4 => bool))",
        "numberOfBytes": "32",
        "value": "t_mapping(t_bytes4,t_bool)"
      },
      "t_mapping(t_bytes4,t_bool)": {
        "encoding": "mapping",
        "key": "t_bytes4",
        "label": "mapping(bytes4 => bool)",
        "numberOfBytes": "32",
        "value": "t_bool"
      },
      "t_uint8": {
        "encoding": "inplace",
        "label": "uint8",
        "numberOfBytes": "1"
      }
    }
  }
}