{
  "address": "0xD332f53FCA56722F209379EEda6bc488BB29BfB5",
  "abi": [
    {
      "inputs": [
        {
          "internalType": "contract IAddressProvider",
          "name": "_a",
          "type": "address"
        },
        {
          "internalType": "contract IPool",
          "name": "_lendingPool",
          "type": "address"
        },
        {
          "internalType": "contract IMIMOProxyFactory",
          "name": "_proxyFactory",
          "type": "address"
        },
        {
          "internalType": "address",
          "name": "_mimoRebalance",
          "type": "address"
        }
      ],
      "stateMutability": "nonpayable",
      "type": "constructor"
    },
    {
      "inputs": [
        {
          "internalType": "address",
          "name": "actual",
          "type": "address"
        },
        {
          "internalType": "address",
          "name": "expected",
          "type": "address"
        }
      ],
      "name": "CALLER_NOT_LENDING_POOL",
      "type": "error"
    },
    {
      "inputs": [],
      "name": "CALLER_NOT_PROTOCOL_MANAGER",
      "type": "error"
    },
    {
      "inputs": [],
      "name": "CALLER_NOT_SELECTED_MANAGER",
      "type": "error"
    },
    {
      "inputs": [
        {
          "internalType": "address",
          "name": "callerProxy",
          "type": "address"
        },
        {
          "internalType": "address",
          "name": "vaultOwner",
          "type": "address"
        }
      ],
      "name": "CALLER_NOT_VAULT_OWNER",
      "type": "error"
    },
    {
      "inputs": [],
      "name": "CANNOT_SET_TO_ADDRESS_ZERO",
      "type": "error"
    },
    {
      "inputs": [
        {
          "internalType": "uint256",
          "name": "minRatio",
          "type": "uint256"
        },
        {
          "internalType": "uint256",
          "name": "actualRatio",
          "type": "uint256"
        }
      ],
      "name": "FINAL_VAULT_RATIO_TOO_LOW",
      "type": "error"
    },
    {
      "inputs": [
        {
          "internalType": "address",
          "name": "actual",
          "type": "address"
        },
        {
          "internalType": "address",
          "name": "expected",
          "type": "address"
        }
      ],
      "name": "INITIATOR_NOT_AUTHORIZED",
      "type": "error"
    },
    {
      "inputs": [],
      "name": "MANAGER_NOT_LISTED",
      "type": "error"
    },
    {
      "inputs": [],
      "name": "MAX_OPERATIONS_REACHED",
      "type": "error"
    },
    {
      "inputs": [],
      "name": "MINT_AMOUNT_GREATER_THAN_VAULT_DEBT",
      "type": "error"
    },
    {
      "inputs": [],
      "name": "PAUSED",
      "type": "error"
    },
    {
      "inputs": [],
      "name": "REBALANCE_AMOUNT_CANNOT_BE_ZERO",
      "type": "error"
    },
    {
      "inputs": [],
      "name": "VAULT_NOT_UNDER_MANAGEMENT",
      "type": "error"
    },
    {
      "inputs": [],
      "name": "VAULT_VALUE_CHANGE_TOO_HIGH",
      "type": "error"
    },
    {
      "anonymous": false,
      "inputs": [
        {
          "indexed": true,
          "internalType": "uint256",
          "name": "vaultId",
          "type": "uint256"
        },
        {
          "components": [
            {
              "internalType": "bool",
              "name": "isManaged",
              "type": "bool"
            },
            {
              "internalType": "address",
              "name": "manager",
              "type": "address"
            },
            {
              "internalType": "uint256",
              "name": "allowedVariation",
              "type": "uint256"
            },
            {
              "internalType": "uint256",
              "name": "minRatio",
              "type": "uint256"
            },
            {
              "internalType": "uint256",
              "name": "fixedFee",
              "type": "uint256"
            },
            {
              "internalType": "uint256",
              "name": "varFee",
              "type": "uint256"
            },
            {
              "internalType": "uint256",
              "name": "mcrBuffer",
              "type": "uint256"
            }
          ],
          "indexed": false,
          "internalType": "struct IMIMOManagedAction.ManagedVault",
          "name": "managedVault",
          "type": "tuple"
        }
      ],
      "name": "ManagementSet",
      "type": "event"
    },
    {
      "anonymous": false,
      "inputs": [
        {
          "indexed": false,
          "internalType": "address",
          "name": "manager",
          "type": "address"
        },
        {
          "indexed": false,
          "internalType": "bool",
          "name": "isManager",
          "type": "bool"
        }
      ],
      "name": "ManagerSet",
      "type": "event"
    },
    {
      "anonymous": false,
      "inputs": [
        {
          "indexed": true,
          "internalType": "address",
          "name": "previousOwner",
          "type": "address"
        },
        {
          "indexed": true,
          "internalType": "address",
          "name": "newOwner",
          "type": "address"
        }
      ],
      "name": "OwnershipTransferred",
      "type": "event"
    },
    {
      "inputs": [],
      "name": "a",
      "outputs": [
        {
          "internalType": "contract IAddressProvider",
          "name": "",
          "type": "address"
        }
      ],
      "stateMutability": "view",
      "type": "function"
    },
    {
      "inputs": [],
      "name": "claimOwnership",
      "outputs": [],
      "stateMutability": "nonpayable",
      "type": "function"
    },
    {
      "inputs": [
        {
          "internalType": "address[]",
          "name": "assets",
          "type": "address[]"
        },
        {
          "internalType": "uint256[]",
          "name": "amounts",
          "type": "uint256[]"
        },
        {
          "internalType": "uint256[]",
          "name": "premiums",
          "type": "uint256[]"
        },
        {
          "internalType": "address",
          "name": "initiator",
          "type": "address"
        },
        {
          "internalType": "bytes",
          "name": "params",
          "type": "bytes"
        }
      ],
      "name": "executeOperation",
      "outputs": [
        {
          "internalType": "bool",
          "name": "",
          "type": "bool"
        }
      ],
      "stateMutability": "nonpayable",
      "type": "function"
    },
    {
      "inputs": [
        {
          "internalType": "uint256",
          "name": "vaultId",
          "type": "uint256"
        }
      ],
      "name": "getManagedVault",
      "outputs": [
        {
          "components": [
            {
              "internalType": "bool",
              "name": "isManaged",
              "type": "bool"
            },
            {
              "internalType": "address",
              "name": "manager",
              "type": "address"
            },
            {
              "internalType": "uint256",
              "name": "allowedVariation",
              "type": "uint256"
            },
            {
              "internalType": "uint256",
              "name": "minRatio",
              "type": "uint256"
            },
            {
              "internalType": "uint256",
              "name": "fixedFee",
              "type": "uint256"
            },
            {
              "internalType": "uint256",
              "name": "varFee",
              "type": "uint256"
            },
            {
              "internalType": "uint256",
              "name": "mcrBuffer",
              "type": "uint256"
            }
          ],
          "internalType": "struct IMIMOManagedAction.ManagedVault",
          "name": "",
          "type": "tuple"
        }
      ],
      "stateMutability": "view",
      "type": "function"
    },
    {
      "inputs": [
        {
          "internalType": "address",
          "name": "manager",
          "type": "address"
        }
      ],
      "name": "getManager",
      "outputs": [
        {
          "internalType": "bool",
          "name": "",
          "type": "bool"
        }
      ],
      "stateMutability": "view",
      "type": "function"
    },
    {
      "inputs": [
        {
          "internalType": "uint256",
          "name": "vaultId",
          "type": "uint256"
        }
      ],
      "name": "getOperationTracker",
      "outputs": [
        {
          "internalType": "uint256",
          "name": "",
          "type": "uint256"
        }
      ],
      "stateMutability": "view",
      "type": "function"
    },
    {
      "inputs": [],
      "name": "lendingPool",
      "outputs": [
        {
          "internalType": "contract IPool",
          "name": "",
          "type": "address"
        }
      ],
      "stateMutability": "view",
      "type": "function"
    },
    {
      "inputs": [],
      "name": "mimoRebalance",
      "outputs": [
        {
          "internalType": "address",
          "name": "",
          "type": "address"
        }
      ],
      "stateMutability": "view",
      "type": "function"
    },
    {
      "inputs": [],
      "name": "owner",
      "outputs": [
        {
          "internalType": "address",
          "name": "",
          "type": "address"
        }
      ],
      "stateMutability": "view",
      "type": "function"
    },
    {
      "inputs": [],
      "name": "pause",
      "outputs": [],
      "stateMutability": "nonpayable",
      "type": "function"
    },
    {
      "inputs": [],
      "name": "paused",
      "outputs": [
        {
          "internalType": "bool",
          "name": "",
          "type": "bool"
        }
      ],
      "stateMutability": "view",
      "type": "function"
    },
    {
      "inputs": [],
      "name": "pendingOwner",
      "outputs": [
        {
          "internalType": "address",
          "name": "",
          "type": "address"
        }
      ],
      "stateMutability": "view",
      "type": "function"
    },
    {
      "inputs": [],
      "name": "proxyFactory",
      "outputs": [
        {
          "internalType": "contract IMIMOProxyFactory",
          "name": "",
          "type": "address"
        }
      ],
      "stateMutability": "view",
      "type": "function"
    },
    {
      "inputs": [
        {
          "components": [
            {
              "internalType": "address",
              "name": "asset",
              "type": "address"
            },
            {
              "internalType": "address",
              "name": "proxyAction",
              "type": "address"
            },
            {
              "internalType": "uint256",
              "name": "amount",
              "type": "uint256"
            }
          ],
          "internalType": "struct IMIMOFlashLoan.FlashLoanData",
          "name": "flData",
          "type": "tuple"
        },
        {
          "components": [
            {
              "internalType": "contract IERC20",
              "name": "toCollateral",
              "type": "address"
            },
            {
              "internalType": "uint256",
              "name": "vaultId",
              "type": "uint256"
            },
            {
              "internalType": "uint256",
              "name": "mintAmount",
              "type": "uint256"
            }
          ],
          "internalType": "struct IMIMORebalance.RebalanceData",
          "name": "rbData",
          "type": "tuple"
        },
        {
          "components": [
            {
              "internalType": "uint256",
              "name": "dexIndex",
              "type": "uint256"
            },
            {
              "internalType": "bytes",
              "name": "dexTxData",
              "type": "bytes"
            }
          ],
          "internalType": "struct IMIMOSwap.SwapData",
          "name": "swapData",
          "type": "tuple"
        }
      ],
      "name": "rebalance",
      "outputs": [],
      "stateMutability": "nonpayable",
      "type": "function"
    },
    {
      "inputs": [
        {
          "internalType": "uint256",
          "name": "vaultId",
          "type": "uint256"
        },
        {
          "components": [
            {
              "internalType": "bool",
              "name": "isManaged",
              "type": "bool"
            },
            {
              "internalType": "address",
              "name": "manager",
              "type": "address"
            },
            {
              "internalType": "uint256",
              "name": "allowedVariation",
              "type": "uint256"
            },
            {
              "internalType": "uint256",
              "name": "minRatio",
              "type": "uint256"
            },
            {
              "internalType": "uint256",
              "name": "fixedFee",
              "type": "uint256"
            },
            {
              "internalType": "uint256",
              "name": "varFee",
              "type": "uint256"
            },
            {
              "internalType": "uint256",
              "name": "mcrBuffer",
              "type": "uint256"
            }
          ],
          "internalType": "struct IMIMOManagedAction.ManagedVault",
          "name": "mgtParams",
          "type": "tuple"
        }
      ],
      "name": "setManagement",
      "outputs": [],
      "stateMutability": "nonpayable",
      "type": "function"
    },
    {
      "inputs": [
        {
          "internalType": "address",
          "name": "manager",
          "type": "address"
        },
        {
          "internalType": "bool",
          "name": "isManager",
          "type": "bool"
        }
      ],
      "name": "setManager",
      "outputs": [],
      "stateMutability": "nonpayable",
      "type": "function"
    },
    {
      "inputs": [
        {
          "internalType": "address",
          "name": "newOwner",
          "type": "address"
        },
        {
          "internalType": "bool",
          "name": "direct",
          "type": "bool"
        },
        {
          "internalType": "bool",
          "name": "renounce",
          "type": "bool"
        }
      ],
      "name": "transferOwnership",
      "outputs": [],
      "stateMutability": "nonpayable",
      "type": "function"
    },
    {
      "inputs": [],
      "name": "unpause",
      "outputs": [],
      "stateMutability": "nonpayable",
      "type": "function"
    }
  ],
  "transactionHash": "0xd82cf1052d3dec7b8ab3340209cda3f32606a75502292f8f403661aa362cc007",
  "args": [
    "0xa802eE4bd9f449295ADb6d73f65118352420758A",
    "0x794a61358D6845594F94dc1DB02A252b5b4814aD",
    "0x44e3c7B3994ce6C29a4E64A16ff998DAb5f996a3",
    "0x871269426857dc29cfdc5fBD028a1357bC3FEa97"
  ],
  "numDeployments": 1,
  "solcInputHash": "f32a31898ee3e7d355d788de2c8f3c93",
  "bytecode": "0x6101006040523480156200001257600080fd5b5060405162002dec38038062002dec83398101604081905262000035916200014c565b600080546001600160a01b0319163390811782556040518592879286929091907f8be0079c531659141344cd1fd0a4f28419497f9722a3daafe3b4186f6b6457e0908290a36001600160a01b03821615806200009857506001600160a01b038116155b15620000b757604051636a8403ad60e01b815260040160405180910390fd5b6001600160a01b03918216608052811660a0528116620000ea57604051636a8403ad60e01b815260040160405180910390fd5b6001600160a01b0390811660c052600160055581166200011d57604051636a8403ad60e01b815260040160405180910390fd5b6001600160a01b031660e05250620001b4915050565b6001600160a01b03811681146200014957600080fd5b50565b600080600080608085870312156200016357600080fd5b8451620001708162000133565b6020860151909450620001838162000133565b6040860151909350620001968162000133565b6060860151909250620001a98162000133565b939692955090935050565b60805160a05160c05160e051612b9c62000250600039600081816101790152610e300152600081816102ae01528181610ced01528181610d2f01528181610f0b015261162d015260008181610316015261123b0152600081816101350152818161066e0152818161076301528181610ae801528181610f4c0152818161112a015281816116ac015281816119200152611bb90152612b9c6000f3fe608060405234801561001057600080fd5b50600436106101165760003560e01c80638456cb59116100a2578063a5e90eee11610071578063a5e90eee146102d0578063b68a07b9146102e3578063c10f1a7514610311578063e30c397814610338578063ffb9609c1461034b57600080fd5b80638456cb591461027b5780638da5cb5b14610283578063920f5c8414610296578063a59a9973146102a957600080fd5b80633f4ba83a116100e95780633f4ba83a146101d75780634e71e0c8146101df5780635268d349146101e75780635c975abb146101fa5780636ba2dd881461020c57600080fd5b8063078dfbe71461011b5780630dbe671f146101305780631cc2c5ce146101745780633d5840631461019b575b600080fd5b61012e610129366004612149565b61035e565b005b6101577f000000000000000000000000000000000000000000000000000000000000000081565b6040516001600160a01b0390911681526020015b60405180910390f35b6101577f000000000000000000000000000000000000000000000000000000000000000081565b6101c76101a9366004612194565b6001600160a01b031660009081526004602052604090205460ff1690565b604051901515815260200161016b565b61012e610475565b61012e6104ae565b61012e6101f53660046121c9565b61056b565b600154600160a01b900460ff166101c7565b61021f61021a366004612225565b610b8a565b60405161016b91908151151581526020808301516001600160a01b03169082015260408083015190820152606080830151908201526080808301519082015260a0808301519082015260c0918201519181019190915260e00190565b61012e610c46565b600054610157906001600160a01b031681565b6101c76102a436600461228a565b610c85565b6101577f000000000000000000000000000000000000000000000000000000000000000081565b61012e6102de36600461238f565b610f48565b6103036102f1366004612225565b60009081526003602052604090205490565b60405190815260200161016b565b6101577f000000000000000000000000000000000000000000000000000000000000000081565b600154610157906001600160a01b031681565b61012e6103593660046123c8565b611126565b6000546001600160a01b031633146103915760405162461bcd60e51b815260040161038890612401565b60405180910390fd5b8115610454576001600160a01b0383161515806103ab5750805b6103ef5760405162461bcd60e51b81526020600482015260156024820152744f776e61626c653a207a65726f206164647265737360581b6044820152606401610388565b600080546040516001600160a01b03808716939216917f8be0079c531659141344cd1fd0a4f28419497f9722a3daafe3b4186f6b6457e091a3600080546001600160a01b0385166001600160a01b031991821617909155600180549091169055505050565b600180546001600160a01b0319166001600160a01b0385161790555b505050565b6000546001600160a01b0316331461049f5760405162461bcd60e51b815260040161038890612401565b6001805460ff60a01b19169055565b6001546001600160a01b03163381146105095760405162461bcd60e51b815260206004820181905260248201527f4f776e61626c653a2063616c6c657220213d2070656e64696e67206f776e65726044820152606401610388565b600080546040516001600160a01b03808516939216917f8be0079c531659141344cd1fd0a4f28419497f9722a3daafe3b4186f6b6457e091a3600080546001600160a01b039092166001600160a01b0319928316179055600180549091169055565b600154600160a01b900460ff161561059657604051632a6ab56360e21b815260040160405180910390fd5b600260055414156105e95760405162461bcd60e51b815260206004820152601f60248201527f5265656e7472616e637947756172643a207265656e7472616e742063616c6c006044820152606401610388565b6002600581815560208085013560009081528382526040808220815160e081018352815460ff8116151582526001600160a01b036101009091048116828701526001830154828501529682015460608201526003820154608082015260048083015460a0830152919095015460c086015281516365d5528760e01b81529151949592947f0000000000000000000000000000000000000000000000000000000000000000909316936365d552879383830193919290918290030181865afa1580156106b8573d6000803e3d6000fd5b505050506040513d601f19601f820116820180604052508101906106dc9190612436565b90506106ee82858388604001356113ad565b60405163b508bc5960e01b8152602085013560048201526000906001600160a01b0383169063b508bc5990602401602060405180830381865afa158015610739573d6000803e3d6000fd5b505050506040513d601f19601f8201168201806040525081019061075d9190612436565b905060007f00000000000000000000000000000000000000000000000000000000000000006001600160a01b031663741bef1a6040518163ffffffff1660e01b8152600401602060405180830381865afa1580156107bf573d6000803e3d6000fd5b505050506040513d601f19601f820116820180604052508101906107e39190612436565b60408051630392048f60e51b81526001600160a01b038581166004830152918a0135602482015291169063724091e090604401602060405180830381865afa158015610833573d6000803e3d6000fd5b505050506040513d601f19601f820116820180604052508101906108579190612453565b905060006108728560a001518361152890919063ffffffff16565b85608001516108819190612482565b604051633c2ecfe560e01b8152602089013560048201529091506000906001600160a01b03861690633c2ecfe590602401602060405180830381865afa1580156108cf573d6000803e3d6000fd5b505050506040513d601f19601f820116820180604052508101906108f39190612436565b905060006001600160a01b03861663bd44815f61091360208c018c612194565b6040516001600160e01b031960e084901b1681526001600160a01b0391821660048201529085166024820152604401602060405180830381865afa15801561095f573d6000803e3d6000fd5b505050506040513d601f19601f820116820180604052508101906109839190612453565b60405163828f8def60e01b8152600481018290529091506000906001600160a01b0388169063828f8def90602401602060405180830381865afa1580156109ce573d6000803e3d6000fd5b505050506040513d601f19601f820116820180604052508101906109f29190612453565b9050610a9c610a06368d90038d018d61252d565b604051633c2ecfe560e01b815260208d013560048201526001600160a01b038a1690633c2ecfe590602401602060405180830381865afa158015610a4e573d6000803e3d6000fd5b505050506040513d601f19601f82011682018060405250810190610a729190612436565b868d8d604051602001610a889493929190612598565b604051602081830303815290604052611560565b610ac18886838d60200135878f6000016020810190610abb9190612194565b8d6116a8565b42600360008c60200135815260200190815260200160002081905550610b788860200151857f00000000000000000000000000000000000000000000000000000000000000006001600160a01b03166316d8a5a96040518163ffffffff1660e01b8152600401602060405180830381865afa158015610b44573d6000803e3d6000fd5b505050506040513d601f19601f82011682018060405250810190610b689190612436565b6001600160a01b03169190611a53565b50506001600555505050505050505050565b610bd56040518060e0016040528060001515815260200160006001600160a01b0316815260200160008152602001600081526020016000815260200160008152602001600081525090565b50600090815260026020818152604092839020835160e081018552815460ff81161515825261010090046001600160a01b03169281019290925260018101549382019390935290820154606082015260038201546080820152600482015460a082015260059091015460c082015290565b6000546001600160a01b03163314610c705760405162461bcd60e51b815260040161038890612401565b6001805460ff60a01b1916600160a01b179055565b600080808080610c9786880188612688565b9350935093509350306001600160a01b0316886001600160a01b031614610ce257604051637c6b83fd60e01b81526001600160a01b0389166004820152306024820152604401610388565b336001600160a01b037f00000000000000000000000000000000000000000000000000000000000000001614610d5c57604051631489d26d60e11b81523360048201526001600160a01b037f0000000000000000000000000000000000000000000000000000000000000000166024820152604401610388565b60008e8e6000818110610d7157610d716127a4565b9050602002016020810190610d869190612194565b905060008d8d6000818110610d9d57610d9d6127a4565b905060200201359050610ddd868f8f6000818110610dbd57610dbd6127a4565b90506020020135846001600160a01b0316611a539092919063ffffffff16565b60008c8c6000818110610df257610df26127a4565b905060200201358f8f6000818110610e0c57610e0c6127a4565b90506020020135610e1d9190612482565b9050866001600160a01b0316631cff79cd7f00000000000000000000000000000000000000000000000000000000000000008585858b8b8b604051602401610e6a96959493929190612812565b60408051601f198184030181529181526020820180516001600160e01b031663b0597c8760e01b1790525160e084901b6001600160e01b0319168152610eb4929190600401612888565b6000604051808303816000875af1158015610ed3573d6000803e3d6000fd5b505050506040513d6000823e601f3d908101601f19168201604052610efb91908101906128ac565b50610f306001600160a01b0384167f000000000000000000000000000000000000000000000000000000000000000083611ab6565b60019750505050505050509998505050505050505050565b60007f00000000000000000000000000000000000000000000000000000000000000006001600160a01b031663f77c47916040518163ffffffff1660e01b8152600401602060405180830381865afa158015610fa8573d6000803e3d6000fd5b505050506040513d601f19601f82011682018060405250810190610fcc9190612436565b9050806001600160a01b03166391d14854826001600160a01b031663ec87621c6040518163ffffffff1660e01b8152600401602060405180830381865afa15801561101b573d6000803e3d6000fd5b505050506040513d601f19601f8201168201806040525081019061103f9190612453565b6040516001600160e01b031960e084901b1681526004810191909152336024820152604401602060405180830381865afa158015611081573d6000803e3d6000fd5b505050506040513d601f19601f820116820180604052508101906110a59190612923565b6110c25760405163539dd6ad60e11b815260040160405180910390fd5b6001600160a01b038316600081815260046020908152604091829020805460ff19168615159081179091558251938452908301527fff83ce179bad4fbdb0e98074011487cde624295a52d8189d92d5d8b06c914eda910160405180910390a1505050565b60007f00000000000000000000000000000000000000000000000000000000000000006001600160a01b03166365d552876040518163ffffffff1660e01b8152600401602060405180830381865afa158015611186573d6000803e3d6000fd5b505050506040513d601f19601f820116820180604052508101906111aa9190612436565b6001600160a01b0316633c2ecfe5846040518263ffffffff1660e01b81526004016111d791815260200190565b602060405180830381865afa1580156111f4573d6000803e3d6000fd5b505050506040513d601f19601f820116820180604052508101906112189190612436565b6040516326558c5d60e21b81523360048201529091506000906001600160a01b037f00000000000000000000000000000000000000000000000000000000000000001690639956317490602401602060405180830381865afa158015611282573d6000803e3d6000fd5b505050506040513d601f19601f820116820180604052508101906112a69190612436565b9050816001600160a01b0316816001600160a01b0316141580156112d357506001600160a01b0382163314155b156113045760405163295ab81160e11b81526001600160a01b03808316600483015283166024820152604401610388565b600460006113186040860160208701612194565b6001600160a01b0316815260208101919091526040016000205460ff1661135257604051636fe16ef160e01b815260040160405180910390fd5b6000848152600260205260409020839061136c8282612940565b905050837fa365d7b23d8538b3dedebbe882ad535b6b15ce9db71cc2b63bb9e39df99d866c8460405161139f91906129c1565b60405180910390a250505050565b3360009081526004602052604090205460ff166113dd57604051636fe16ef160e01b815260040160405180910390fd5b83516113fc57604051631fbe06e960e21b815260040160405180910390fd5b83602001516001600160a01b0316336001600160a01b031614611432576040516392582dc360e01b815260040160405180910390fd5b8061145057604051631e2cf93d60e31b815260040160405180910390fd5b61145d6201518042612a29565b6020808501356000908152600390915260409020541115611491576040516359caa18960e01b815260040160405180910390fd5b6040805163d310f49b60e01b81526020850135600482015290840135906001600160a01b0384169063d310f49b90602401602060405180830381865afa1580156114df573d6000803e3d6000fd5b505050506040513d601f19601f820116820180604052508101906115039190612453565b101561152257604051631eca6e7b60e11b815260040160405180910390fd5b50505050565b600081156706f05b59d3b20000198390048411151761154657600080fd5b50670de0b6b3a764000091026706f05b59d3b20000010490565b604080516001808252818301909252600091602080830190803683375050604080516001808252818301909252929350600092915060208083019080368337505060408051600180825281830190925292935060009291506020808301908036833701905050905084600001518560400151846000815181106115e5576115e56127a4565b60200260200101846000815181106115ff576115ff6127a4565b6020908102919091018101929092526001600160a01b03928316905286015160405163ab9c4b5d60e01b81527f00000000000000000000000000000000000000000000000000000000000000009092169163ab9c4b5d9161166f9187908790879084908c90600090600401612a7b565b600060405180830381600087803b15801561168957600080fd5b505af115801561169d573d6000803e3d6000fd5b505050505050505050565b60007f00000000000000000000000000000000000000000000000000000000000000006001600160a01b031663741bef1a6040518163ffffffff1660e01b8152600401602060405180830381865afa158015611708573d6000803e3d6000fd5b505050506040513d601f19601f8201168201806040525081019061172c9190612436565b60405163bd44815f60e01b81526001600160a01b038581166004830152868116602483015291925060009184169063bd44815f90604401602060405180830381865afa158015611780573d6000803e3d6000fd5b505050506040513d601f19601f820116820180604052508101906117a49190612453565b60405163828f8def60e01b8152600481018290529091506000906001600160a01b0385169063828f8def90602401602060405180830381865afa1580156117ef573d6000803e3d6000fd5b505050506040513d601f19601f820116820180604052508101906118139190612453565b905060006001600160a01b03841663724091e0876118318c86612a29565b6040516001600160e01b031960e085901b1681526001600160a01b0390921660048301526024820152604401602060405180830381865afa15801561187a573d6000803e3d6000fd5b505050506040513d601f19601f8201168201806040525081019061189e9190612453565b90506118ab8b8b83611b68565b6118c85760405163330998e160e11b815260040160405180910390fd5b60006118d389611bb4565b90508b6060015181101561190a5760608c015160405163dfab2be560e01b8152600481019190915260248101829052604401610388565b600061191585611bb4565b905060008d60c001517f00000000000000000000000000000000000000000000000000000000000000006001600160a01b03166379502c556040518163ffffffff1660e01b8152600401602060405180830381865afa15801561197c573d6000803e3d6000fd5b505050506040513d601f19601f820116820180604052508101906119a09190612436565b604051638a70473b60e01b81526001600160a01b038c811660048301529190911690638a70473b90602401602060405180830381865afa1580156119e8573d6000803e3d6000fd5b505050506040513d601f19601f82011682018060405250810190611a0c9190612453565b611a169190612482565b905080821015611a435760405163dfab2be560e01b81526004810182905260248101839052604401610388565b5050505050505050505050505050565b6040516001600160a01b03831660248201526044810182905261047090849063a9059cbb60e01b906064015b60408051601f198184030181529190526020810180516001600160e01b03166001600160e01b031990931692909217909152611e99565b604051636eb1769f60e11b81523060048201526001600160a01b038381166024830152600091839186169063dd62ed3e90604401602060405180830381865afa158015611b07573d6000803e3d6000fd5b505050506040513d601f19601f82011682018060405250810190611b2b9190612453565b611b359190612482565b6040516001600160a01b03851660248201526044810182905290915061152290859063095ea7b360e01b90606401611a7f565b6000828210611b7957506001611bad565b6000611b8f84611b898582612a29565b90611f6b565b90508460400151811115611ba7576000915050611bad565b60019150505b9392505050565b6000807f000000000000000000000000000000000000000000000000000000000000000090506000816001600160a01b03166365d552876040518163ffffffff1660e01b8152600401602060405180830381865afa158015611c1a573d6000803e3d6000fd5b505050506040513d601f19601f82011682018060405250810190611c3e9190612436565b90506000826001600160a01b031663741bef1a6040518163ffffffff1660e01b8152600401602060405180830381865afa158015611c80573d6000803e3d6000fd5b505050506040513d601f19601f82011682018060405250810190611ca49190612436565b60405163828f8def60e01b8152600481018790529091506000906001600160a01b0384169063828f8def90602401602060405180830381865afa158015611cef573d6000803e3d6000fd5b505050506040513d601f19601f82011682018060405250810190611d139190612453565b60405163b508bc5960e01b8152600481018890529091506000906001600160a01b0385169063b508bc5990602401602060405180830381865afa158015611d5e573d6000803e3d6000fd5b505050506040513d601f19601f82011682018060405250810190611d829190612436565b604051630392048f60e51b81526001600160a01b0380831660048301526024820185905291925060009185169063724091e090604401602060405180830381865afa158015611dd5573d6000803e3d6000fd5b505050506040513d601f19601f82011682018060405250810190611df99190612453565b60405163d310f49b60e01b8152600481018a90529091506000906001600160a01b0387169063d310f49b90602401602060405180830381865afa158015611e44573d6000803e3d6000fd5b505050506040513d601f19601f82011682018060405250810190611e689190612453565b905080611e7f575060001998975050505050505050565b6000611e8b8383611f6b565b9a9950505050505050505050565b6000611eee826040518060400160405280602081526020017f5361666545524332303a206c6f772d6c6576656c2063616c6c206661696c6564815250856001600160a01b0316611fa29092919063ffffffff16565b8051909150156104705780806020019051810190611f0c9190612923565b6104705760405162461bcd60e51b815260206004820152602a60248201527f5361666545524332303a204552433230206f7065726174696f6e20646964206e6044820152691bdd081cdd58d8d9595960b21b6064820152608401610388565b60008115670de0b6b3a764000060028404190484111715611f8b57600080fd5b50670de0b6b3a76400009190910260028204010490565b6060611fb18484600085611fb9565b949350505050565b60608247101561201a5760405162461bcd60e51b815260206004820152602660248201527f416464726573733a20696e73756666696369656e742062616c616e636520666f6044820152651c8818d85b1b60d21b6064820152608401610388565b6001600160a01b0385163b6120715760405162461bcd60e51b815260206004820152601d60248201527f416464726573733a2063616c6c20746f206e6f6e2d636f6e74726163740000006044820152606401610388565b600080866001600160a01b0316858760405161208d9190612b37565b60006040518083038185875af1925050503d80600081146120ca576040519150601f19603f3d011682016040523d82523d6000602084013e6120cf565b606091505b50915091506120df8282866120ea565b979650505050505050565b606083156120f9575081611bad565b8251156121095782518084602001fd5b8160405162461bcd60e51b81526004016103889190612b53565b6001600160a01b038116811461213857600080fd5b50565b801515811461213857600080fd5b60008060006060848603121561215e57600080fd5b833561216981612123565b925060208401356121798161213b565b915060408401356121898161213b565b809150509250925092565b6000602082840312156121a657600080fd5b8135611bad81612123565b6000606082840312156121c357600080fd5b50919050565b600080600060e084860312156121de57600080fd5b6121e885856121b1565b92506121f785606086016121b1565b915060c084013567ffffffffffffffff81111561221357600080fd5b84016040818703121561218957600080fd5b60006020828403121561223757600080fd5b5035919050565b60008083601f84011261225057600080fd5b50813567ffffffffffffffff81111561226857600080fd5b6020830191508360208260051b850101111561228357600080fd5b9250929050565b600080600080600080600080600060a08a8c0312156122a857600080fd5b893567ffffffffffffffff808211156122c057600080fd5b6122cc8d838e0161223e565b909b50995060208c01359150808211156122e557600080fd5b6122f18d838e0161223e565b909950975060408c013591508082111561230a57600080fd5b6123168d838e0161223e565b909750955060608c0135915061232b82612123565b90935060808b0135908082111561234157600080fd5b818c0191508c601f83011261235557600080fd5b81358181111561236457600080fd5b8d602082850101111561237657600080fd5b6020830194508093505050509295985092959850929598565b600080604083850312156123a257600080fd5b82356123ad81612123565b915060208301356123bd8161213b565b809150509250929050565b6000808284036101008112156123dd57600080fd5b8335925060e0601f19820112156123f357600080fd5b506020830190509250929050565b6020808252818101527f4f776e61626c653a2063616c6c6572206973206e6f7420746865206f776e6572604082015260600190565b60006020828403121561244857600080fd5b8151611bad81612123565b60006020828403121561246557600080fd5b5051919050565b634e487b7160e01b600052601160045260246000fd5b600082198211156124955761249561246c565b500190565b634e487b7160e01b600052604160045260246000fd5b6040516060810167ffffffffffffffff811182821017156124d3576124d361249a565b60405290565b6040805190810167ffffffffffffffff811182821017156124d3576124d361249a565b604051601f8201601f1916810167ffffffffffffffff811182821017156125255761252561249a565b604052919050565b60006060828403121561253f57600080fd5b6040516060810181811067ffffffffffffffff821117156125625761256261249a565b604052823561257081612123565b8152602083013561258081612123565b60208201526040928301359281019290925250919050565b6001600160a01b0385811682526020820185905260009084356125ba81612123565b81811660408501525050602084013560608301526040840135608083015260c060a0830152823560c08301526020830135601e198436030181126125fd57600080fd5b8301803567ffffffffffffffff81111561261657600080fd5b80360385131561262557600080fd5b604060e0850152806101008501526101208160208401828701376000858301820152601f909101601f19169093019092019695505050505050565b600067ffffffffffffffff82111561267a5761267a61249a565b50601f01601f191660200190565b60008060008084860360c081121561269f57600080fd5b85356126aa81612123565b945060208681013594506060603f19830112156126c657600080fd5b6126ce6124b0565b915060408701356126de81612123565b82526060870135818301526080870135604083015290925060a08601359067ffffffffffffffff8083111561271257600080fd5b918701916040838a03121561272657600080fd5b61272e6124d9565b83358152828401358281111561274357600080fd5b80850194505089601f85011261275857600080fd5b8335915061276d61276883612660565b6124fc565b8281528a8484870101111561278157600080fd5b828486018583013760009281018401929092529182015294979396509194505050565b634e487b7160e01b600052603260045260246000fd5b60005b838110156127d55781810151838201526020016127bd565b838111156115225750506000910152565b600081518084526127fe8160208601602086016127ba565b601f01601f19169290920160200192915050565b600061010060018060a01b03808a16845288602085015287604085015286606085015280865116608085015250602085015160a0840152604085015160c08401528060e0840152835181840152506020830151604061012084015261287b6101408401826127e6565b9998505050505050505050565b6001600160a01b0383168152604060208201819052600090611fb1908301846127e6565b6000602082840312156128be57600080fd5b815167ffffffffffffffff8111156128d557600080fd5b8201601f810184136128e657600080fd5b80516128f461276882612660565b81815285602083850101111561290957600080fd5b61291a8260208301602086016127ba565b95945050505050565b60006020828403121561293557600080fd5b8151611bad8161213b565b813561294b8161213b565b815490151560ff1660ff1991909116178155602082013561296b81612123565b8154610100600160a81b031916600882901b610100600160a81b03161782555060408201356001820155606082013560028201556080820135600382015560a0820135600482015560c082013560058201555050565b60e0810182356129d08161213b565b1515825260208301356129e281612123565b60018060a01b03811660208401525060408301356040830152606083013560608301526080830135608083015260a083013560a083015260c083013560c083015292915050565b600082821015612a3b57612a3b61246c565b500390565b600081518084526020808501945080840160005b83811015612a7057815187529582019590820190600101612a54565b509495945050505050565b6001600160a01b03888116825260e0602080840182905289519184018290526000928a820192909190610100860190855b81811015612aca578551851683529483019491830191600101612aac565b50508581036040870152612ade818c612a40565b93505050508281036060840152612af58188612a40565b6001600160a01b0387166080850152905082810360a0840152612b1881866127e6565b915050612b2b60c083018461ffff169052565b98975050505050505050565b60008251612b498184602087016127ba565b9190910192915050565b602081526000611bad60208301846127e656fea2646970667358221220917bf956bb8460aa2d4a0c88d82998b2c352277426c524d8addf41afd5de8a1264736f6c634300080a0033",
  "devdoc": {
    "kind": "dev",
    "methods": {
      "executeOperation(address[],uint256[],uint256[],address,bytes)": {
        "details": "Integrates with AAVE V3 flashLoans",
        "params": {
          "amounts": "Uint array with one element corresponding to the amount of the rebalanced asset",
          "assets": "Address array with one element corresponding to the address of the reblanced asset",
          "initiator": "Initiator of the flashloan; can only be MIMOProxy owner",
          "params": "Bytes sent by this contract containing MIMOProxy owner, RebalanceData struct and SwapData struct",
          "premiums": "Uint array with one element corresponding to the flashLoan fees"
        },
        "returns": {
          "_0": "True if success and False if not"
        }
      },
      "getManagedVault(uint256)": {
        "params": {
          "vaultId": "Vault id of the queried vault"
        },
        "returns": {
          "_0": "ManagedVault struct of a specific vault id"
        }
      },
      "getManager(address)": {
        "params": {
          "manager": "Manager address"
        },
        "returns": {
          "_0": "Bool value indicating if an address is allowed to manage user vaults or not"
        }
      },
      "getOperationTracker(uint256)": {
        "params": {
          "vaultId": "Vault id of the queried vault"
        },
        "returns": {
          "_0": "Timestamp of the last performed operation"
        }
      },
      "rebalance((address,address,uint256),(address,uint256,uint256),(uint256,bytes))": {
        "details": "Can only be called once a day by the manager selected by the MIMOProxy ownerReverts if operation results in vault value change above allowed variation or in vault ratio lower than min ratioNonReentrant to avoid exploits on what happens between before and after rebalance checks",
        "params": {
          "flData": "Flashloan data struct containing flashloan parameters",
          "rbData": "RebalanceData struct containing rebalance operation parameters",
          "swapData": "SwapData struct containing aggegator swap parameters"
        }
      },
      "setManagement(uint256,(bool,address,uint256,uint256,uint256,uint256,uint256))": {
        "details": "Can only be called by vault owner and can only appoint whitelisting managers as manger",
        "params": {
          "mgtParams": "ManagedVault struct containing all management parameters",
          "vaultId": "Vault id of the vault to be put under management"
        }
      },
      "setManager(address,bool)": {
        "details": "Can only be called by protocol manager",
        "params": {
          "isManager": "Bool value indicating if an address is allowed to manage user vaults or not",
          "manager": "Manager address"
        }
      },
      "transferOwnership(address,bool,bool)": {
        "params": {
          "direct": "True if `newOwner` should be set immediately. False if `newOwner` needs to use `claimOwnership`.",
          "newOwner": "Address of the new owner.",
          "renounce": "Allows the `newOwner` to be `address(0)` if `direct` and `renounce` is True. Has no effect otherwise."
        }
      }
    },
    "version": 1
  },
  "userdoc": {
    "kind": "user",
    "methods": {
      "claimOwnership()": {
        "notice": "Needs to be called by `pendingOwner` to claim ownership."
      },
      "executeOperation(address[],uint256[],uint256[],address,bytes)": {
        "notice": "Routes a call from a flashloan pool to a leverage or rebalance operation"
      },
      "rebalance((address,address,uint256),(address,uint256,uint256),(uint256,bytes))": {
        "notice": "Perform a rebalance on a vault by an appointed whitelisted manager on behalf of vault ownerVault must have been created though a MIMOProxy"
      },
      "setManagement(uint256,(bool,address,uint256,uint256,uint256,uint256,uint256))": {
        "notice": "Sets a vault management parameters"
      },
      "setManager(address,bool)": {
        "notice": "Whitelists or removes a manager"
      },
      "transferOwnership(address,bool,bool)": {
        "notice": "Transfers ownership to `newOwner`. Either directly or claimable by the new pending owner. Can only be invoked by the current `owner`."
      }
    },
    "version": 1
  },
  "storageLayout": {
    "storage": [
      {
        "astId": 9731,
        "contract": "contracts/actions/managed/MIMOManagedRebalance.sol:MIMOManagedRebalance",
        "label": "owner",
        "offset": 0,
        "slot": "0",
        "type": "t_address"
      },
      {
        "astId": 9733,
        "contract": "contracts/actions/managed/MIMOManagedRebalance.sol:MIMOManagedRebalance",
        "label": "pendingOwner",
        "offset": 0,
        "slot": "1",
        "type": "t_address"
      },
      {
        "astId": 3065,
        "contract": "contracts/actions/managed/MIMOManagedRebalance.sol:MIMOManagedRebalance",
        "label": "_paused",
        "offset": 20,
        "slot": "1",
        "type": "t_bool"
      },
      {
        "astId": 5581,
        "contract": "contracts/actions/managed/MIMOManagedRebalance.sol:MIMOManagedRebalance",
        "label": "_managedVaults",
        "offset": 0,
        "slot": "2",
        "type": "t_mapping(t_uint256,t_struct(ManagedVault)6508_storage)"
      },
      {
        "astId": 5585,
        "contract": "contracts/actions/managed/MIMOManagedRebalance.sol:MIMOManagedRebalance",
        "label": "_operationTracker",
        "offset": 0,
        "slot": "3",
        "type": "t_mapping(t_uint256,t_uint256)"
      },
      {
        "astId": 5589,
        "contract": "contracts/actions/managed/MIMOManagedRebalance.sol:MIMOManagedRebalance",
        "label": "_managers",
        "offset": 0,
        "slot": "4",
        "type": "t_mapping(t_address,t_bool)"
      },
      {
        "astId": 1422,
        "contract": "contracts/actions/managed/MIMOManagedRebalance.sol:MIMOManagedRebalance",
        "label": "_status",
        "offset": 0,
        "slot": "5",
        "type": "t_uint256"
      }
    ],
    "types": {
      "t_address": {
        "encoding": "inplace",
        "label": "address",
        "numberOfBytes": "20"
      },
      "t_bool": {
        "encoding": "inplace",
        "label": "bool",
        "numberOfBytes": "1"
      },
      "t_mapping(t_address,t_bool)": {
        "encoding": "mapping",
        "key": "t_address",
        "label": "mapping(address => bool)",
        "numberOfBytes": "32",
        "value": "t_bool"
      },
      "t_mapping(t_uint256,t_struct(ManagedVault)6508_storage)": {
        "encoding": "mapping",
        "key": "t_uint256",
        "label": "mapping(uint256 => struct IMIMOManagedAction.ManagedVault)",
        "numberOfBytes": "32",
        "value": "t_struct(ManagedVault)6508_storage"
      },
      "t_mapping(t_uint256,t_uint256)": {
        "encoding": "mapping",
        "key": "t_uint256",
        "label": "mapping(uint256 => uint256)",
        "numberOfBytes": "32",
        "value": "t_uint256"
      },
      "t_struct(ManagedVault)6508_storage": {
        "encoding": "inplace",
        "label": "struct IMIMOManagedAction.ManagedVault",
        "members": [
          {
            "astId": 6495,
            "contract": "contracts/actions/managed/MIMOManagedRebalance.sol:MIMOManagedRebalance",
            "label": "isManaged",
            "offset": 0,
            "slot": "0",
            "type": "t_bool"
          },
          {
            "astId": 6497,
            "contract": "contracts/actions/managed/MIMOManagedRebalance.sol:MIMOManagedRebalance",
            "label": "manager",
            "offset": 1,
            "slot": "0",
            "type": "t_address"
          },
          {
            "astId": 6499,
            "contract": "contracts/actions/managed/MIMOManagedRebalance.sol:MIMOManagedRebalance",
            "label": "allowedVariation",
            "offset": 0,
            "slot": "1",
            "type": "t_uint256"
          },
          {
            "astId": 6501,
            "contract": "contracts/actions/managed/MIMOManagedRebalance.sol:MIMOManagedRebalance",
            "label": "minRatio",
            "offset": 0,
            "slot": "2",
            "type": "t_uint256"
          },
          {
            "astId": 6503,
            "contract": "contracts/actions/managed/MIMOManagedRebalance.sol:MIMOManagedRebalance",
            "label": "fixedFee",
            "offset": 0,
            "slot": "3",
            "type": "t_uint256"
          },
          {
            "astId": 6505,
            "contract": "contracts/actions/managed/MIMOManagedRebalance.sol:MIMOManagedRebalance",
            "label": "varFee",
            "offset": 0,
            "slot": "4",
            "type": "t_uint256"
          },
          {
            "astId": 6507,
            "contract": "contracts/actions/managed/MIMOManagedRebalance.sol:MIMOManagedRebalance",
            "label": "mcrBuffer",
            "offset": 0,
            "slot": "5",
            "type": "t_uint256"
          }
        ],
        "numberOfBytes": "192"
      },
      "t_uint256": {
        "encoding": "inplace",
        "label": "uint256",
        "numberOfBytes": "32"
      }
    }
  }
}