{
  "address": "0x44e3c7B3994ce6C29a4E64A16ff998DAb5f996a3",
  "abi": [
    {
      "inputs": [
        {
          "internalType": "address",
          "name": "_mimoProxyGuardBase",
          "type": "address"
        }
      ],
      "stateMutability": "nonpayable",
      "type": "constructor"
    },
    {
      "inputs": [
        {
          "internalType": "address",
          "name": "owner",
          "type": "address"
        },
        {
          "internalType": "address",
          "name": "ownedProxy",
          "type": "address"
        }
      ],
      "name": "ALREADY_OWNER",
      "type": "error"
    },
    {
      "inputs": [
        {
          "internalType": "address",
          "name": "caller",
          "type": "address"
        },
        {
          "internalType": "address",
          "name": "pendingOwner",
          "type": "address"
        }
      ],
      "name": "CALLER_NOT_PENDING_OWNER",
      "type": "error"
    },
    {
      "inputs": [],
      "name": "CANNOT_SET_TO_ADDRESS_ZERO",
      "type": "error"
    },
    {
      "inputs": [
        {
          "internalType": "address",
          "name": "owner",
          "type": "address"
        },
        {
          "internalType": "address",
          "name": "caller",
          "type": "address"
        }
      ],
      "name": "NOT_OWNER",
      "type": "error"
    },
    {
      "anonymous": false,
      "inputs": [
        {
          "indexed": true,
          "internalType": "address",
          "name": "proxy",
          "type": "address"
        },
        {
          "indexed": false,
          "internalType": "uint256",
          "name": "minGas",
          "type": "uint256"
        }
      ],
      "name": "MinGasSet",
      "type": "event"
    },
    {
      "anonymous": false,
      "inputs": [
        {
          "indexed": true,
          "internalType": "address",
          "name": "proxy",
          "type": "address"
        },
        {
          "indexed": true,
          "internalType": "address",
          "name": "newOwner",
          "type": "address"
        }
      ],
      "name": "OwnershipClaimed",
      "type": "event"
    },
    {
      "anonymous": false,
      "inputs": [
        {
          "indexed": true,
          "internalType": "address",
          "name": "proxy",
          "type": "address"
        },
        {
          "indexed": true,
          "internalType": "address",
          "name": "previousOwner",
          "type": "address"
        },
        {
          "indexed": true,
          "internalType": "address",
          "name": "newOwner",
          "type": "address"
        }
      ],
      "name": "OwnershipTransferred",
      "type": "event"
    },
    {
      "anonymous": false,
      "inputs": [
        {
          "indexed": true,
          "internalType": "address",
          "name": "proxy",
          "type": "address"
        },
        {
          "indexed": false,
          "internalType": "address",
          "name": "newProxyGuard",
          "type": "address"
        }
      ],
      "name": "PermissionsCleared",
      "type": "event"
    },
    {
      "anonymous": false,
      "inputs": [
        {
          "indexed": true,
          "internalType": "address",
          "name": "owner",
          "type": "address"
        },
        {
          "indexed": true,
          "internalType": "address",
          "name": "proxy",
          "type": "address"
        },
        {
          "components": [
            {
              "internalType": "address",
              "name": "owner",
              "type": "address"
            },
            {
              "internalType": "contract IMIMOProxyGuard",
              "name": "proxyGuard",
              "type": "address"
            },
            {
              "internalType": "uint256",
              "name": "minGas",
              "type": "uint256"
            }
          ],
          "indexed": false,
          "internalType": "struct IMIMOProxyFactory.ProxyState",
          "name": "proxyState",
          "type": "tuple"
        }
      ],
      "name": "ProxyDeployed",
      "type": "event"
    },
    {
      "inputs": [],
      "name": "VERSION",
      "outputs": [
        {
          "internalType": "uint256",
          "name": "",
          "type": "uint256"
        }
      ],
      "stateMutability": "view",
      "type": "function"
    },
    {
      "inputs": [
        {
          "internalType": "address",
          "name": "proxy",
          "type": "address"
        },
        {
          "internalType": "bool",
          "name": "clear",
          "type": "bool"
        }
      ],
      "name": "claimOwnership",
      "outputs": [],
      "stateMutability": "nonpayable",
      "type": "function"
    },
    {
      "inputs": [
        {
          "internalType": "address",
          "name": "proxy",
          "type": "address"
        }
      ],
      "name": "clearPermissions",
      "outputs": [],
      "stateMutability": "nonpayable",
      "type": "function"
    },
    {
      "inputs": [],
      "name": "deploy",
      "outputs": [],
      "stateMutability": "nonpayable",
      "type": "function"
    },
    {
      "inputs": [
        {
          "internalType": "address",
          "name": "owner",
          "type": "address"
        }
      ],
      "name": "getCurrentProxy",
      "outputs": [
        {
          "internalType": "contract IMIMOProxy",
          "name": "proxy",
          "type": "address"
        }
      ],
      "stateMutability": "view",
      "type": "function"
    },
    {
      "inputs": [
        {
          "internalType": "address",
          "name": "proxy",
          "type": "address"
        }
      ],
      "name": "getPendingOwner",
      "outputs": [
        {
          "internalType": "address",
          "name": "pendingOwner",
          "type": "address"
        }
      ],
      "stateMutability": "view",
      "type": "function"
    },
    {
      "inputs": [
        {
          "internalType": "address",
          "name": "proxy",
          "type": "address"
        }
      ],
      "name": "getProxyState",
      "outputs": [
        {
          "components": [
            {
              "internalType": "address",
              "name": "owner",
              "type": "address"
            },
            {
              "internalType": "contract IMIMOProxyGuard",
              "name": "proxyGuard",
              "type": "address"
            },
            {
              "internalType": "uint256",
              "name": "minGas",
              "type": "uint256"
            }
          ],
          "internalType": "struct IMIMOProxyFactory.ProxyState",
          "name": "proxyState",
          "type": "tuple"
        }
      ],
      "stateMutability": "view",
      "type": "function"
    },
    {
      "inputs": [
        {
          "internalType": "address",
          "name": "proxy",
          "type": "address"
        }
      ],
      "name": "isProxy",
      "outputs": [
        {
          "internalType": "bool",
          "name": "result",
          "type": "bool"
        }
      ],
      "stateMutability": "view",
      "type": "function"
    },
    {
      "inputs": [],
      "name": "mimoProxyGuardBase",
      "outputs": [
        {
          "internalType": "address",
          "name": "",
          "type": "address"
        }
      ],
      "stateMutability": "view",
      "type": "function"
    },
    {
      "inputs": [
        {
          "internalType": "address",
          "name": "proxy",
          "type": "address"
        },
        {
          "internalType": "uint256",
          "name": "minGas",
          "type": "uint256"
        }
      ],
      "name": "setMinGas",
      "outputs": [],
      "stateMutability": "nonpayable",
      "type": "function"
    },
    {
      "inputs": [
        {
          "internalType": "address",
          "name": "proxy",
          "type": "address"
        },
        {
          "internalType": "address",
          "name": "newOwner",
          "type": "address"
        }
      ],
      "name": "transferOwnership",
      "outputs": [],
      "stateMutability": "nonpayable",
      "type": "function"
    }
  ],
  "transactionHash": "0xe2585f3bb4c823f018646ad4a3e0879acdbb9278efa8d84cdecf788467b3f191",
  "args": [
    "0x2BaD16A8fc3BB58733D3742D84226FBDe200C27e"
  ],
  "numDeployments": 1,
  "solcInputHash": "f32a31898ee3e7d355d788de2c8f3c93",
  "bytecode": "0x60a060405234801561001057600080fd5b5060405161155d38038061155d83398101604081905261002f91610067565b6001600160a01b03811661005657604051636a8403ad60e01b815260040160405180910390fd5b6001600160a01b0316608052610097565b60006020828403121561007957600080fd5b81516001600160a01b038116811461009057600080fd5b9392505050565b60805161149d6100c06000396000818161010b0152818161050201526108c7015261149d6000f3fe608060405234801561001057600080fd5b50600436106100a95760003560e01c8063775c300c11610071578063775c300c14610184578063995631741461018c5780639da947d8146101b8578063e7a80c8f146101cb578063ea3227ee146101de578063ffa1ad741461027657600080fd5b80631e28d19d146100ae57806329710388146100c35780634de1c5081461010657806366f6a5ed146101455780636d43542114610171575b600080fd5b6100c16100bc3660046109e3565b61028c565b005b6100f16100d1366004610a0d565b6001600160a01b0390811660009081526020819052604090205416151590565b60405190151581526020015b60405180910390f35b61012d7f000000000000000000000000000000000000000000000000000000000000000081565b6040516001600160a01b0390911681526020016100fd565b61012d610153366004610a0d565b6001600160a01b039081166000908152600260205260409020541690565b6100c161017f366004610a2f565b610349565b6100c1610481565b61012d61019a366004610a0d565b6001600160a01b039081166000908152600160205260409020541690565b6100c16101c6366004610a0d565b61067e565b6100c16101d9366004610a62565b6106ea565b6102466101ec366004610a0d565b6040805160608082018352600080835260208084018290529284018190526001600160a01b039485168152808352839020835191820184528054851682526001810154909416918101919091526002909201549082015290565b6040805182516001600160a01b0390811682526020808501519091169082015291810151908201526060016100fd565b61027e600181565b6040519081526020016100fd565b3360009081526001602052604090205482906001600160a01b038083169116146102f4576001600160a01b03808216600090815260208190526040908190205490516341fa8c8960e11b81526102eb9291909116903390600401610a9e565b60405180910390fd5b6001600160a01b0383166000818152602081815260409182902060020185905590518481527f72c999c3378702af9a377a5f871b439caf07d3cd10edbcb807dd42cafe295571910160405180910390a2505050565b3360009081526001602052604090205482906001600160a01b038083169116146103a8576001600160a01b03808216600090815260208190526040908190205490516341fa8c8960e11b81526102eb9291909116903390600401610a9e565b6001600160a01b0382166103cf57604051636a8403ad60e01b815260040160405180910390fd5b6001600160a01b038281166000908152600160205260409020541615610427576001600160a01b0380831660009081526001602052604090819020549051631dfd0c2f60e11b81526102eb9285921690600401610a9e565b6001600160a01b0383811660008181526002602052604080822080546001600160a01b0319169487169485179055513392917fc8894f26f396ce8c004245c8b7cd1b92103a6e4302fcbab883987149ac01b7ec91a4505050565b336000908152600160205260409020546001600160a01b031680156104bd573381604051631dfd0c2f60e11b81526004016102eb929190610a9e565b6000306040516104cc906109bf565b6001600160a01b039091168152602001604051809103906000f0801580156104f8573d6000803e3d6000fd5b509050600061052f7f00000000000000000000000000000000000000000000000000000000000000006001600160a01b0316610823565b60405163485cc95560e01b81529091506001600160a01b0382169063485cc955906105609030908690600401610a9e565b600060405180830381600087803b15801561057a57600080fd5b505af115801561058e573d6000803e3d6000fd5b505060408051606081018252338082526001600160a01b0386811660208085019182526113888587019081526000858152600180845288822080548e88166001600160a01b031991821681179092558184529483905291899020885181549088169086161781559451908501805491909616931692909217909355915160029091015592519194509192507f7b1a53268fe43c7ed31990d07cb415302e0b6a4c3ccce74215ff27d6292fa4659061067090859081516001600160a01b039081168252602080840151909116908201526040918201519181019190915260600190565b60405180910390a350505050565b3360009081526001602052604090205481906001600160a01b038083169116146106dd576001600160a01b03808216600090815260208190526040908190205490516341fa8c8960e11b81526102eb9291909116903390600401610a9e565b6106e6826108c0565b5050565b6001600160a01b0380831660009081526002602052604090205416338114610729573381604051633854d1cd60e11b81526004016102eb929190610a9e565b6001600160a01b038181166000908152600160205260409020541615610781576001600160a01b0380821660009081526001602052604090819020549051631dfd0c2f60e11b81526102eb9284921690600401610a9e565b6001600160a01b0380841660008181526020818152604080832080549095168084526001835281842080546001600160a01b03199081169091553380865283862080548316881790558686528754821681179097556002909352818420805490931690925551909392917f935c51778db70bb63d01ba9b319c9b8f13d608e43d550a91d8896bd1368857df91a3821561081d5761081d846108c0565b50505050565b6000604051733d602d80600a3d3981f3363d3d373d3d3d363d7360601b81528260601b60148201526e5af43d82803e903d91602b57fd5bf360881b60288201526037816000f09150506001600160a01b0381166108bb5760405162461bcd60e51b8152602060048201526016602482015275115490cc4c4d8dce8818dc99585d194819985a5b195960521b60448201526064016102eb565b919050565b60006108f47f00000000000000000000000000000000000000000000000000000000000000006001600160a01b0316610823565b60405163485cc95560e01b81529091506001600160a01b0382169063485cc955906109259030908690600401610a9e565b600060405180830381600087803b15801561093f57600080fd5b505af1158015610953573d6000803e3d6000fd5b505050506001600160a01b038281166000818152602081815260409182902060010180546001600160a01b0319169486169485179055905192835290917f4e6abd2f14bcb0a8ad876a3e1b4c2f8c2cc0aec352d062ceef01083577b5f0fc910160405180910390a25050565b6109af80610ab983390190565b80356001600160a01b03811681146108bb57600080fd5b600080604083850312156109f657600080fd5b6109ff836109cc565b946020939093013593505050565b600060208284031215610a1f57600080fd5b610a28826109cc565b9392505050565b60008060408385031215610a4257600080fd5b610a4b836109cc565b9150610a59602084016109cc565b90509250929050565b60008060408385031215610a7557600080fd5b610a7e836109cc565b915060208301358015158114610a9357600080fd5b809150509250929050565b6001600160a01b039283168152911660208201526040019056fe60a060405234801561001057600080fd5b506040516109af3803806109af83398101604081905261002f91610040565b6001600160a01b0316608052610070565b60006020828403121561005257600080fd5b81516001600160a01b038116811461006957600080fd5b9392505050565b60805161091f61009060003960008181607f015260f1015261091f6000f3fe6080604052600436106100385760003560e01c80631cff79cd14610044578063c10f1a751461006d578063d2423b51146100b957600080fd5b3661003f57005b600080fd5b6100576100523660046104b5565b6100ce565b6040516100649190610592565b60405180910390f35b34801561007957600080fd5b506100a17f000000000000000000000000000000000000000000000000000000000000000081565b6040516001600160a01b039091168152602001610064565b6100cc6100c73660046105ba565b61038b565b005b60405163751913f760e11b81523060048201526060906000906001600160a01b037f0000000000000000000000000000000000000000000000000000000000000000169063ea3227ee90602401606060405180830381865afa158015610138573d6000803e3d6000fd5b505050506040513d601f19601f8201168201806040525081019061015c9190610656565b80519091506001600160a01b0316331461026057600061017f60048286886106c1565b610188916106eb565b60208301516040516336a3620b60e21b81523360048201526001600160a01b0389811660248301526001600160e01b03198416604483015292935091169063da8d882c90606401602060405180830381865afa1580156101ec573d6000803e3d6000fd5b505050506040513d601f19601f82011682018060405250810190610210919061071b565b61025e5781516040516317dd0e3160e21b81526001600160a01b03918216600482015233602482015290871660448201526001600160e01b0319821660648201526084015b60405180910390fd5b505b6001600160a01b0385163b6102935760405163393100d760e11b81526001600160a01b0386166004820152602401610255565b600081604001515a6102a5919061074e565b90506000866001600160a01b03168287876040516102c4929190610765565b6000604051808303818686f4925050503d8060008114610300576040519150601f19603f3d011682016040523d82523d6000602084013e610305565b606091505b508095508192505050866001600160a01b03167fb24ebe141c5f2a744b103bea65fce6c40e0dc65d7341d092c09b160f4044799087878760405161034b93929190610775565b60405180910390a280610381578351156103685783518085602001fd5b6040516386bda99560e01b815260040160405180910390fd5b5050509392505050565b60005b8281101561043f57600080308686858181106103ac576103ac6107bd565b90506020028101906103be91906107d3565b6040516103cc929190610765565b600060405180830381855af49150503d8060008114610407576040519150601f19603f3d011682016040523d82523d6000602084013e61040c565b606091505b50915091508115801561041c5750835b1561042a5761042a81610445565b5050808061043790610821565b91505061038e565b50505050565b60448151101561046a578060405163d935448560e01b81526004016102559190610592565b60048101905080806020019051810190610484919061083c565b60405162461bcd60e51b81526004016102559190610592565b6001600160a01b03811681146104b257600080fd5b50565b6000806000604084860312156104ca57600080fd5b83356104d58161049d565b9250602084013567ffffffffffffffff808211156104f257600080fd5b818601915086601f83011261050657600080fd5b81358181111561051557600080fd5b87602082850101111561052757600080fd5b6020830194508093505050509250925092565b60005b8381101561055557818101518382015260200161053d565b8381111561043f5750506000910152565b6000815180845261057e81602086016020860161053a565b601f01601f19169290920160200192915050565b6020815260006105a56020830184610566565b9392505050565b80151581146104b257600080fd5b6000806000604084860312156105cf57600080fd5b833567ffffffffffffffff808211156105e757600080fd5b818601915086601f8301126105fb57600080fd5b81358181111561060a57600080fd5b8760208260051b850101111561061f57600080fd5b60209283019550935050840135610635816105ac565b809150509250925092565b634e487b7160e01b600052604160045260246000fd5b60006060828403121561066857600080fd5b6040516060810181811067ffffffffffffffff8211171561068b5761068b610640565b60405282516106998161049d565b815260208301516106a98161049d565b60208201526040928301519281019290925250919050565b600080858511156106d157600080fd5b838611156106de57600080fd5b5050820193919092039150565b6001600160e01b031981358181169160048510156107135780818660040360031b1b83161692505b505092915050565b60006020828403121561072d57600080fd5b81516105a5816105ac565b634e487b7160e01b600052601160045260246000fd5b60008282101561076057610760610738565b500390565b8183823760009101908152919050565b60408152826040820152828460608301376000606084830101526000601f19601f850116820160608382030160208401526107b36060820185610566565b9695505050505050565b634e487b7160e01b600052603260045260246000fd5b6000808335601e198436030181126107ea57600080fd5b83018035915067ffffffffffffffff82111561080557600080fd5b60200191503681900382131561081a57600080fd5b9250929050565b600060001982141561083557610835610738565b5060010190565b60006020828403121561084e57600080fd5b815167ffffffffffffffff8082111561086657600080fd5b818401915084601f83011261087a57600080fd5b81518181111561088c5761088c610640565b604051601f8201601f19908116603f011681019083821181831017156108b4576108b4610640565b816040528281528760208487010111156108cd57600080fd5b6108de83602083016020880161053a565b97965050505050505056fea264697066735822122082b6525abab5614ccf49a74197d0f70d6561fefa49fa2f0d16b0429f657f70d564736f6c634300080a0033a26469706673582212200821d37b615badea484290845f2d9fc16dbf896eb0af1dbb70eede381254d95564736f6c634300080a0033",
  "devdoc": {
    "kind": "dev",
    "methods": {
      "claimOwnership(address,bool)": {
        "params": {
          "clear": "Clear existing proxy permissions if true and maintain them if false",
          "proxy": "Address of the MIMOProxy to claim"
        }
      },
      "clearPermissions(address)": {
        "params": {
          "proxy": "Addess of the MIMOProxy to clear"
        }
      },
      "deploy()": {
        "details": "Sets \"msg.sender\" as the owner of the MIMOProxy."
      },
      "getCurrentProxy(address)": {
        "params": {
          "owner": "The address of the owner of the current MIMOProxy."
        }
      },
      "getPendingOwner(address)": {
        "params": {
          "proxy": "Address of the MIMOProxy"
        },
        "returns": {
          "pendingOwner": "that has yet to claim his ownership"
        }
      },
      "getProxyState(address)": {
        "details": "MIMOProxy state management is outsourced to this contract to prevent storage collisions",
        "params": {
          "proxy": "Address of the MIMOProxy"
        },
        "returns": {
          "proxyState": "as a ProxyState struct containing a MIMOProxy state variables"
        }
      },
      "isProxy(address)": {
        "params": {
          "proxy": "Address of the MIMOProxy to check"
        },
        "returns": {
          "result": "equals true if proxy has been deployed and false if not"
        }
      },
      "setMinGas(address,uint256)": {
        "params": {
          "minGas": "Gas to reserve for running the remainder of the \"execute\" function after the DELEGATECALL in the  MIMOProxy. Prevents the proxy from becoming unusable if EVM opcode gas costs change in the future.",
          "proxy": "Address of the MIMOProxy"
        }
      },
      "transferOwnership(address,address)": {
        "params": {
          "newOwner": "Address of the new owner",
          "proxy": "Address ot the MIMOProxy to transfer"
        }
      }
    },
    "title": "MIMOProxyFactory",
    "version": 1
  },
  "userdoc": {
    "kind": "user",
    "methods": {
      "claimOwnership(address,bool)": {
        "notice": "Needs to be called by `pendingOwner` to claim ownership"
      },
      "clearPermissions(address)": {
        "notice": "Clear all permissions from the MIMOProxy by deploying a new MIMOProxyGuard Can only be called by the MIMOProxy `owner`"
      },
      "deploy()": {
        "notice": "Deploys a new MIMOProxy and MIMOProxyGuard"
      },
      "getCurrentProxy(address)": {
        "notice": "Gets the current MIMOProxy of the given owner."
      },
      "getProxyState(address)": {
        "notice": "Returns a MIMOProxy state"
      },
      "transferOwnership(address,address)": {
        "notice": "Transfers ownership to `newOwner`. Either directly or claimable by the new pending owner. Can only be invoked by the current MIMOProxy `owner`"
      }
    },
    "version": 1
  },
  "storageLayout": {
    "storage": [
      {
        "astId": 10308,
        "contract": "contracts/proxy/MIMOProxyFactory.sol:MIMOProxyFactory",
        "label": "_proxyStates",
        "offset": 0,
        "slot": "0",
        "type": "t_mapping(t_address,t_struct(ProxyState)11008_storage)"
      },
      {
        "astId": 10314,
        "contract": "contracts/proxy/MIMOProxyFactory.sol:MIMOProxyFactory",
        "label": "_currentProxies",
        "offset": 0,
        "slot": "1",
        "type": "t_mapping(t_address,t_contract(IMIMOProxy)10995)"
      },
      {
        "astId": 10319,
        "contract": "contracts/proxy/MIMOProxyFactory.sol:MIMOProxyFactory",
        "label": "_pendingOwners",
        "offset": 0,
        "slot": "2",
        "type": "t_mapping(t_address,t_address)"
      }
    ],
    "types": {
      "t_address": {
        "encoding": "inplace",
        "label": "address",
        "numberOfBytes": "20"
      },
      "t_contract(IMIMOProxy)10995": {
        "encoding": "inplace",
        "label": "contract IMIMOProxy",
        "numberOfBytes": "20"
      },
      "t_contract(IMIMOProxyGuard)11167": {
        "encoding": "inplace",
        "label": "contract IMIMOProxyGuard",
        "numberOfBytes": "20"
      },
      "t_mapping(t_address,t_address)": {
        "encoding": "mapping",
        "key": "t_address",
        "label": "mapping(address => address)",
        "numberOfBytes": "32",
        "value": "t_address"
      },
      "t_mapping(t_address,t_contract(IMIMOProxy)10995)": {
        "encoding": "mapping",
        "key": "t_address",
        "label": "mapping(address => contract IMIMOProxy)",
        "numberOfBytes": "32",
        "value": "t_contract(IMIMOProxy)10995"
      },
      "t_mapping(t_address,t_struct(ProxyState)11008_storage)": {
        "encoding": "mapping",
        "key": "t_address",
        "label": "mapping(address => struct IMIMOProxyFactory.ProxyState)",
        "numberOfBytes": "32",
        "value": "t_struct(ProxyState)11008_storage"
      },
      "t_struct(ProxyState)11008_storage": {
        "encoding": "inplace",
        "label": "struct IMIMOProxyFactory.ProxyState",
        "members": [
          {
            "astId": 11002,
            "contract": "contracts/proxy/MIMOProxyFactory.sol:MIMOProxyFactory",
            "label": "owner",
            "offset": 0,
            "slot": "0",
            "type": "t_address"
          },
          {
            "astId": 11005,
            "contract": "contracts/proxy/MIMOProxyFactory.sol:MIMOProxyFactory",
            "label": "proxyGuard",
            "offset": 0,
            "slot": "1",
            "type": "t_contract(IMIMOProxyGuard)11167"
          },
          {
            "astId": 11007,
            "contract": "contracts/proxy/MIMOProxyFactory.sol:MIMOProxyFactory",
            "label": "minGas",
            "offset": 0,
            "slot": "2",
            "type": "t_uint256"
          }
        ],
        "numberOfBytes": "96"
      },
      "t_uint256": {
        "encoding": "inplace",
        "label": "uint256",
        "numberOfBytes": "32"
      }
    }
  }
}