{
  "address": "0x538bf7635921DFA4023819a0D639F40E3d79A19f",
  "abi": [
    {
      "inputs": [
        {
          "internalType": "contract IAddressProvider",
          "name": "_a",
          "type": "address"
        },
        {
          "internalType": "contract IDexAddressProvider",
          "name": "_dexAP",
          "type": "address"
        },
        {
          "internalType": "contract IPool",
          "name": "_lendingPool",
          "type": "address"
        },
        {
          "internalType": "contract IMIMOProxyFactory",
          "name": "_proxyFactory",
          "type": "address"
        }
      ],
      "stateMutability": "nonpayable",
      "type": "constructor"
    },
    {
      "inputs": [],
      "name": "AGGREGATOR_CALL_FAILED",
      "type": "error"
    },
    {
      "inputs": [
        {
          "internalType": "address",
          "name": "actual",
          "type": "address"
        },
        {
          "internalType": "address",
          "name": "expected",
          "type": "address"
        }
      ],
      "name": "CALLER_NOT_LENDING_POOL",
      "type": "error"
    },
    {
      "inputs": [],
      "name": "CANNOT_REPAY_FLASHLOAN",
      "type": "error"
    },
    {
      "inputs": [],
      "name": "CANNOT_SET_TO_ADDRESS_ZERO",
      "type": "error"
    },
    {
      "inputs": [
        {
          "internalType": "address",
          "name": "actual",
          "type": "address"
        },
        {
          "internalType": "address",
          "name": "expected",
          "type": "address"
        }
      ],
      "name": "INITIATOR_NOT_AUTHORIZED",
      "type": "error"
    },
    {
      "inputs": [],
      "name": "INVALID_AGGREGATOR",
      "type": "error"
    },
    {
      "inputs": [],
      "name": "PAUSED",
      "type": "error"
    },
    {
      "anonymous": false,
      "inputs": [
        {
          "indexed": true,
          "internalType": "address",
          "name": "previousOwner",
          "type": "address"
        },
        {
          "indexed": true,
          "internalType": "address",
          "name": "newOwner",
          "type": "address"
        }
      ],
      "name": "OwnershipTransferred",
      "type": "event"
    },
    {
      "inputs": [],
      "name": "a",
      "outputs": [
        {
          "internalType": "contract IAddressProvider",
          "name": "",
          "type": "address"
        }
      ],
      "stateMutability": "view",
      "type": "function"
    },
    {
      "inputs": [],
      "name": "claimOwnership",
      "outputs": [],
      "stateMutability": "nonpayable",
      "type": "function"
    },
    {
      "inputs": [],
      "name": "dexAP",
      "outputs": [
        {
          "internalType": "contract IDexAddressProvider",
          "name": "",
          "type": "address"
        }
      ],
      "stateMutability": "view",
      "type": "function"
    },
    {
      "inputs": [
        {
          "internalType": "bytes",
          "name": "_calldata",
          "type": "bytes"
        }
      ],
      "name": "executeAction",
      "outputs": [],
      "stateMutability": "nonpayable",
      "type": "function"
    },
    {
      "inputs": [
        {
          "internalType": "address[]",
          "name": "assets",
          "type": "address[]"
        },
        {
          "internalType": "uint256[]",
          "name": "amounts",
          "type": "uint256[]"
        },
        {
          "internalType": "uint256[]",
          "name": "premiums",
          "type": "uint256[]"
        },
        {
          "internalType": "address",
          "name": "initiator",
          "type": "address"
        },
        {
          "internalType": "bytes",
          "name": "params",
          "type": "bytes"
        }
      ],
      "name": "executeOperation",
      "outputs": [
        {
          "internalType": "bool",
          "name": "",
          "type": "bool"
        }
      ],
      "stateMutability": "nonpayable",
      "type": "function"
    },
    {
      "inputs": [],
      "name": "lendingPool",
      "outputs": [
        {
          "internalType": "contract IPool",
          "name": "",
          "type": "address"
        }
      ],
      "stateMutability": "view",
      "type": "function"
    },
    {
      "inputs": [
        {
          "internalType": "contract IERC20",
          "name": "token",
          "type": "address"
        },
        {
          "internalType": "uint256",
          "name": "swapAmount",
          "type": "uint256"
        },
        {
          "internalType": "uint256",
          "name": "flashloanRepayAmount",
          "type": "uint256"
        },
        {
          "components": [
            {
              "internalType": "uint256",
              "name": "dexIndex",
              "type": "uint256"
            },
            {
              "internalType": "bytes",
              "name": "dexTxData",
              "type": "bytes"
            }
          ],
          "internalType": "struct IMIMOSwap.SwapData",
          "name": "swapData",
          "type": "tuple"
        }
      ],
      "name": "leverageOperation",
      "outputs": [],
      "stateMutability": "nonpayable",
      "type": "function"
    },
    {
      "inputs": [],
      "name": "owner",
      "outputs": [
        {
          "internalType": "address",
          "name": "",
          "type": "address"
        }
      ],
      "stateMutability": "view",
      "type": "function"
    },
    {
      "inputs": [],
      "name": "pause",
      "outputs": [],
      "stateMutability": "nonpayable",
      "type": "function"
    },
    {
      "inputs": [],
      "name": "paused",
      "outputs": [
        {
          "internalType": "bool",
          "name": "",
          "type": "bool"
        }
      ],
      "stateMutability": "view",
      "type": "function"
    },
    {
      "inputs": [],
      "name": "pendingOwner",
      "outputs": [
        {
          "internalType": "address",
          "name": "",
          "type": "address"
        }
      ],
      "stateMutability": "view",
      "type": "function"
    },
    {
      "inputs": [],
      "name": "proxyFactory",
      "outputs": [
        {
          "internalType": "contract IMIMOProxyFactory",
          "name": "",
          "type": "address"
        }
      ],
      "stateMutability": "view",
      "type": "function"
    },
    {
      "inputs": [
        {
          "internalType": "address",
          "name": "newOwner",
          "type": "address"
        },
        {
          "internalType": "bool",
          "name": "direct",
          "type": "bool"
        },
        {
          "internalType": "bool",
          "name": "renounce",
          "type": "bool"
        }
      ],
      "name": "transferOwnership",
      "outputs": [],
      "stateMutability": "nonpayable",
      "type": "function"
    },
    {
      "inputs": [],
      "name": "unpause",
      "outputs": [],
      "stateMutability": "nonpayable",
      "type": "function"
    }
  ],
  "transactionHash": "0xae431143d67b06ebeef2c8b280792a8d44b95012f290b8bbc29aaf0e610843b6",
  "args": [
    "0xa802eE4bd9f449295ADb6d73f65118352420758A",
    "0x8c4e94E5e3E5676b734c32e5723Fb2063F3fFd89",
    "0x794a61358D6845594F94dc1DB02A252b5b4814aD",
    "0x44e3c7B3994ce6C29a4E64A16ff998DAb5f996a3"
  ],
  "numDeployments": 1,
  "solcInputHash": "f32a31898ee3e7d355d788de2c8f3c93",
  "bytecode": "0x6101206040523480156200001257600080fd5b5060405162001f1a38038062001f1a83398101604081905262000035916200014b565b600080546001600160a01b0319163390811782556040518692869286929091907f8be0079c531659141344cd1fd0a4f28419497f9722a3daafe3b4186f6b6457e0908290a36001600160a01b038116620000a257604051636a8403ad60e01b815260040160405180910390fd5b6001600160a01b0390811660805282161580620000c657506001600160a01b038116155b15620000e557604051636a8403ad60e01b815260040160405180910390fd5b6001600160a01b0391821660a052811660c05281166200011857604051636a8403ad60e01b815260040160405180910390fd5b6001600160a01b03166101005250503060e05250620001b3565b6001600160a01b03811681146200014857600080fd5b50565b600080600080608085870312156200016257600080fd5b84516200016f8162000132565b6020860151909450620001828162000132565b6040860151909350620001958162000132565b6060860151909250620001a88162000132565b939692955090935050565b60805160a05160c05160e05161010051611cdd6200023d6000396000818161021d015261096701526000818161036b0152818161088f0152610c3d01526000818160f40152610e5501526000818161014d0152818161040d015261057e0152600081816101f601528181610a2401528181610a6601528181610c0001526110ec0152611cdd6000f3fe608060405234801561001057600080fd5b50600436106100ea5760003560e01c80638456cb591161008c578063a129568d11610066578063a129568d146101de578063a59a9973146101f1578063c10f1a7514610218578063e30c39781461023f57600080fd5b80638456cb59146101b05780638da5cb5b146101b8578063920f5c84146101cb57600080fd5b80632f69f56f116100c85780632f69f56f1461016f5780633f4ba83a146101825780634e71e0c81461018a5780635c975abb1461019257600080fd5b806306e85b37146100ef578063078dfbe7146101335780630dbe671f14610148575b600080fd5b6101167f000000000000000000000000000000000000000000000000000000000000000081565b6040516001600160a01b0390911681526020015b60405180910390f35b6101466101413660046113e2565b610252565b005b6101167f000000000000000000000000000000000000000000000000000000000000000081565b61014661017d36600461142d565b610369565b610146610756565b61014661078f565b600154600160a01b900460ff165b604051901515815260200161012a565b61014661084c565b600054610116906001600160a01b031681565b6101a06101d9366004611523565b61088b565b6101466101ec3660046115fe565b610c3b565b6101167f000000000000000000000000000000000000000000000000000000000000000081565b6101167f000000000000000000000000000000000000000000000000000000000000000081565b600154610116906001600160a01b031681565b6000546001600160a01b031633146102855760405162461bcd60e51b815260040161027c90611640565b60405180910390fd5b8115610348576001600160a01b03831615158061029f5750805b6102e35760405162461bcd60e51b81526020600482015260156024820152744f776e61626c653a207a65726f206164647265737360581b604482015260640161027c565b600080546040516001600160a01b03808716939216917f8be0079c531659141344cd1fd0a4f28419497f9722a3daafe3b4186f6b6457e091a3600080546001600160a01b0385166001600160a01b031991821617909155600180549091169055505050565b600180546001600160a01b0319166001600160a01b0385161790555b505050565b7f00000000000000000000000000000000000000000000000000000000000000006001600160a01b0316635c975abb6040518163ffffffff1660e01b8152600401602060405180830381865afa1580156103c7573d6000803e3d6000fd5b505050506040513d601f19601f820116820180604052508101906103eb9190611675565b1561040957604051632a6ab56360e21b815260040160405180910390fd5b60007f00000000000000000000000000000000000000000000000000000000000000006001600160a01b031663f2f4eb266040518163ffffffff1660e01b8152600401602060405180830381865afa158015610469573d6000803e3d6000fd5b505050506040513d601f19601f8201168201806040525081019061048d9190611692565b6040516370a0823160e01b81523060048201529091506000906001600160a01b038716906370a0823190602401602060405180830381865afa1580156104d7573d6000803e3d6000fd5b505050506040513d601f19601f820116820180604052508101906104fb91906116af565b90506105116001600160a01b0387168383610d4f565b60405163a178908560e01b81526001600160a01b038781166004830152602482018390526044820187905283169063a178908590606401600060405180830381600087803b15801561056257600080fd5b505af1158015610576573d6000803e3d6000fd5b5050505060007f00000000000000000000000000000000000000000000000000000000000000006001600160a01b03166316d8a5a96040518163ffffffff1660e01b8152600401602060405180830381865afa1580156105da573d6000803e3d6000fd5b505050506040513d601f19601f820116820180604052508101906105fe9190611692565b905061060b818786610e3a565b6040516370a0823160e01b81523060048201526000906001600160a01b038916906370a0823190602401602060405180830381865afa158015610652573d6000803e3d6000fd5b505050506040513d601f19601f8201168201806040525081019061067691906116af565b905080861115610698576040516202b12560e51b815260040160405180910390fd5b85811115610738576106bf846106ae88846116de565b6001600160a01b038b169190610d4f565b6001600160a01b0384166347e7ef24896106d989856116de565b6040516001600160e01b031960e085901b1681526001600160a01b0390921660048301526024820152604401600060405180830381600087803b15801561071f57600080fd5b505af1158015610733573d6000803e3d6000fd5b505050505b61074c6001600160a01b0389163388610fb7565b5050505050505050565b6000546001600160a01b031633146107805760405162461bcd60e51b815260040161027c90611640565b6001805460ff60a01b19169055565b6001546001600160a01b03163381146107ea5760405162461bcd60e51b815260206004820181905260248201527f4f776e61626c653a2063616c6c657220213d2070656e64696e67206f776e6572604482015260640161027c565b600080546040516001600160a01b03808516939216917f8be0079c531659141344cd1fd0a4f28419497f9722a3daafe3b4186f6b6457e091a3600080546001600160a01b039092166001600160a01b0319928316179055600180549091169055565b6000546001600160a01b031633146108765760405162461bcd60e51b815260040161027c90611640565b6001805460ff60a01b1916600160a01b179055565b60007f00000000000000000000000000000000000000000000000000000000000000006001600160a01b0316635c975abb6040518163ffffffff1660e01b8152600401602060405180830381865afa1580156108eb573d6000803e3d6000fd5b505050506040513d601f19601f8201168201806040525081019061090f9190611675565b1561092d57604051632a6ab56360e21b815260040160405180910390fd5b6000808061093d85870187611814565b6040516326558c5d60e21b81526001600160a01b03808516600483015293965091945092506000917f00000000000000000000000000000000000000000000000000000000000000001690639956317490602401602060405180830381865afa1580156109ae573d6000803e3d6000fd5b505050506040513d601f19601f820116820180604052508101906109d29190611692565b9050806001600160a01b0316886001600160a01b031614610a1957604051637c6b83fd60e01b81526001600160a01b03808a1660048301528216602482015260440161027c565b336001600160a01b037f00000000000000000000000000000000000000000000000000000000000000001614610a9357604051631489d26d60e11b81523360048201526001600160a01b037f000000000000000000000000000000000000000000000000000000000000000016602482015260440161027c565b60008e8e6000818110610aa857610aa861186d565b9050602002016020810190610abd9190611883565b9050610af6828e8e6000818110610ad657610ad661186d565b90506020020135836001600160a01b0316610fb79092919063ffffffff16565b60008b8b6000818110610b0b57610b0b61186d565b905060200201358e8e6000818110610b2557610b2561186d565b90506020020135610b3691906118a0565b9050826001600160a01b0316631cff79cd3084888589604051602401610b5f9493929190611937565b60408051601f198184030181529181526020820180516001600160e01b0316632f69f56f60e01b1790525160e084901b6001600160e01b0319168152610ba992919060040161196e565b6000604051808303816000875af1158015610bc8573d6000803e3d6000fd5b505050506040513d6000823e601f3d908101601f19168201604052610bf09190810190611992565b50610c256001600160a01b0383167f000000000000000000000000000000000000000000000000000000000000000083610d4f565b5060019f9e505050505050505050505050505050565b7f00000000000000000000000000000000000000000000000000000000000000006001600160a01b0316635c975abb6040518163ffffffff1660e01b8152600401602060405180830381865afa158015610c99573d6000803e3d6000fd5b505050506040513d601f19601f82011682018060405250810190610cbd9190611675565b15610cdb57604051632a6ab56360e21b815260040160405180910390fd5b6000808080610cec85870187611a09565b93509350935093506000841115610d14578151610d14906001600160a01b0316333087610fe7565b6000338483604051602001610d2b93929190611ac9565b6040516020818303038152906040529050610d46838261101f565b50505050505050565b604051636eb1769f60e11b81523060048201526001600160a01b038381166024830152600091839186169063dd62ed3e90604401602060405180830381865afa158015610da0573d6000803e3d6000fd5b505050506040513d601f19601f82011682018060405250810190610dc491906116af565b610dce91906118a0565b6040516001600160a01b038516602482015260448101829052909150610e3490859063095ea7b360e01b906064015b60408051601f198184030181529190526020810180516001600160e01b03166001600160e01b031990931692909217909152611167565b50505050565b60405163b5f0f1b760e01b81528135600482015260009081907f00000000000000000000000000000000000000000000000000000000000000006001600160a01b03169063b5f0f1b7906024016040805180830381865afa158015610ea3573d6000803e3d6000fd5b505050506040513d601f19601f82011682018060405250810190610ec79190611af0565b90925090506001600160a01b0382161580610ee957506001600160a01b038116155b15610f075760405163718d6a1560e01b815260040160405180910390fd5b610f1b6001600160a01b0386168386610d4f565b6000806001600160a01b038316610f356020870187611b2a565b604051610f43929190611b71565b6000604051808303816000865af19150503d8060008114610f80576040519150601f19603f3d011682016040523d82523d6000602084013e610f85565b606091505b509150915081610d4657805115610f9f5780518082602001fd5b604051620ef4b760e61b815260040160405180910390fd5b6040516001600160a01b03831660248201526044810182905261036490849063a9059cbb60e01b90606401610dfd565b6040516001600160a01b0380851660248301528316604482015260648101829052610e349085906323b872dd60e01b90608401610dfd565b604080516001808252818301909252600091602080830190803683375050604080516001808252818301909252929350600092915060208083019080368337505060408051600180825281830190925292935060009291506020808301908036833701905050905084600001518560400151846000815181106110a4576110a461186d565b60200260200101846000815181106110be576110be61186d565b6020908102919091018101929092526001600160a01b03928316905286015160405163ab9c4b5d60e01b81527f00000000000000000000000000000000000000000000000000000000000000009092169163ab9c4b5d9161112e9187908790879084908c90600090600401611bbc565b600060405180830381600087803b15801561114857600080fd5b505af115801561115c573d6000803e3d6000fd5b505050505050505050565b60006111bc826040518060400160405280602081526020017f5361666545524332303a206c6f772d6c6576656c2063616c6c206661696c6564815250856001600160a01b03166112399092919063ffffffff16565b80519091501561036457808060200190518101906111da9190611675565b6103645760405162461bcd60e51b815260206004820152602a60248201527f5361666545524332303a204552433230206f7065726174696f6e20646964206e6044820152691bdd081cdd58d8d9595960b21b606482015260840161027c565b60606112488484600085611252565b90505b9392505050565b6060824710156112b35760405162461bcd60e51b815260206004820152602660248201527f416464726573733a20696e73756666696369656e742062616c616e636520666f6044820152651c8818d85b1b60d21b606482015260840161027c565b6001600160a01b0385163b61130a5760405162461bcd60e51b815260206004820152601d60248201527f416464726573733a2063616c6c20746f206e6f6e2d636f6e7472616374000000604482015260640161027c565b600080866001600160a01b031685876040516113269190611c78565b60006040518083038185875af1925050503d8060008114611363576040519150601f19603f3d011682016040523d82523d6000602084013e611368565b606091505b5091509150611378828286611383565b979650505050505050565b6060831561139257508161124b565b8251156113a25782518084602001fd5b8160405162461bcd60e51b815260040161027c9190611c94565b6001600160a01b03811681146113d157600080fd5b50565b80151581146113d157600080fd5b6000806000606084860312156113f757600080fd5b8335611402816113bc565b92506020840135611412816113d4565b91506040840135611422816113d4565b809150509250925092565b6000806000806080858703121561144357600080fd5b843561144e816113bc565b93506020850135925060408501359150606085013567ffffffffffffffff81111561147857600080fd5b85016040818803121561148a57600080fd5b939692955090935050565b60008083601f8401126114a757600080fd5b50813567ffffffffffffffff8111156114bf57600080fd5b6020830191508360208260051b85010111156114da57600080fd5b9250929050565b60008083601f8401126114f357600080fd5b50813567ffffffffffffffff81111561150b57600080fd5b6020830191508360208285010111156114da57600080fd5b600080600080600080600080600060a08a8c03121561154157600080fd5b893567ffffffffffffffff8082111561155957600080fd5b6115658d838e01611495565b909b50995060208c013591508082111561157e57600080fd5b61158a8d838e01611495565b909950975060408c01359150808211156115a357600080fd5b6115af8d838e01611495565b909750955060608c013591506115c4826113bc565b90935060808b013590808211156115da57600080fd5b506115e78c828d016114e1565b915080935050809150509295985092959850929598565b6000806020838503121561161157600080fd5b823567ffffffffffffffff81111561162857600080fd5b611634858286016114e1565b90969095509350505050565b6020808252818101527f4f776e61626c653a2063616c6c6572206973206e6f7420746865206f776e6572604082015260600190565b60006020828403121561168757600080fd5b815161124b816113d4565b6000602082840312156116a457600080fd5b815161124b816113bc565b6000602082840312156116c157600080fd5b5051919050565b634e487b7160e01b600052601160045260246000fd5b6000828210156116f0576116f06116c8565b500390565b634e487b7160e01b600052604160045260246000fd5b604051601f8201601f1916810167ffffffffffffffff81118282101715611734576117346116f5565b604052919050565b600067ffffffffffffffff821115611756576117566116f5565b50601f01601f191660200190565b60006040828403121561177657600080fd5b6040516040810167ffffffffffffffff828210818311171561179a5761179a6116f5565b81604052829350843583526020915081850135818111156117ba57600080fd5b85019050601f810186136117cd57600080fd5b80356117e06117db8261173c565b61170b565b81815287848385010111156117f457600080fd5b818484018583013760008483830101528084860152505050505092915050565b60008060006060848603121561182957600080fd5b8335611834816113bc565b925060208401359150604084013567ffffffffffffffff81111561185757600080fd5b61186386828701611764565b9150509250925092565b634e487b7160e01b600052603260045260246000fd5b60006020828403121561189557600080fd5b813561124b816113bc565b600082198211156118b3576118b36116c8565b500190565b60005b838110156118d35781810151838201526020016118bb565b83811115610e345750506000910152565b600081518084526118fc8160208601602086016118b8565b601f01601f19169290920160200192915050565b80518252600060208201516040602085015261192f60408501826118e4565b949350505050565b60018060a01b03851681528360208201528260408201526080606082015260006119646080830184611910565b9695505050505050565b6001600160a01b0383168152604060208201819052600090611248908301846118e4565b6000602082840312156119a457600080fd5b815167ffffffffffffffff8111156119bb57600080fd5b8201601f810184136119cc57600080fd5b80516119da6117db8261173c565b8181528560208385010111156119ef57600080fd5b611a008260208301602086016118b8565b95945050505050565b60008060008084860360c0811215611a2057600080fd5b85359450602086013593506060603f1982011215611a3d57600080fd5b506040516060810167ffffffffffffffff8282108183111715611a6257611a626116f5565b8160405260408801359150611a76826113bc565b908252606087013590611a88826113bc565b8160208401526080880135604084015282945060a0880135925080831115611aaf57600080fd5b5050611abd87828801611764565b91505092959194509250565b60018060a01b0384168152826020820152606060408201526000611a006060830184611910565b60008060408385031215611b0357600080fd5b8251611b0e816113bc565b6020840151909250611b1f816113bc565b809150509250929050565b6000808335601e19843603018112611b4157600080fd5b83018035915067ffffffffffffffff821115611b5c57600080fd5b6020019150368190038213156114da57600080fd5b8183823760009101908152919050565b600081518084526020808501945080840160005b83811015611bb157815187529582019590820190600101611b95565b509495945050505050565b6001600160a01b03888116825260e0602080840182905289519184018290526000928a820192909190610100860190855b81811015611c0b578551851683529483019491830191600101611bed565b50508581036040870152611c1f818c611b81565b93505050508281036060840152611c368188611b81565b6001600160a01b0387166080850152905082810360a0840152611c5981866118e4565b915050611c6c60c083018461ffff169052565b98975050505050505050565b60008251611c8a8184602087016118b8565b9190910192915050565b60208152600061124b60208301846118e456fea264697066735822122013be230c077b48f49c8924d439ae8bbd9b1a648c87ecc2e942520b69e614b02a64736f6c634300080a0033",
  "devdoc": {
    "kind": "dev",
    "methods": {
      "executeAction(bytes)": {
        "details": "Uses an AAVE V3 flashLoan that will call executeOperation",
        "params": {
          "_calldata": "Bytes containing depositAmount, stablex swapAmount, struct FlashloanDat data and struc SwapData"
        }
      },
      "executeOperation(address[],uint256[],uint256[],address,bytes)": {
        "details": "Integrates with AAVE V3 flashLoans",
        "params": {
          "amounts": "Uint array with one element corresponding to the amount of the leveraged asset",
          "assets": "Address array with one element corresponding to the address of the leveraged asset",
          "initiator": "Initiator of the flashloan; can only be MIMOProxy owner",
          "params": "Bytes sent by this contract containing MIMOProxy owner, stablex swap amount and swap data",
          "premiums": "Uint array with one element corresponding to the flashLoan fees"
        },
        "returns": {
          "_0": "True if success and False if failed"
        }
      },
      "leverageOperation(address,uint256,uint256,(uint256,bytes))": {
        "params": {
          "flashloanRepayAmount": "Amount to be repaid for the flashloan",
          "swapAmount": "Stablex swap amount",
          "swapData": "SwapData passed from the flashloan call",
          "token": "ERC20 token to leverage"
        }
      },
      "transferOwnership(address,bool,bool)": {
        "params": {
          "direct": "True if `newOwner` should be set immediately. False if `newOwner` needs to use `claimOwnership`.",
          "newOwner": "Address of the new owner.",
          "renounce": "Allows the `newOwner` to be `address(0)` if `direct` and `renounce` is True. Has no effect otherwise."
        }
      }
    },
    "version": 1
  },
  "userdoc": {
    "kind": "user",
    "methods": {
      "claimOwnership()": {
        "notice": "Needs to be called by `pendingOwner` to claim ownership."
      },
      "executeAction(bytes)": {
        "notice": "Leverage an asset using a flashloan to balance collateralVault must have been created though a MIMOProxy"
      },
      "executeOperation(address[],uint256[],uint256[],address,bytes)": {
        "notice": "Executes an leverage operation after taking a flashloan"
      },
      "leverageOperation(address,uint256,uint256,(uint256,bytes))": {
        "notice": "Used by executeOperation through MIMOProxy callback to perform leverage logic within MIMOProxy context"
      },
      "transferOwnership(address,bool,bool)": {
        "notice": "Transfers ownership to `newOwner`. Either directly or claimable by the new pending owner. Can only be invoked by the current `owner`."
      }
    },
    "version": 1
  },
  "storageLayout": {
    "storage": [
      {
        "astId": 9731,
        "contract": "contracts/actions/MIMOLeverage.sol:MIMOLeverage",
        "label": "owner",
        "offset": 0,
        "slot": "0",
        "type": "t_address"
      },
      {
        "astId": 9733,
        "contract": "contracts/actions/MIMOLeverage.sol:MIMOLeverage",
        "label": "pendingOwner",
        "offset": 0,
        "slot": "1",
        "type": "t_address"
      },
      {
        "astId": 3065,
        "contract": "contracts/actions/MIMOLeverage.sol:MIMOLeverage",
        "label": "_paused",
        "offset": 20,
        "slot": "1",
        "type": "t_bool"
      }
    ],
    "types": {
      "t_address": {
        "encoding": "inplace",
        "label": "address",
        "numberOfBytes": "20"
      },
      "t_bool": {
        "encoding": "inplace",
        "label": "bool",
        "numberOfBytes": "1"
      }
    }
  }
}