{
  "address": "0xaA2d75b00Ab98043d7ddCD73615636014d52053F",
  "abi": [
    {
      "inputs": [],
      "name": "EXECUTION_REVERTED",
      "type": "error"
    },
    {
      "inputs": [
        {
          "internalType": "uint256",
          "name": "targetsLength",
          "type": "uint256"
        },
        {
          "internalType": "uint256",
          "name": "dataLength",
          "type": "uint256"
        }
      ],
      "name": "TARGETS_LENGTH_DIFFERENT_THAN_DATA_LENGTH",
      "type": "error"
    },
    {
      "inputs": [
        {
          "internalType": "address",
          "name": "target",
          "type": "address"
        }
      ],
      "name": "TARGET_INVALID",
      "type": "error"
    },
    {
      "inputs": [
        {
          "internalType": "address[]",
          "name": "targets",
          "type": "address[]"
        },
        {
          "internalType": "bytes[]",
          "name": "data",
          "type": "bytes[]"
        }
      ],
      "name": "multicall",
      "outputs": [
        {
          "internalType": "bytes[]",
          "name": "",
          "type": "bytes[]"
        }
      ],
      "stateMutability": "nonpayable",
      "type": "function"
    },
    {
      "inputs": [],
      "name": "withdrawETH",
      "outputs": [],
      "stateMutability": "payable",
      "type": "function"
    }
  ],
  "transactionHash": "0x61bf3fe60bf32db594c6e3d87354f1f9f18071cdc4cb0608e65939ea6809a1e4",
  "args": [],
  "numDeployments": 1,
  "solcInputHash": "f32a31898ee3e7d355d788de2c8f3c93",
  "bytecode": "0x608060405234801561001057600080fd5b506106d9806100206000396000f3fe6080604052600436106100295760003560e01c806363fb0b961461002e578063e086e5ec14610064575b600080fd5b34801561003a57600080fd5b5061004e61004936600461041e565b61006e565b60405161005b919061048a565b60405180910390f35b61006c610293565b005b606083821461009f576040516382080a2960e01b815260048101859052602481018390526044015b60405180910390fd5b60008267ffffffffffffffff8111156100ba576100ba610525565b6040519080825280602002602001820160405280156100ed57816020015b60608152602001906001900390816100d85790505b50905060005b858110156102895786868281811061010d5761010d61053b565b90506020020160208101906101229190610569565b6001600160a01b03163b61017c578686828181106101425761014261053b565b90506020020160208101906101579190610569565b60405163393100d760e11b81526001600160a01b039091166004820152602401610096565b6000808888848181106101915761019161053b565b90506020020160208101906101a69190610569565b6001600160a01b03168787858181106101c1576101c161053b565b90506020028101906101d3919061058d565b6040516101e19291906105d4565b6000604051808303816000865af19150503d806000811461021e576040519150601f19603f3d011682016040523d82523d6000602084013e610223565b606091505b5091509150816102565780511561023d5780518082602001fd5b6040516386bda99560e01b815260040160405180910390fd5b808484815181106102695761026961053b565b602002602001018190525050508080610281906105e4565b9150506100f3565b5095945050505050565b600080306001600160a01b031663c10f1a756040518163ffffffff1660e01b81526004016020604051808303816000875af11580156102d6573d6000803e3d6000fd5b505050506040513d601f19601f820116820180604052508101906102fa919061060d565b60405163751913f760e11b81523060048201526001600160a01b03919091169063ea3227ee90602401606060405180830381865afa158015610340573d6000803e3d6000fd5b505050506040513d601f19601f82011682018060405250810190610364919061062a565b516040516001600160a01b03909116904790600081818185875af1925050503d80600081146103af576040519150601f19603f3d011682016040523d82523d6000602084013e6103b4565b606091505b5091509150816103ce5780511561023d5780518082602001fd5b5050565b60008083601f8401126103e457600080fd5b50813567ffffffffffffffff8111156103fc57600080fd5b6020830191508360208260051b850101111561041757600080fd5b9250929050565b6000806000806040858703121561043457600080fd5b843567ffffffffffffffff8082111561044c57600080fd5b610458888389016103d2565b9096509450602087013591508082111561047157600080fd5b5061047e878288016103d2565b95989497509550505050565b6000602080830181845280855180835260408601915060408160051b87010192508387016000805b8381101561051757888603603f1901855282518051808852835b818110156104e7578281018a01518982018b015289016104cc565b818111156104f757848a838b0101525b50601f01601f1916969096018701955093860193918601916001016104b2565b509398975050505050505050565b634e487b7160e01b600052604160045260246000fd5b634e487b7160e01b600052603260045260246000fd5b6001600160a01b038116811461056657600080fd5b50565b60006020828403121561057b57600080fd5b813561058681610551565b9392505050565b6000808335601e198436030181126105a457600080fd5b83018035915067ffffffffffffffff8211156105bf57600080fd5b60200191503681900382131561041757600080fd5b8183823760009101908152919050565b600060001982141561060657634e487b7160e01b600052601160045260246000fd5b5060010190565b60006020828403121561061f57600080fd5b815161058681610551565b60006060828403121561063c57600080fd5b6040516060810181811067ffffffffffffffff8211171561066d57634e487b7160e01b600052604160045260246000fd5b604052825161067b81610551565b8152602083015161068b81610551565b6020820152604092830151928101929092525091905056fea2646970667358221220d6ff2be1b9b8e90915a63e0335b78578a6ccefd3857f61885da8706e862ef2a264736f6c634300080a0033",
  "devdoc": {
    "kind": "dev",
    "methods": {
      "multicall(address[],bytes[])": {
        "params": {
          "data": "Bytes array of encoded function data for each target call",
          "targets": "Address array of all contracts to call"
        }
      }
    },
    "version": 1
  },
  "userdoc": {
    "kind": "user",
    "methods": {
      "multicall(address[],bytes[])": {
        "notice": "Call multiple functions from current contract and return the data from all of them if they all succeed"
      },
      "withdrawETH()": {
        "notice": "Sends ETH back to owner of the MIMOProxy Can only be called by MIMOProxy owner"
      }
    },
    "version": 1
  },
  "storageLayout": {
    "storage": [],
    "types": null
  }
}